:1000000082C30000B1C30000AFC30000ADC3000055
:10001000ABC30000A9C30000A7C30000A5C3000034
:10002000A3C30000A1C300009FC300009DC3000044
:100030009BC3000099C3000097C3000095C3000054
:1000400093C3000091C300008FC300008DC3000064
:100050008BC3000089C3000087C300000C94F8170D
:1000600083C300000C94C2170C9498177DC3000042
:100070007BC3000079C3000077C3000075C3000094
:1000800073C3000071C300006FC300006DC30000A4
:100090006BC3000069C3000067C300000C944218E2
:1000A00063C3000061C300005FC300005DC30000C4
:1000B0005BC3000059C3000057C3000055C30000D4
:1000C00053C3000051C300004FC300004DC30000E4
:1000D0004BC3000049C3000047C3000045C30000F4
:1000E00043C3000000000000003E5B4F5B3E3E6BE0
:1000F0004F6B3E1C3E7C3E1C183C7E3C181C577DC2
:10010000571C1C5E7F5E1C00183C1800FFE7C3E70D
:10011000FF0018241800FFE7DBE7FF30483A060E1F
:100120002629792926407F050507407F05253F5A66
:100130003CE73C5A7F3E1C1C08081C1C3E7F1422D6
:100140007F22145F5F005F5F06097F017F00668981
:10015000956A606060606094A2FFA29408047E04C7
:100160000810207E201008082A1C08081C2A0808ED
:100170001E101010100C1E0C1E0C30383E383006AD
:100180000E3E0E06000000000000005F00000007A9
:10019000000700147F147F14242A7F2A12231308D7
:1001A000646236495620500008070300001C2241B3
:1001B000000041221C002A1C7F1C2A08083E080857
:1001C0000080703000080808080800006060002007
:1001D000100804023E5149453E00427F40007249EA
:1001E0004949462141494D331814127F102745458E
:1001F00045393C4A494931412111090736494949A4
:1002000036464949291E0000140000004034000011
:10021000000814224114141414140041221408027A
:10022000015909063E415D594E7C1211127C7F49ED
:100230004949363E414141227F4141413E7F494942
:1002400049417F090909013E414151737F0808086E
:100250007F00417F41002040413F017F081422413F
:100260007F404040407F021C027F7F0408107F3E99
:100270004141413E7F090909063E4151215E7F0906
:10028000192946264949493203017F01033F40406D
:10029000403F1F2040201F3F4038403F6314081458
:1002A0006303047804036159494D43007F41414190
:1002B0000204081020004141417F04020102044071
:1002C00040404040000307080020545478407F28F5
:1002D0004444383844444428384444287F385454EB
:1002E000541800087E090218A4A49C787F0804040E
:1002F0007800447D40002040403D007F10284400AD
:1003000000417F40007C047804787C08040478383D
:1003100044444438FC1824241818242418FC7C086D
:10032000040408485454542404043F44243C4040EA
:10033000207C1C2040201C3C4030403C442810289D
:10034000444C9090907C4464544C440008364100E6
:100350000000770000004136080002010204023C60
:100360002623263C1EA1A161123A4040207A38542F
:1003700054555921555579412254547842215554A8
:10038000784020545579400C1E52721239555555FB
:1003900059395454545939555454580000457C41E6
:1003A0000002457D420001457C407D1211127DF026
:1003B000282528F07C545545002054547C547C0A50
:1003C000097F4932494949323A4444443A324A4819
:1003D00048303A4141217A3A42402078009DA0A01D
:1003E0007D3D4242423D3D4040403D3C24FF24246F
:1003F000487E4943662B2FFC2F2BFF0929F620C08E
:10040000887E090320545479410000447D413048DE
:10041000484A32384040227A007A0A0A727D0D1921
:10042000317D2629292F28262929292630484D4083
:1004300020380808080808080808382F10C8ACBA7F
:100440002F102834FA00007B000008142A142222FE
:10045000142A14085500550055AA55AA55AAFF5547
:10046000FF55FF000000FF00101010FF00141414CF
:10047000FF001010FF00FF1010F010F0141414FC17
:10048000001414F700FF0000FF00FF1414F404FC34
:10049000141417101F10101F101F1414141F001015
:1004A0001010F0000000001F101010101F1010108E
:1004B00010F010000000FF1010101010101010109D
:1004C000FF10000000FF140000FF00FF00001F10DD
:1004D000170000FC04F414141710171414F404F497
:1004E0000000FF00F714141414141414F700F71488
:1004F0001414171410101F101F141414F4141010D7
:10050000F010F000001F101F0000001F140000007A
:10051000FC140000F010F01010FF10FF141414FF72
:10052000141010101F00000000F010FFFFFFFFFF6D
:10053000F0F0F0F0F0FFFFFF0000000000FFFF0F01
:100540000F0F0F0F3844443844FC4A4A4A347E02A5
:10055000020606027E027E02635549416338444426
:100560003C04407E201E2006027E020299A5E7A5DB
:10057000991C2A492A1C4C7201724C304A4D4D304C
:100580003048784830BC625A463D3E494949007E71
:100590000101017E2A2A2A2A2A44445F4444405108
:1005A0004A444040444A51400000FF0103E080FFBC
:1005B000000008086B6B083612362436060F090F48
:1005C00006000018180000001010003040FF010164
:1005D000001F01011E00191D1712003C3C3C3C008D
:1005E0000000000000002100240027002A002D0048
:1005F0003000330001010000040107010A0100007E
:100600002200250028002B002E00310034000201BA
:100610000000050108010B01000020002300260056
:1006200029002C002F003200000100000301060108
:100630000901050505050705080808080202020268
:100640000A0A08080404040401010101010101016E
:100650000303030303030303040707070C0C0C0C39
:100660000C0C0C0C02020202060606060606060622
:100670000B0B0B0B0B0B0B0B0102102020080810AF
:100680002040102040800201020108040201010202
:1006900004081020408080402010080402018004DB
:1006A0000201804020100804020108040201010236
:1006B000040810204080010204081020408000003F
:1006C0000A0B02090C0D0E080703040100000000CC
:1006D000000000000000000000000000000000001A
:1006E00000000000000000000000121110000000D7
:1006F00000000000000000000000000000000000FA
:1007000000000000661911241FBECFEFD1E2DEBF4A
:10071000CDBF00E00CBF1CE0A0E0B2E0E8E8FBE5E4
:1007200000E00BBF02C007900D92A433B107D9F7C8
:100730002EE0A4E3BCE001C01D92A330B207E1F7B4
:1007400013E0C3E8D3E000E006C021970109802F41
:10075000FE010E94A22DC238D10780E00807A9F748
:100760000E94CC190C94C22D4BCC20912A0D81E013
:10077000213208F044C08091060D8111FCCF809198
:10078000290D92E09093060D91E09093050D9FEF57
:100790009093040D1092030D2093020DA9E0BDE08B
:1007A000E2EEFCE090E0291331C01092E10C909150
:1007B000E10C880F892B8093E10C8091E00C813053
:1007C00049F51092E00C8091E10C8093BB00809180
:1007D000BC0083FDF8CF85EC8093BC008091060DB2
:1007E0008230E1F38091040D8F3FB1F08091040DD0
:1007F0008032A1F08091040D803391F084E010925A
:10080000080D10922A0D1092070D08953D91319315
:100810009F5FC9CF85EEE0CF80E0F1CF82E0EFCFE0
:1008200083E0EDCF28E030E040E8E091F90DF09171
:10083000FA0D50819091000E909595239083E09150
:10084000F70DF091F80D9091FF0D582F542389F07A
:100850005081952B9083E091F90DF091FA0D9081E4
:100860005091000E952B9083469521503109E9F661
:100870000895508190959523EDCFAF92BF92CF927E
:10088000DF92EF92FF920F931F93CF93DF936C0150
:100890007B018B01040F151FEB015E01AE18BF0831
:1008A000C017D10759F06991D601ED91FC910190E3
:1008B000F081E02DC6011995892B79F7C501DF91EB
:1008C000CF911F910F91FF90EF90DF90CF90BF904D
:1008D000AF900895FC01538D448D252F30E0842F77
:1008E00090E0821B930B541710F0CF960895019758
:1008F0000895FC01918D828D981761F0A28DAE0F45
:10090000BF2FB11D5D968C91928D9F5F9F73928FCB
:1009100090E008958FEF9FEF0895FC01918D828DF7
:10092000981731F0828DE80FF11D858D90E00895C4
:100930008FEF9FEF0895FC01918D228D892F90E01C
:10094000805C9F4F821B91098F73992708958BE2DA
:100950009DE0F1DF21E0892B09F420E0822F08954A
:10096000FC01A48DA80FB92FB11DA35ABF4F2C9124
:10097000848D90E001968F739927848FA689B7891B
:100980002C93A089B1898C91837080648C93938D12
:10099000848D981306C00288F389E02D80818F7DB5
:1009A00080830895EF92FF920F931F93CF93DF936D
:1009B000EC0181E0888F9B8D8C8D98131AC0E8899B
:1009C000F989808185FF15C09FB7F894EE89FF896A
:1009D0006083E889F98980818370806480839FBF08
:1009E00081E090E0DF91CF911F910F91FF90EF9008
:1009F0000895F62E0B8D10E00F5F1F4F0F73112718
:100A0000E02E8C8D8E110BC00FB607FCFACFE88953
:100A1000F989808185FFF5CFCE01A2DFF2CFEB8D82
:100A2000EC0FFD2FF11DE35AFF4FF0829FB7F894B2
:100A30000B8FEA89FB8980818062D0CFCF93DF93CF
:100A4000EC01888D8823B1F0AA89BB89E889F989EE
:100A50008C9185FD03C0808186FD0CC00FB607FC1C
:100A6000F7CF8C9185FFF2CF808185FFEDCFCE014E
:100A700077DFEACFDF91CF91089580E090E0892B76
:100A800021F065DF81110E94000080E090E0892B59
:100A900049F080E090E0892B29F00E94000081114C
:100AA0000E94000080E090E0892B49F080E090E017
:100AB000892B29F00E94000081110E94000080E033
:100AC00090E0892B49F080E090E0892B29F00E948A
:100AD000000081110C94000008958150823108F0CB
:100AE0005AC0E82FF0E08827E758FA4F8F4F0C9450
:100AF000A22D99059D058B0591059505CB05A005B2
:100B0000A605AA05B005B405B805BE05C205CB0506
:100B1000C605CC05D005809180008F77809380003A
:100B20000895809180008F7DF9CF80918000877F2C
:100B3000F5CF84B58F7784BD089584B58F7DFBCFC5
:100B40008091B0008F778093B00008958091B000BD
:100B50008F7DF9CF809190008F77809390000895DA
:100B6000809190008F7DF9CF80919000877FF5CFA5
:100B70008091A0008F778093A00008958091A000BD
:100B80008F7DF9CF8091A000877FF5CF80912001E4
:100B90008F77809320010895809120018F7DF9CF78
:100BA00080912001877FF5CFCF93DF93282F30E00E
:100BB000F901E254F94F8491F901E858F94FD491C1
:100BC000F901EE5CF94FC491CC2399F0811185DFD6
:100BD000EC2FF0E0EE0FFF1FE85EF94FA591B49106
:100BE000EC91ED2381E090E009F480E0DF91CF917A
:100BF000089580E090E0FACF1F93CF93DF93282FE2
:100C000030E0F901E254F94F8491F901E858F94FC5
:100C1000D491F901EE5CF94FC491CC23A1F0162FC9
:100C200081115BDFEC2FF0E0EE0FFF1FE250FA4F77
:100C3000A591B4918FB7F894EC91111108C0D0959B
:100C4000DE23DC938FBFDF91CF911F910895DE2BC0
:100C5000F8CFCF93DF9390E0FC01E858F94F24914F
:100C60008E5C994FFC0184918823C9F090E0880F35
:100C7000991FFC01EC51FA4FA591B491FC01E2508F
:100C8000FA4FC591D49161110DC09FB7F8948C9122
:100C9000209582238C938881282328839FBFDF910E
:100CA000CF910895623051F49FB7F8943C91822F10
:100CB000809583238C93E8812E2BEFCF8FB7F89408
:100CC000EC912E2B2C938FBFEACF90917B00977FD6
:100CD00090937B008653806480937C0080917A009F
:100CE000806480937A0080917A0086FDFCCF8091A9
:100CF00078009091790008953FB7F8948091A30C03
:100D00009091A40CA091A50CB091A60C26B5A89B1F
:100D100005C02F3F19F00196A11DB11D3FBFBA2F8D
:100D2000A92F982F8827BC01CD01620F711D811D4D
:100D3000911D42E0660F771F881F991F4A95D1F7D2
:100D400008958F929F92AF92BF92CF92DF92EF92CF
:100D5000FF924B015C01D0DF6B017C01CDDF6C1990
:100D60007D098E099F09683E734081059105B0F3A6
:100D700021E0821A9108A108B10888EEC80E83E02C
:100D8000D81EE11CF11C81149104A104B10431F7B7
:100D9000FF90EF90DF90CF90BF90AF909F908F909B
:100DA00008952FB7F89460919F0C7091A00C8091DA
:100DB000A10C9091A20C2FBF08950F931F93CF9376
:100DC000DF93EC018E89823009F453C0833009F43B
:100DD000ACC0813009F05CC0EC81FD81E41BF50BF7
:100DE000AF01421B530B77FD3FC08E819F81681777
:100DF0007907D4F557FF04C0240F351F50E040E0B9
:100E00008C819D81FA01E20FF31F8E179F071CF45E
:100E10009C01241B350B1216130634F5FB0177FDDC
:100E20003796A3E0F595E795AA95E1F7F695FE2F9D
:100E3000EE27F795E795E40FF51FE75EFD4F677026
:100E4000772781E090E001C0880F6A95EAF7482F84
:100E50000130110509F472C008F47CC02E0F3F1F49
:100E60000230110509F483C0DF91CF911F910F91DA
:100E70000895AC81BD81CD01861B970BBC016150EB
:100E80007109EE81FF81E41BF50BAF01421B530B8F
:100E900077FDEACF8C819D81681779072CF757FF82
:100EA00004C0240F351F50E040E08E819F81FA017D
:100EB000E20FF31F8E179F071CF49C01241B350BB8
:100EC000121613068CF6922FA42FA695A695A6951A
:100ED00080E8A89FD0011124A60FB71FA75EBD4FC1
:100EE000477009F457C058E0541B452F652F70E038
:100EF000FB01EF5DF94F8081251708F0B0C0621B40
:100F000071092FEF30E002C0359527956A95E2F719
:100F1000822301301105A9F108F464C002301105E3
:100F200009F0A2CF2C9182272EC0AE81BF81CD01C6
:100F3000861B970BBC016150710955CF2E0F3F1FC7
:100F4000E217F30709F490CF8191DF011197842B09
:100F50008C93F6CF80952E0F3F1FE217F30709F40D
:100F600083CF9191DF01119798239C93F6CFE217DD
:100F7000F30709F479CF8191DF01119784278C93CE
:100F8000F6CF2C91822B8C93941708F46DCF941B81
:100F9000A058BF4F983008F447C00230110531F512
:100FA000FD01892F208120952083E058FF4F885034
:100FB0008830C0F728EF290F26952695269530E032
:100FC0002F5F3F4F3695322F222737952795A20F57
:100FD000B31F977009F448CFE92FF0E0E75EF94FAF
:100FE000808132C080952C918223CDCF81E0013069
:100FF000110509F080E08195FD01292F8083E058DB
:10100000FF4F28502830D0F728EF290F2695269536
:10101000269530E02F5F3F4F3695322F22273795A8
:101020002795A20FB31F9770992309F41DCFE92FBD
:10103000F0E0E75EF94F80810130110541F058F092
:101040000230110509F010CF9C91892702C09C91B4
:10105000892B8C9309CF80959C918923FACF0130FD
:10106000110509F48ECF08F4BDCF0230110509F443
:1010700059CF8DCF0F931F93CF93DF93EC018E89C0
:10108000823009F45EC0833009F4B5C0813009F0C4
:1010900067C0AC81BD81CD01841B950BAC01415073
:1010A000510957FD49C08C819D81481759070CF0A3
:1010B00043C077FF04C0260F371F70E060E08E81C9
:1010C0009F81FB01E20FF31F8E179F071CF49C0109
:1010D000261B370B121613067CF5922FA62FA6950A
:1010E000A695A69580E8A89FD0011124A40FB51F4E
:1010F000A75EBD4F677009F48FC048E0461B642FA0
:1011000070E0FB01EF5DF94F8081241708F002C108
:10111000621B71092FEF30E002C0359527956A9563
:10112000E2F782230130110509F46DC008F49CC078
:101130000230110509F4F8C0DF91CF911F910F9192
:101140000895EC81FD81E61BF70BAE81BF81CD01D7
:10115000841B950BAC0141505109BF01621B730BFD
:1011600057FDEACF8E819F81481759072CF777FFEB
:1011700004C0260F371F70E060E08C819D81FB0169
:10118000E20FF31F8E179F071CF49C01261B370BE1
:10119000121613068CF6FA0157FD379693E0F59573
:1011A000E7959A95E1F7F695FE2FEE27F795E795E7
:1011B000E60FF71FE75EFD4F4770552781E090E08F
:1011C00001C0880F4A95EAF7482F0130110509F44C
:1011D00088C008F492C02E0F3F1F0230110509F09D
:1011E000ABCFE217F30709F4A7CF8191DF01119785
:1011F00084278C93F6CFEE81FF81E61BF70BBF01AE
:10120000621B730B4ECF2C91822B8C93941708F496
:1012100093CF941BA058BF4F983008F447C00230BA
:10122000110531F5FD01892F208120952083E0589B
:10123000FF4F88508830C0F728EF290F2695269554
:10124000269530E02F5F3F4F3695322F2227379576
:101250002795A20FB31F977009F46ECFE92FF0E026
:10126000E75EF94F808132C080952C918223CDCFEB
:1012700081E00130110509F080E08195FD01292F01
:101280008083E058FF4F28502830D0F728EF290FEF
:1012900026952695269530E02F5F3F4F3695322FC5
:1012A000222737952795A20FB31F9770992309F42A
:1012B00043CFE92FF0E0E75EF94F8081013011055F
:1012C00041F058F00230110509F036CF9C91892782
:1012D00002C09C91892B8C932FCF80959C91892360
:1012E000FACF2E0F3F1FE217F30709F425CF8191A4
:1012F000DF011197842B8C93F6CF80952E0F3F1F23
:101300002E173F0709F418CF9191DF011197982309
:101310009C93F6CF0130110509F475CF08F4A4CFE2
:101320000230110509F075CF2C9182276ECFDC01B8
:1013300077FD67C018968D919C911997681779076A
:101340000CF05FC057FD5DC01A968D919C911B9764
:10135000481759070CF055C056968C915697823015
:10136000B9F0833041F1813049F414968D919C910C
:10137000841B950BAB01BC01615071092130310513
:1013800021F108F43FC02230310509F458C0089516
:101390001496ED91FC911597E61BF70BBF01615078
:1013A000710916968D919C91FC01E41BF50BAF0120
:1013B00041505109E3CF16968D919C91861B970B56
:1013C000BA01AC0141505109D9CFFA0157FD379606
:1013D000A3E0F595E795AA95E1F7F695FE2FEE27A0
:1013E000F795E795E60FF71FE75EFD4F4770552726
:1013F00021E030E001C0220F4A95EAF78081822B7C
:1014000080830895FA0157FD379623E0F595E79517
:101410002A95E1F7F695FE2FEE27F795E795E60F6B
:10142000F71FE75EFD4F4770552781E090E001C050
:10143000880F4A95EAF7809590818923E1CFFA01D8
:1014400057FD379683E0F595E7958A95E1F7F69590
:10145000FE2FEE27F795E795E60FF71FE75EFD4FA6
:101460004770552721E030E001C0220F4A95EAF786
:1014700080818227C5CF0895FC016370668B8481CB
:10148000958126813781613039F0633029F0918769
:1014900080873387228708953187208793878287C3
:1014A00008952F923F924F925F926F927F928F9208
:1014B0009F92AF92BF92CF92DF92EF92FF920F93E3
:1014C0001F93CF93DF93CDB7DEB76A970FB6F8942B
:1014D000DEBF0FBECDBF9A8F898F7A8369834A01A1
:1014E000D22E18870F833701BC2CDC0159962D9121
:1014F0003C915A972115310509F015C118968D9127
:101500009C911997681779070CF0D7C11A968D919D
:101510009C91481759070CF0D0C14C2C512CB6E0C7
:10152000CB9E600D711D11247C876B8716161706E4
:101530000CF0C3C1EA2DF0E0FA87E98793E0EE0FE3
:10154000FF1F9A95E1F7F88BEF87CF01840F951F66
:10155000181619060CF0B1C1A98DBA8D58968C9148
:10156000811104C0BFEABD1508F4D394A98DBA8DCA
:10157000ED91FC9111970284F385E02DCD01199531
:10158000B5E0DB9EC0011124E981FA81FC83EB8385
:10159000312C212C9C012C513F4F388F2F8B4A2D01
:1015A00050E05E8B4D8BEF89F88DE20DF31D449179
:1015B0009E828D82D12CC12C69817A81620D731D2E
:1015C0007A8B698B842F90E09C8B8B8BE98DFA8DC5
:1015D000A081B18140FF82C0F1E0BF126FC0AF12A5
:1015E0006DC01C96ED91FC912F813885A4014C0DA6
:1015F0005D1D69897A89898D9A8D1995EB89FC8998
:10160000F595E7954E2F5FEFC51AD50A6D817E815E
:101610008D899E89680F791F7E836D8398E0C91636
:10162000D10481F6AFEF2A1A3A0AEB81FC81E40D6E
:10163000F51DFC83EB83F5E02F16310409F0B3CFE1
:101640002F81388526153705B9F0A98DBA8DED9112
:10165000FC91B1E0BB1257C0AB1255C069817A81D1
:101660006B5F7F4F0088F189E02D830128E030E037
:10167000A401898D9A8D1995A98DBA8DED91FC9152
:1016800011970688F789E02DCD016A960FB6F89478
:10169000DEBF0FBECDBFDF91CF911F910F91FF90A5
:1016A000EF90DF90CF90BF90AF909F908F907F9002
:1016B0006F905F904F903F902F9019941E96ED91F0
:1016C000FC91EF80F88409851A8592014D815E8135
:1016D0006B817C81898D9A8D199590CF2F8138856A
:1016E0002615370509F48ACF31E0B31207C0A312DB
:1016F00005C01C96ED91FC91930178CF1E96ED915B
:10170000FC917301E0CF6B857C85641975090684B3
:10171000F785E02D73010F8518899201A401898D49
:101720009A8D1995A9CFF9013496949132974591E4
:101730005491D91AB7E0DB9E400D511D1124F901D7
:10174000259134913C8B2B8BFA0125903490FA0132
:101750003296749031963491398B329664903196EA
:10176000449041E04C1518F04A1508F07FC0662DF2
:10177000062C000C770B7C836B83842D042C000CCF
:10178000990B9E838D83A98DBA8DED91FC91119754
:101790000284F385E02DCD011995512CD12CC12C5B
:1017A000EA2DF0E0FA87E9872B2D30E03C872B8784
:1017B000A401440D511D47FC5A95588F4F8B6981E8
:1017C0007A81660D711D67FC7A957E876D877989B0
:1017D000C71608F051CF2C2D30E04D815E81420FAD
:1017E000531FA985BA854A9FC0014B9F900D5A9FF0
:1017F000900D1124FC01E80DF91DF88BEF87852D64
:10180000612C4F89588D420F531F5E8B4D8B67148F
:1018100008F050C044244394480E877041F4C1013D
:101820000196EB89FC89E20DF31DD4901C01D7FED3
:1018300019C0A98DBA8DED91FC91662D70E0B1E0D3
:10184000BB1219C0AB1217C02D853E85620F731FE6
:101850000484F585E02D2F8138854D895E89898D39
:101860009A8D1995DD0C6394842DD1CF1E821D8233
:101870001C821B8288CF4B815C81640F751FAB85F6
:10188000BC856A9FC0016B9F900D7A9F900D1124BB
:1018900069817A81680F791F0684F785E02DEF80D2
:1018A000F88409851A859D014F855889898D9A8DFF
:1018B0001995D8CF570CC3948ACF6A960FB6F8946F
:1018C000DEBF0FBECDBFDF91CF911F910F91FF9073
:1018D000EF90DF90CF90BF90AF909F908F907F90D0
:1018E0006F905F904F903F902F9008958F929F92AE
:1018F000AF92CF92EF92FF920F931F93CF93DF930C
:10190000EC01262F898D9A8D009709F050C06A301E
:10191000D1F41D861C868D8948E0849F9001112496
:101920008E859F85820F931F9F878E8781E090E031
:10193000DF91CF911F910F91FF90EF90CF90AF90DB
:101940009F908F9008956D3089F3CC88AD888F89F2
:101950008823C1F08C859D8536E0C39E800D911D46
:101960001124488559854817590764F44E855F85C9
:101970001D861C8638E0A39EC0011124840F951F8C
:101980009F878E87EA88FB88088919894E855F853D
:101990006C857D85CE0185DD2C898C859D8546E015
:1019A000249F800D911D11249D878C87BFCF6A30A5
:1019B00069F41D861C86FC013696E4912D898E857E
:1019C0009F85E29F800D911D1124AECF6D3009F4EB
:1019D000ADCFFC0134963491631708F4A7CF31964C
:1019E000E491E61708F4A2CFFC013296859094901A
:1019F000462F431B342F47E0349F800C911C112449
:101A0000F401329634913196E4913323A1F1EE231F
:101A100091F1CC88F4013596E491AD884F89442347
:101A200001F10E2E000CFF0BE30FF11DCE9EA00165
:101A3000CF9E500D11246C857D85460F571F6885FC
:101A40007985641775076CF44E855F851D861C8645
:101A5000FC013696E491AE9E400D511D11245F8726
:101A60004E87EA88FB88088919894E855F856C85D1
:101A70007D85CE0116DDF4013496E4912C898C85A8
:101A80009D85E29F800D911D11248ECF6F927F92D4
:101A90008F929F92AF92BF92CF92DF92EF92FF927E
:101AA0000F931F93CF93DF93EC016B015A01390120
:101AB0004801E881F9810284F385E02D1995E881D8
:101AC000F9810288F389E02D87019301A501B60110
:101AD000CE011995A501480D591D41505109E881C4
:101AE000F9810288F389E02D9301B601CE011995A1
:101AF000E881F9810088F189E02D9401A501B60102
:101B0000CE011995C60CD71CB60161507109E88148
:101B1000F9810088F189E02D9401A501CE01199584
:101B2000E881F9810688F789E02DCE01DF91CF9118
:101B30001F910F91FF90EF90DF90CF90BF90AF90EB
:101B40009F908F907F906F9019946F927F928F9259
:101B50009F92AF92BF92CF92DF92EF92FF920F933C
:101B60001F93CF93DF935C01EB016A0149013801B8
:101B70008701DC01ED91FC916217730719F564167A
:101B800075062CF0962D872D3A01C92ED82E960178
:101B9000261937092F5F3F4F048CF58DE02DA301E7
:101BA000BE01C5011995DF91CF911F910F91FF9053
:101BB000EF90DF90CF90BF90AF909F908F907F90ED
:101BC0006F9008954615570591F42617370724F0AE
:101BD000892D4B01C22FD82F9E01281939092F5F5B
:101BE0003F4F068CF78DE02DA601B401DACF0284B9
:101BF000F385E02D1995D501ED91FC910488F589C7
:101C0000E02D83019401A601BE01C5011995D501FE
:101C1000ED91FC910688F789E02DC501DF91CF9108
:101C20001F910F91FF90EF90DF90CF90BF90AF90FA
:101C30009F908F907F906F901994EF92FF920F93E7
:101C40001F93DC011A960D911C911B9718962D91EC
:101C50003C911997ED91FC9100A0F1A1E02D7B0141
:101C600050E040E070E060E019951F910F91FF9007
:101C7000EF9008954F925F926F927F928F929F9212
:101C8000AF92BF92CF92DF92EF92FF920F931F938A
:101C9000CF93DF936C012B015A0139014801DC011C
:101CA000ED91FC910284F385E02D1995E201640C1D
:101CB000751CD601ED91FC91C615D7055CF4008822
:101CC000F189E02D87019401A501BE01C601199596
:101CD0002196EFCF0688F789E02DC601DF91CF91DD
:101CE0001F910F91FF90EF90DF90CF90BF90AF903A
:101CF0009F908F907F906F905F904F9019948F92EC
:101D00009F92AF92BF92CF92DF92EF92FF920F938A
:101D10001F93CF93DF93EC015B014A016901E881D6
:101D2000F9810284F385E02D199595012C0D3D1D57
:101D300021503109E881F9810488F589E02D780185
:101D40008401A401B501CE011995E881F9810688C5
:101D5000F789E02DCE01DF91CF911F910F91FF9078
:101D6000EF90DF90CF90BF90AF909F908F9019949D
:101D70008F929F92AF92BF92CF92DF92EF92FF929B
:101D80000F931F93CF93DF93EC015B014A0169012D
:101D90007801E881F9810284F385E02D1995C80C5A
:101DA000D91C860101501109E881F9810488F5895F
:101DB000E02D9501A401B501CE011995E881F981C5
:101DC0000688F789E02DCE01DF91CF911F910F9109
:101DD000FF90EF90DF90CF90BF90AF909F908F904B
:101DE00019940895EF92FF920F931F93DC01ED91E8
:101DF000FC9100A0F1A1E02D19951F910F91FF908A
:101E0000EF9008950F931F93DC01ED91FC91068CE8
:101E1000F78DE02D19951F910F9108950F931F9342
:101E2000DC01ED91FC91048CF58DE02D19951F914D
:101E30000F910895DC01ED91FC910084F185E02D76
:101E400019942F923F924F925F926F927F928F924E
:101E50009F92AF92BF92CF92DF92EF92FF920F9339
:101E60001F93CF93DF9300D000D0CDB7DEB73C01F6
:101E70006A013E832D83FC82EB825801A41AB50AC5
:101E8000B7FE03C0B194A194B1088D809E80861ADC
:101E9000970A97FE03C09194819491088A149B0439
:101EA0005CF0902F812F0D811E819D838E839C2D50
:101EB0008D2D6B01692F782F0C151D055CF09D8110
:101EC0008E817E836D83692F782F902F812F8601DD
:101ED000C92ED82E1601201A310A2B012D813E81E0
:101EE000421A530A57FE03C051944194510871019C
:101EF00037FE03C03FEFE31AF30AF594E7948D81B0
:101F00009E81861797075CF5A1E0B0E0BA83A983AC
:101F1000C016D1064CF1D301ED91FC910484F585F6
:101F2000E02D2B813C81A8016D817E818A149B0468
:101F30001CF04D815E81B801C3011995E418F508C4
:101F4000F7FE0AC02D813E8189819A81280F391FB1
:101F50003E832D83E20CF31C0F5F1F4FD9CF2FEF71
:101F60003FEF3A832983D4CF26960FB6F894DEBF8D
:101F70000FBECDBFDF91CF911F910F91FF90EF90DA
:101F8000DF90CF90BF90AF909F908F907F906F9099
:101F90005F904F903F902F900895089585ED809326
:101FA000BC008091BC0084FDFCCF1092060D08950A
:101FB0002091790C260F3327331F21323105ECF4A1
:101FC0002091060DFC0190E080E0243069F082E071
:101FD0000895A091790C2191AC01495A534FA40F57
:101FE000B52FB11D2C930196861798F38091790C2B
:101FF000680F6093790C80E0089581E0089508955A
:102000000895E091560C8091550CE81730F4F0E0FB
:10201000EB5CF34F808190E008958FEF9FEF089580
:102020009091560C8091550C2FEF3FEF981748F484
:10203000E92FF0E0EB5CF34F208130E09F5F90935D
:10204000560CC90108958091550C9091560C891B2E
:10205000990B0895CF92DF92EF92FF920F931F9307
:10206000CF93DF937C01CB018A012091070D2223BE
:1020700089F0EB016B01C40ED51ECC15DD0561F0B6
:102080006991D701ED91FC910190F081E02DC7019C
:102090001995F3CF642F8CDFC801DF91CF911F9189
:1020A0000F91FF90EF90DF90CF900895CF93DF9343
:1020B0001F92CDB7DEB769832091070D2223F9F077
:1020C00020912A0D203258F021E030E0FC013383CA
:1020D000228390E080E00F90DF91CF91089580916E
:1020E000080DE82FF0E0E75FF24F998190838F5F52
:1020F0008093080D80932A0D81E090E0ECCF61E0A1
:10210000CE01019655DFF8CFCF93C82F8091F10D06
:102110008F3FB1F1E091FB0DF091FC0D808190912A
:10212000010E892B8083E091FD0DF091FE0D9081D1
:102130008091020E809589238083E091FB0DF091C0
:10214000FC0D90818091010E809589238083809180
:10215000F60D882389F0CEBD00000DB407FEFDCF3B
:102160008EB5E091FB0DF091FC0D80819091010EF8
:10217000892B8083CF9108958C2F0E941204F1CF78
:102180008091EF0D91E09093070D8093290D1092AF
:10219000080D10922A0D60E088EC9DE087DF6C2F1F
:1021A00088EC9DE083DFCF910C94B503DF92EF9232
:1021B000FF920F931F93CF93DF9381E2A5DF80E01F
:1021C000A3DF8FE7A1DF82E29FDF80E09DDF87E072
:1021D0009BDF8091F10D8F3F09F442C0E091FB0D30
:1021E000F091FC0D80819091010E892B8083E0910C
:1021F000FD0DF091FE0D80819091020E892B808360
:10220000E091FB0DF091FC0D90818091010E809585
:1022100089238083C9E1D2E009E116E08991909198
:10222000F60D9923D1F08EBD00000DB407FEFDCF51
:102230008EB50C171D0791F7E091FB0DF091FC0D89
:1022400080819091010E892B8083DF91CF911F9126
:102250000F91FF90EF90DF9008950E941204E9CF54
:102260000091B8008CE08093B800C9E1D2E0DD2491
:10227000D3948091EF0DD092070D8093290D109289
:10228000080D10922A0D60E488EC9DE00FDF7E01BE
:1022900010E1F70161917F0188EC9DE007DF1150AB
:1022A000C1F70E94B5036096F6E0C931DF0709F770
:1022B0000093B800CACF90E080E008958F929F927B
:1022C000AF92BF92CF92DF92EF92FF920E94D1061F
:1022D0006B017C0120E83EEE46E350E00E945E2D5B
:1022E00049015A018092AD0C9092AE0CA092AF0CB5
:1022F000B092B00CC701B60120E63AEE40E050E0E3
:102300000E945E2D69017A01ACE3B0E0A501940161
:102310000E94542DC61AD70AE80AF90AC092A90CDD
:10232000D092AA0CE092AB0CF092AC0CFF90EF9024
:10233000DF90CF90BF90AF909F908F900895FC0159
:1023400001900020E9F73197AF01481B590BBC0100
:1023500084ED9DE00C943D048F929F92AF92BF92CA
:102360000F931F93CF93DF93CDB7DEB7A1970FB62F
:10237000F894DEBF0FBECDBF19A2423008F44AE088
:102380008E010F5D1F4F842E912CB12CA12CA50125
:1023900094010E945E2DE62FB901CA01EA30ECF4E7
:1023A000E05DD801EE938D01232B242B252B79F7AB
:1023B00090E080E0109711F0CD01C1DFA1960FB63B
:1023C000F894DEBF0FBECDBFDF91CF911F910F916B
:1023D000BF90AF909F908F900895E95CE2CFAFCF10
:1023E000CF93DF93ACDFEC0189E796E0A8DF8C0F99
:1023F0009D1FDF91CF910895E9E1F2E080E094E044
:10240000DF019C011D9221503040E1F70895CF92E9
:10241000DF92EF92FF92CF93DF936C01990FEE085A
:10242000FF08F7FE17C06DE284ED9DE05FDAEC0176
:1024300066277727CB016C197D098E099F094AE031
:102440008BDF8C0F9D1FDF91CF91FF90EF90DF907E
:10245000CF9008954AE0C701B601DF91CF91FF9078
:10246000EF90DF90CF9078CFCF93DF93D0DFEC0168
:1024700089E796E064DF8C0F9D1FDF91CF9108956F
:102480001F93CF93DF93B8DFC4EDDDE081E090E0F0
:102490009B8B8A8B998B888B8AE090E09D878C87B9
:1024A00082E190E09F878E8782E08C8B8D8B80917C
:1024B000C90C9091CA0CABDF11E01C8B1D8B8CE713
:1024C00096E08DDF1D861C861F861E8685E896E0B9
:1024D00086DF809115029091160299DF81E996E0DE
:1024E0007FDF85E996E07BDF8091D90C9091DA0C53
:1024F0008EDF81E996E073DF1D861C8686E290E020
:102500009F878E878091D30C9091D40CADDF1C8B6C
:102510001D8B81EA96E063DFDF91CF911F9146CE5C
:102520001F93CF93DF9368DFC4EDDDE081E090E09F
:102530009B8B8A8B998B888B8AE090E09D878C8718
:1025400082E190E09F878E8782E08C8B8D8B8091DB
:10255000C90C9091CA0C5BDF11E01C8B1D8B8CE7C2
:1025600096E03DDF1D861C861F861E8685E896E068
:1025700036DF809113029091140249DF81E996E0E1
:102580002FDF85E996E02BDF8091D50C9091D60C5A
:102590003EDF81E996E023DF1D861C8686E290E01F
:1025A0009F878E878091D30C9091D40C5DDF1C8B1C
:1025B0001D8B8DEA96E013DFDF91CF911F91F6CD51
:1025C000CF93DF934AE0C8DEEC0189E796E0B7DEFF
:1025D0008C0F9D1FDF91CF910895CF93DF93682FCC
:1025E00070E090E080E04AE0B7DEEC0189E796E039
:1025F000A6DE8C0F9D1FDF91CF910895FDDE81E057
:1026000090E09093E70D8093E60D9093E50D809315
:10261000E40D8AE090E09093E10D8093E00D10923C
:10262000E30D1092E20D82E08093E80D8093E90DB6
:1026300084EB96E0D4DE81E08093E80D8093E90D91
:102640001092E10D1092E00D84E190E09093E30D83
:102650008093E20D8DEB96E0C2DE8091DB0C9091D1
:10266000DC0C02DF89EC96E0BADE8091DD0C909103
:10267000DE0CFADE1092E10D1092E00D88E290E09F
:102680009093E30D8093E20D85ED96E0A8DE6091D6
:10269000AD0C7091AE0C8091AF0C9091B00C4AE0F3
:1026A0005BDE86E198E09BDE6091A90C7091AA0C3C
:1026B0008091AB0C9091AC0C83DF80EE96E08FDEC6
:1026C0006091CF0C7091D00C8091D10C9091D20C74
:1026D0004AE042DE6BDD8DE00E94D405892B11F4C7
:1026E0001092DF0C08950E94BE2D1F93CF93DF93AD
:1026F000EC01162F0E943E2D181739F0612FCE01E4
:10270000DF91CF911F910C94462DDF91CF911F91B6
:102710000895CF93DF9386E30E946506EC019093C2
:10272000BB0C8093BA0C87E30E9465069093CA0C99
:102730008093C90C88E30E9465069093D60C809321
:10274000D50C89E30E9465069093DA0C8093D90C2E
:102750008091B40C9091B50C8C179D076CF4D093BC
:10276000B50CC093B40C6D2F82E190E0BEDF609198
:10277000BA0C83E190E0B9DF8091BA0C9091BB0C68
:102780002091060230910702821793076CF4909310
:10279000070280930602692F84E190E0A6DF609132
:1027A000BA0C85E190E0A1DF8091C90C9091CA0C30
:1027B0002091B20C3091B30C281739076CF4909328
:1027C000B30C8093B20C692F86E190E08EDF6091AC
:1027D000B20C87E190E089DF8091C90C9091CA0C1E
:1027E0002091040230910502821793076CF49093B4
:1027F000050280930402692F88E190E076DF609102
:10280000040289E190E071DF8091D50C9091D60CA3
:102810002091B80C3091B90C281739076CF49093BB
:10282000B90C8093B80C692F8AE090E05EDF60916C
:10283000B80C8BE090E059DF8091D50C9091D60CCC
:1028400020910A0230910B02821793076CF4909347
:102850000B0280930A02692F8CE090E046DF6091C2
:102860000A028DE090E041DF8091D90C9091DA0C62
:102870002091B60C3091B70C281739076CF490935F
:10288000B70C8093B60C692F8EE090E02EDF60913C
:10289000B60C8FE090E029DF8091D90C9091DA0C92
:1028A0002091080230910902821793077CF49093DB
:1028B000090280930802692F80E190E016DF6091A1
:1028C000080281E190E0DF91CF910FCFDF91CF91AE
:1028D00008950F931F93CF9361E085E00E94FC055C
:1028E00060E082E00E94FC05C1E088E00E94D4051F
:1028F0008C019093DE0C8093DD0C89E00E94D4055E
:102900009093DC0C8093DB0C019719F001301105DA
:1029100011F4C093DF0CFDDE2091C90C3091CA0C7C
:1029200080910E0290910F02821793075CF4C0937E
:10293000C80C8091C60C9091C70C01969093C70C5F
:102940008093C60C8091D30C9091D40C01969093F7
:10295000D40C8093D30CE4DD64EF71E080E090E070
:102960000E94A1068091130290911402209100020E
:1029700030910102821B930B4091D50C5091D60CE3
:102980002091D30C3091D40C84179507A4F4203DEA
:1029900087E0380784F48091DF0C81110CC04091EE
:1029A0000E0250910F028091C90C9091CA0C8417AD
:1029B00095070CF49ACF3093A80C2093A70CCF91D5
:1029C0001F910F9108950C943E2DCF93E0913B0DF4
:1029D000F0913C0D92E09083E091370DF091380D2D
:1029E0001082E091390DF0913A0D8FEC80831092B6
:1029F000430DE0913F0DF091400D86E08083E09122
:102A00003D0DF0913E0D808180618083E0913D0D10
:102A1000F0913E0D808188608083E0913D0DF091C2
:102A20003E0D808180688083E0913D0DF0913E0DE8
:102A300080818F7D80839093F00D8CE38093EF0DE8
:102A40008091F10D8F3F09F43FC261E08091F30D59
:102A50000E94290661E08091F50D0E94290680916F
:102A6000F50D082E000C990BFC01EE5CF94FE4917A
:102A7000F0E0EE0FFF1FE250FA4F259134913093B2
:102A8000FC0D2093FB0DFC01E858F94FE491E09315
:102A9000010E8091F30D082E000C990BFC01EE5CE9
:102AA000F94FE491F0E0EE0FFF1FE250FA4F25914D
:102AB00034913093FE0D2093FD0DFC01E858F94F41
:102AC000E491E093020E8091F60D81113EC061E029
:102AD0008091F10D0E94290661E08091F20D0E9423
:102AE00029068091F20D082E000C990BFC01EE5C7A
:102AF000F94FE491F0E0EE0FFF1FE250FA4F2591FD
:102B000034913093FA0D2093F90DFC01E858F94FF8
:102B1000E491E093000E8091F10D082E000C990BCA
:102B2000FC01EE5CF94FE491F0E0EE0FFF1FE25084
:102B3000FA4F259134913093F80D2093F70DFC0155
:102B4000E858F94FE491E093FF0D8091F60D88234A
:102B500009F437C0CFB7F8948091340C811127C0A5
:102B6000E7E6F6E08491EDEAF6E09491E82FF0E0F4
:102B7000EE0FFF1FEC51FA4FA591B491EC91E923B0
:102B800021F461E085E30E94FC0561E085E30E9499
:102B900029068CB580618CBD8CB580648CBD61E0EC
:102BA00084E30E94290661E083E30E942906809164
:102BB000340C8F5F8093340CCFBF80E58CBD81E0F7
:102BC0008DBD8091F40D87FD1EC061E00E94290635
:102BD00061E08091F40D0E94FC0561E070E080E00E
:102BE00090E00E94A10660E08091F40D0E94FC0537
:102BF0006AE070E080E090E00E94A10661E08091D0
:102C0000F40D0E94FC058EEA7FDA85ED7DDA80E81E
:102C10007BDA88EA79DA8FE377DA83ED75DA80E0B8
:102C200073DA80E471DA8DE86FDA84E16DDA80E2DC
:102C30006BDA80E069DA81EA67DA88EC65DA8AEDD6
:102C400063DA82E161DA81E85FDA8FEC5DDA89EDDF
:102C50005BDA81EF59DA8BED57DA80E455DA84EAF2
:102C600053DA86EA51DA8EE24FDA8FEA4DDA61E022
:102C700082E00E94290661E083E00E94290661E06B
:102C800084E00E94290661E085E00E94290661E057
:102C900086E00E94290660E088E00E94290660E044
:102CA00089E00E94290662E08CE00E94290662E029
:102CB0008DE00E94290662E08AE00E94290662E017
:102CC0008BE00E94290661E082E00E94FC0561E041
:102CD00083E00E94FC0561E084E00E94FC0561E065
:102CE00085E00E94FC0561E086E00E94FC0584DB33
:102CF00082E08093E80D8093E90D81E090E090936D
:102D0000E70D8093E60D9093E50D8093E40D10920E
:102D1000E10D1092E00D1092E30D1092E20D8CEE99
:102D200096E05DDB81E08093E80D8093E90D1092E1
:102D3000E10D1092E00D89E190E09093E30D809316
:102D4000E20D85EF96E04CDB1092E10D1092E00D64
:102D500088E290E09093E30D8093E20D88E097E0A5
:102D60003EDB1092E10D1092E00D84E390E0909331
:102D7000E30D8093E20D8EE197E031DB17DA60EA34
:102D80007FE080E090E00E94A10690E080E01BDE02
:102D9000C82F81E090E017DE9C2F9093140280935F
:102DA000130283E090E00FDE90E0909301028093A5
:102DB000000285E090E007DEC82F86E090E003DEA9
:102DC0009C2F909316028093150288E090E0FBDD23
:102DD00090E090930D0280930C028AE090E0F3DD86
:102DE000C82F8BE090E0EFDD9C2F9093B90C80937F
:102DF000B80C8CE090E0E7DDC82F8DE090E0E3DDDB
:102E00009C2F90930B0280930A028EE090E0DBDD12
:102E1000C82F8FE090E0D7DD9C2F9093B70C809364
:102E2000B60C80E190E0CFDDC82F81E190E0CBDDF2
:102E30009C2F909309028093080282E190E0C3DD09
:102E4000C82F83E190E0BFDD9C2F9093B50C809359
:102E5000B40C84E190E0B7DDC82F85E190E0B3DDEC
:102E60009C2F909307028093060286E190E0ABDDF1
:102E7000C82F87E190E0A7DD9C2F9093B30C80933F
:102E8000B20C88E190E09FDDC82F89E190E09BDDE6
:102E90009C2F90930502809304028AE190E093DDD9
:102EA000C82F8BE190E08FDD9C2F90930F028093D1
:102EB0000E028CE190E087DD91E0811101C090E08D
:102EC00090931202CF9108951092560C1092550CC7
:102ED0001092080D10922A0D1092060D81E0809339
:102EE000050D1092E00C61E084E10E94FC0561E0B8
:102EF00085E10E94FC058091B9008E7F8093B90026
:102F00008091B9008D7F8093B90088E48093B800E8
:102F100085E48093BC008FEF9FE09093780C8093C2
:102F2000770C80E090E190937C0C80937B0C49CEF1
:102F30001F920F920FB60F9211240BB60F922F9380
:102F40003F934F935F936F937F938F939F93AF9331
:102F5000BF93EF93FF938BE29DE00E94B004FF913B
:102F6000EF91BF91AF919F918F917F916F915F9101
:102F70004F913F912F910F900BBE0F900FBE0F906E
:102F80001F9018951F920F920FB60F9211240BB637
:102F90000F922F938F939F93EF93FF93E0913B0DAD
:102FA000F0913C0D8081E091410DF091420D82FD48
:102FB0001DC090818091440D8F5F8F732091450DCE
:102FC000821741F0E091440DF0E0E55DF24F958FFE
:102FD0008093440DFF91EF919F918F912F910F90CE
:102FE0000BBE0F900FBE0F901F9018958081F2CFEF
:102FF0001F920F920FB60F9211242F933F938F932E
:103000009F93AF93BF9380919F0C9091A00CA09140
:10301000A10CB091A20C30919E0C23E0230F2D3710
:1030200058F50196A11DB11D20939E0C80939F0C15
:103030009093A00CA093A10CB093A20C8091A30C30
:103040009091A40CA091A50CB091A60C0196A11D85
:10305000B11D8093A30C9093A40CA093A50CB093E6
:10306000A60CBF91AF919F918F913F912F910F909F
:103070000FBE0F901F90189526E8230F0296A11DF2
:10308000B11DD2CF1F920F920FB60F9211240BB623
:103090000F922F933F934F935F936F937F938F93F1
:1030A0009F93AF93BF93EF93FF938091B900887F75
:1030B000803609F44DC008F040C0883209F4A9C038
:1030C00028F5803109F49DC0C8F4882309F4FBC0B9
:1030D000883009F496C0FF91EF91BF91AF919F9115
:1030E0008F917F916F915F914F913F912F910F90B1
:1030F0000BBE0F900FBE0F901F901895883109F4EA
:1031000088C0803241F78093040D14C0803409F4E4
:103110009DC040F48033B9F38833E9F68093040D01
:1031200085ECB0C0803509F485C0883509F496C0B7
:10313000883489F60E94CE0FCECF883909F48CC02E
:1031400038F5883729F050F4883611F0803719F6B1
:1031500083E08093060D10929D0C57C0883809F4C7
:103160007BC0803919F0803809F0B5CF80919D0C73
:10317000803208F071C0E0919D0C81E08E0F809349
:103180009D0C8091BB00F0E0E358F34F80833DC07D
:10319000803B39F0E0F4803A09F479C0883A09F0CC
:1031A0009ACF84E08093060D10927A0C1092790CDD
:1031B000E091770CF091780C19958091790C811140
:1031C0000FC081E08093790C1092570C09C0803CAD
:1031D00009F4A6CF883C09F4A3CF883B09F07BCF44
:1031E000E0917A0C81E08E0F80937A0CF0E0E95A3E
:1031F000F34F80818093BB0090917A0C8091790C81
:1032000029C08091E10C8093BB0085EC8093BC00C9
:1032100062CF9091030D8091020D981758F5E091BF
:10322000030D81E08E0F8093030DF0E0EE51F34F1C
:103230008081E9CFE091030D81E08E0F8093030D33
:103240008091BB00F0E0EE51F34F80839091030D2D
:103250008091020D9817C8F285E8D8CFE091030D50
:1032600081E08E0F8093030D8091BB00F0E0EE5162
:10327000F34F80838091050D81115CCF81E08093B5
:10328000E00C84EA8093BC001092060D24CF85ECFC
:103290008093BC001092060D80919D0C803230F41A
:1032A000E0919D0CF0E0E358F34F108260919D0C8B
:1032B00070E0E0917B0CF0917C0C8DE79CE019951F
:1032C00010929D0C08CF1092040D34CFEBE2FDE07C
:1032D0001382128288EE93E0A0E0B0E084839583AD
:1032E000A683B7832DE236E03183208325EC30E0DE
:1032F0003587248724EC30E03787268720EC30E0C0
:10330000318B208B21EC30E0338B228B22EC30E0B0
:10331000358B248B26EC30E0378B268B118E128E6A
:10332000138E148EE8ECFDE0138212828483958361
:10333000A683B7838FE396E091838083E4EDFDE07D
:103340001382128220E830E03583248380E490E009
:10335000978386833187208793878287168A15868D
:1033600014861786168681E0858B848B2FEF3FEFBE
:10337000338B228B318B208B878B108E128E118E8C
:1033800081E596E0918380838FEF858F81A3878F7E
:10339000868F84E080A30895CF93DF9300D000D080
:1033A0001F921F92CDB7DEB7789484B5826084BD3A
:1033B00084B5816084BD85B5826085BD85B5816039
:1033C00085BD80916E00816080936E0010928100B7
:1033D0008091810082608093810080918100816072
:1033E0008093810080918000816080938000809133
:1033F000B10084608093B1008091B00081608093BF
:10340000B000809191008260809391008091910042
:103410008160809391008091900081608093900002
:103420008091A10082608093A1008091A1008160C1
:103430008093A1008091A00081608093A000809182
:10344000210182608093210180912101816080931C
:1034500021018091200181608093200180917A0078
:10346000846080937A0080917A00826080937A00F1
:1034700080917A00816080937A0080917A008068E0
:1034800080937A001092C100A0DA6CEB72E080E0C9
:1034900090E00E94A1063DD98091DF0C882321F0A5
:1034A000ADD80E943D05F1CF88E00E94D4059887F1
:1034B0008F839093DE0C8093DD0C89E00E94D4050D
:1034C0008C019093DC0C8093DB0C0E945E11013028
:1034D000110521F08F819885019719F481E080937F
:1034E000DF0C8091DF0C8111DBCF8091170290916E
:1034F0001802853F91400CF478C12091D90C30918D
:10350000DA0C8091150290911602821793070CF045
:103510000BC58091D70C9091D80C01969093D80C44
:103520008093D70C10921802109217021092D40CAC
:103530001092D30C8091CF0C9091D00CA091D10C13
:10354000B091D20C0196A11DB11D8093CF0C909328
:10355000D00CA093D10CB093D20C8091CB0C909155
:10356000CC0CA091CD0CB091CE0C0196A11DB11D3B
:103570008093CB0C9093CC0CA093CD0CB093CE0C3D
:103580000E94401261E082E00E94FC0561E083E05D
:103590000E94FC0561E084E00E94FC0561E085E09A
:1035A0000E94FC0561E086E00E94FC0560E085E089
:1035B0000E94FC0583E390E098878F83AAD80E943D
:1035C000401264E670E080E090E00E94A1068F81E6
:1035D0009885019798878F83892B81F760E084E035
:1035E0000E94FC0585E690E098878F8392D80E9420
:1035F000401264E670E080E090E00E94A1068F81B6
:103600009885019798878F83892B81F760E083E005
:103610000E94FC0583E390E098878F837AD80E940C
:10362000401264E670E080E090E00E94A1068F8185
:103630009885019798878F83892B81F760E082E0D6
:103640000E94FC0511E088E00E94D40598878F83D2
:103650009093DE0C8093DD0C89E00E94D40590935A
:10366000DC0C8093DB0C019721F08F81988501970A
:1036700011F41093DF0C8091D30C9091D40C01962F
:103680009093D40C8093D30C44D82091C90C3091E2
:10369000CA0C80910E0290910F02821793075CF47E
:1036A0001093C80C8091C60C9091C70C0196909312
:1036B000C70C8093C60C0E94401264EF71E080E05A
:1036C00090E00E94A106809115029091160220912F
:1036D0000C0230910D02821B930B4091D90C50913A
:1036E000DA0C2091D30C3091D40C84179507A4F4F4
:1036F000203D97E0390784F48091DF0C81110CC0E4
:1037000040910E0250910F028091C90C9091CA0C09
:10371000841795070CF497CF3093C50C2093C40CF5
:103720000E9489132091D50C3091D60C8091130200
:103730009091140282179307F4F4109218021092D9
:1037400017021092D40C1092D30C8091C00C90915F
:10375000C10CA091C20CB091C30C0196A11DB11D6A
:103760008093C00C9093C10CA093C20CB093C30C77
:103770000E949012AED861E082E00E94FC0585E6CE
:1037800090E098878F830E9489130E94401264E61C
:1037900070E080E090E00E94A1068F8198850197FB
:1037A00098878F83892B79F761E083E00E94FC057D
:1037B00061E085E00E94FC0585E690E098878F83B4
:1037C0000E9489130E94401264E670E080E090E05D
:1037D0000E94A1068F819885019798878F83892BF6
:1037E00079F761E084E00E94FC058CE00E94D4053A
:1037F000892B09F0A3C20E94D10660547B428E4FF0
:103800009F4F6093BC0C7093BD0C8093BE0C909343
:10381000BF0C64EF71E080E090E00E94A1062224DA
:103820002394312C0E94FC1181E090E09093E70DED
:103830008093E60D9093E50D8093E40D1092E10DD9
:103840001092E00D1092E30D1092E20D8093E80DBE
:103850008093E90D8DE297E00E94EF111092E10D47
:103860001092E00D8CE090E09093E30D8093E20DD8
:1038700082E497E00E94EF111092E10D1092E00DAA
:1038800086E190E09093E30D8093E20D81E597E06F
:103890000E94EF111092E10D1092E00D80E290E095
:1038A0009093E30D8093E20D80E697E00E94EF1184
:1038B0001092E10D1092E00D8AE290E09093E30DFA
:1038C0008093E20D8FE697E00E94EF111092E10DD8
:1038D0001092E00D84E390E09093E30D8093E20D6D
:1038E0008EE797E00E94EF110E94D6108BE00E94B5
:1038F000D405892B19F49FEF291A390A8AE00E940E
:10390000D405892B11F00C94B32B21E0221A310835
:1039100019F425E0222E312C81E08093E80D80936C
:10392000E90D8AE590E09093E10D8093E00D2AE0A7
:10393000229DC001239D900D112402969093E30DCA
:103940008093E20D8DE897E00E94F0110E94D6105E
:103950008DE00E94D405892B09F0D5C141E02416E1
:10396000310409F011C70E94D10660547B428E4F8A
:103970009F4F6093BC0C7093BD0C8093BE0C9093D2
:10398000BF0C64EF71E080E090E00E94A10601E0CE
:1039900010E0EE24E394F12CF4E3CF2ED12CA4E13B
:1039A0004A2E512CBAE06B2E712C8FE0882E912C70
:1039B0000E94FC11F092E70DE092E60DF092E50D09
:1039C000E092E40D1092E10D1092E00D1092E30DE3
:1039D0001092E20D81E08093E80D8093E90D81E97A
:1039E00097E00E94EF111092E10D1092E00D8CE033
:1039F00090E09093E30D8093E20D86EA97E00E94B9
:103A0000EF111092E10D1092E00D86E190E090939D
:103A1000E30D8093E20D86EB97E00E94EF11109288
:103A2000E10D1092E00D80E290E09093E30D809321
:103A3000E20D86EC97E00E94EF111092E10D1092DA
:103A4000E00D8AE290E09093E30D8093E20D86ED25
:103A500097E00E94EF111092E10D1092E00DD092CC
:103A6000E30DC092E20D86EE97E00E94EF110E94F6
:103A7000D6108BE00E94D405892B11F40F5F1F4FE5
:103A80008AE00E94D405892B11F00C94BE2B0150C2
:103A9000110911F405E010E091E09093E80D909386
:103AA000E90D8DE590E09093E10D8093E00D2AE023
:103AB000209FC001219F900D112402969093E30D49
:103AC0008093E20D8DE897E00E94F0110E94D610DD
:103AD0008DE00E94D405892B09F0FAC00130110550
:103AE00009F0E2C20E94D10660547B428E4F9F4F84
:103AF0006093BC0C7093BD0C8093BE0C9093BF0C74
:103B000064EF71E080E090E00E94A1067EE1A72EC4
:103B1000B12C0E94FC11F092E70DE092E60DF092BC
:103B2000E50DE092E40D1092E10D1092E00D10927F
:103B3000E30D1092E20D91E09093E80D9093E90D62
:103B400086EF97E00E94F0110E94D6108AE00E9452
:103B5000D405892B49F480911302909114020196A7
:103B600090931402809313028BE00E94D405892B5A
:103B700049F48091130290911402019790931402DA
:103B80008093130221E02093E80D2093E90D109219
:103B9000E10D1092E00D9092E30D8092E20D8AE02B
:103BA00098E00E94F0111092E10D1092E00DB09299
:103BB000E30DA092E20D88E198E00E94EF1142E04F
:103BC0004093E80D4093E90D809113029091140207
:103BD0000E94071281E08093E80D8093E90D82E94D
:103BE00096E00E94F0111092E10D1092E00DD0923B
:103BF000E30DC092E20D8FE198E00E94EF118091F9
:103C0000D50C9091D60C0E94071282E996E00E9492
:103C1000EF110E94D61068EC70E080E090E00E9406
:103C2000A1068CE00E94D405019781F40E94D10680
:103C30002091BC0C3091BD0C4091BE0C5091BF0C3A
:103C4000621773078407950708F463CF0E94FC117D
:103C50001092E10D1092E00D1092E30D1092E20D22
:103C600080E398E00E94F01187E498E00E94EF1151
:103C7000909113029F83892F0E94ED1282E598E0B4
:103C80000E94EF11B09014028B2D0E94ED128DE571
:103C900098E00E94EF11BA82198269817A812F819E
:103CA000622B90E080E04AE00E94AC110E94D610A6
:103CB0006B2D90E080E00E9475136F8181E090E0B1
:103CC0000E94751368EC70E080E090E00E94A1060D
:103CD00068EC70E080E090E00E94A1068CE00E9419
:103CE000D405019781F40E94D1062091BC0C30913B
:103CF000BD0C4091BE0C5091BF0C62177307840736
:103D0000950708F455CE68EC70E080E090E00E94E2
:103D1000A1068CE00E94D405019781F40E94D1068F
:103D20000091BC0C1091BD0C2091BE0C3091BF0CC9
:103D3000601771078207930708F474CD809112020F
:103D4000882311F40C947A2B61E086E00E94FC0534
:103D50000E94FC118AE090E09093E10D8093E00DC9
:103D60001092E30D1092E20D8BE796E00E94F011A5
:103D700081E08093E80D8093E90D1092E10D10929F
:103D8000E00D8AE090E09093E30D8093E20D85EFE3
:103D90009BE00E94EF118091C90C9091CA0C0E9487
:103DA000071284EE99E00E94EF118091120288239D
:103DB00011F40C94A12B8EEF9BE00E94EF11109256
:103DC000E10D1092E00D1092E30D1092E20D80E1F2
:103DD0009CE00E94EF118091BA0C9091BB0C0E9464
:103DE000071281E996E00E94EF111092E10D109206
:103DF000E00D86E190E09093E30D8093E20D8EE17B
:103E00009CE00E94EF110E945E116091AD0C7091D8
:103E1000AE0C8091AF0C9091B00C4AE00E94AC11B6
:103E200086E198E00E94EF116091A90C7091AA0CB4
:103E30008091AB0C9091AC0C6A30710581059105B5
:103E400010F40C94A52B0E94E01289E29CE00E94E1
:103E5000EF11209117023091180285EF91E0821B3B
:103E6000930B0E94071286EC99E00E94EF1160917B
:103E7000CF0C7091D00C8091D10C9091D20C0E94FB
:103E8000E0121092E10D1092E00D8AE290E0909322
:103E9000E30D8093E20D83E09AE00E94EF118091A0
:103EA000D50C9091D60C0E94071282E996E00E94F0
:103EB000EF1188E198E00E94EF1180911302909138
:103EC00014020E94071282E996E00E94F01182E13A
:103ED0009AE00E94EF118091D90C9091DA0C0E9427
:103EE000071282E996E00E94EF1188E198E00E94B3
:103EF000EF1180911502909116020E94071282E93B
:103F000096E00E94EF110E94D610809117029091C6
:103F10001802853F21E092070CF0C3CA01969093E6
:103F2000180280931702BDCA2091D50C3091D60C8F
:103F30008091130290911402821793070CF055CCD4
:103F40008091D70C9091D80C01969093D80C8093C7
:103F5000D70C10921802109217021092D40C1092E3
:103F6000D30C8091CF0C9091D00CA091D10CB0913A
:103F7000D20C0196A11DB11D8093CF0C9093D00C53
:103F8000A093D10CB093D20C8091C00C9091C10C35
:103F9000A091C20CB091C30C0196A11DB11D8093DC
:103FA000C00C9093C10CA093C20CB093C30C0E94A0
:103FB000901261E082E00E94FC0561E083E00E94D3
:103FC000FC0561E084E00E94FC0561E085E00E9460
:103FD000FC0561E086E00E94FC0560E084E00E9450
:103FE000FC0585E690E098878F830E9489130E94E4
:103FF000901264E670E080E090E00E94A1068F815C
:104000009885019798878F83892B79F760E083E003
:104010000E94FC0583E390E098878F830E948913B8
:104020000E94901264E670E080E090E00E94A10699
:104030008F819885019798878F83892B79F70E94C4
:10404000691461E082E00E94FC0583E390E09887B8
:104050008F830E9489130E94901264E670E080E0D2
:1040600090E00E94A1068F819885019798878F83A1
:10407000892B79F761E083E00E94FC0589EC90E0F0
:1040800098878F830E9489130E94901264E670E0E3
:1040900080E090E00E94A1068F8198850197988723
:1040A0008F83892B79F79DCB0230110509F0D2C09F
:1040B0000E94D10660547B428E4F9F4F6093BC0C90
:1040C0007093BD0C8093BE0C9093BF0C64EF71E0B5
:1040D00080E090E00E94A1066EE1A62EB12C0E9425
:1040E000FC11F092E70DE092E60DF092E50DE09202
:1040F000E40D1092E10D1092E00D1092E30D10927C
:10410000E20D41E04093E80D4093E90D85E698E02B
:104110000E94F0110E94D6108AE00E94D405892BDB
:1041200049F480910002909101020196909301025E
:10413000809300028BE00E94D405892B49F4809182
:104140000002909101020197909301028093000276
:1041500081E08093E80D8093E90D1092E10D1092BB
:10416000E00D9092E30D8092E20D89E798E00E94C5
:10417000F0111092E10D1092E00DB092E30DA092BB
:10418000E20D88E198E00E94EF1192E09093E80D33
:104190009093E90D80910002909101020E94071214
:1041A00021E02093E80D2093E90D8BE898E00E9430
:1041B000F0111092E10D1092E00DD092E30DC0923B
:1041C000E20D8FE198E00E94EF118091D50C909163
:1041D000D60C0E94071282E996E00E94EF110E941D
:1041E000D61068EC70E080E090E00E94A1068CE0C0
:1041F0000E94D405019781F40E94D1062091BC0C45
:104200003091BD0C4091BE0C5091BF0C62177307EA
:104210008407950708F463CF0E94FC111092E10D0A
:104220001092E00D1092E30D1092E20D83E998E0F8
:104230000E94F01185EA98E00E94EF11409100027F
:104240004F83842F0E94ED120E94D6106F8188E068
:1042500090E036CD0330110509F0EEC00E94D10682
:1042600060547B428E4F9F4F6093BC0C7093BD0C8B
:104270008093BE0C9093BF0C64EF71E080E090E0FF
:104280000E94A1065EE1A52EB12C0E94FC11F092C5
:10429000E70DE092E60DF092E50DE092E40D10924C
:1042A000E10D1092E00D1092E30D1092E20D81E00D
:1042B0008093E80D8093E90D80EB98E00E94F01167
:1042C0000E94D6108AE00E94D405892B49F480917F
:1042D0001502909116020196909316028093150292
:1042E0008BE00E94D405892B49F4809115029091AE
:1042F00016020197909316028093150291E0909315
:10430000E80D9093E90D1092E10D1092E00D90925E
:10431000E30D8092E20D86EC98E00E94F01110927D
:10432000E10D1092E00DB092E30DA092E20D88E154
:1043300098E00E94EF1122E02093E80D2093E90D10
:1043400080911502909116020E94071241E040935D
:10435000E80D4093E90D82E996E00E94F011109279
:10436000E10D1092E00DD092E30DC092E20D8FE1CD
:1043700098E00E94EF118091D90C9091DA0C0E9484
:10438000071282E996E00E94EF110E94D61068ECB5
:1043900070E080E090E00E94A1068CE00E94D405CD
:1043A000019781F40E94D1062091BC0C3091BD0C84
:1043B0004091BE0C5091BF0C62177307840795079C
:1043C00008F463CF0E94FC111092E10D1092E00DF1
:1043D0001092E30D1092E20D87ED98E00E94F0112B
:1043E0008EEE98E00E94EF11809115028F830E945B
:1043F000ED1289EF98E00E94EF11B09016028B2D1C
:104400000E94ED128DE598E00E94EF11BC821B82A4
:104410006B817C819F81692B90E080E04AE00E9463
:10442000AC110E94D6106B2D85E090E00E947513B0
:104430006F8186E090E044CC0430110509F0D2C0D1
:104440000E94D10660547B428E4F9F4F6093BC0CFC
:104450007093BD0C8093BE0C9093BF0C64EF71E021
:1044600080E090E00E94A1064EE1A42EB12C0E94B3
:10447000FC11F092E70DE092E60DF092E50DE0926E
:10448000E40D1092E10D1092E00D1092E30D1092E8
:10449000E20D21E02093E80D2093E90D84E099E0FE
:1044A0000E94F0110E94D6108AE00E94D405892B48
:1044B00049F480910C0290910D02019690930D02A7
:1044C00080930C028BE00E94D405892B49F48091E3
:1044D0000C0290910D02019790930D0280930C02B3
:1044E00041E04093E80D4093E90D1092E10D1092E8
:1044F000E00D9092E30D8092E20D8AE199E00E9436
:10450000F0111092E10D1092E00DB092E30DA09227
:10451000E20D88E198E00E94EF1182E08093E80DBF
:104520008093E90D80910C0290910D020E94071278
:1045300091E09093E80D9093E90D8BE898E00E944C
:10454000F0111092E10D1092E00DD092E30DC092A7
:10455000E20D8FE198E00E94EF118091D90C9091CB
:10456000DA0C0E94071282E996E00E94EF110E9485
:10457000D61068EC70E080E090E00E94A1068CE02C
:104580000E94D405019781F40E94D1062091BC0CB1
:104590003091BD0C4091BE0C5091BF0C6217730757
:1045A0008407950708F463CF0E94FC111092E10D77
:1045B0001092E00D1092E30D1092E20D80E399E06D
:1045C0000E94F01182E499E00E94EF1120910C0208
:1045D0002F83822F0E94ED120E94D6106F8183E0FC
:1045E00090E06ECB0530110509F072CB0E94D10628
:1045F00060547B428E4F9F4F6093BC0C7093BD0CF8
:104600008093BE0C9093BF0C64EF71E080E090E06B
:104610000E94A1060E94FC11F092E70DE092E60DC7
:10462000F092E50DE092E40D1092E10D1092E00D94
:1046300085E090E09093E30D8093E20D91E09093FC
:10464000E80D9093E90D8DE499E00E94F0118AE065
:104650000E94D405892B19F421E0209312028BE0EB
:104660000E94D405892B11F41092120241E040936C
:10467000E80D4093E90D1092E10D1092E00D50927B
:10468000E30D4092E20D8FE599E00E94EF117092E8
:10469000E10D6092E00D83E290E09093E30D809352
:1046A000E20D92E09093E80D9093E90D8091120253
:1046B000882309F455C080E09CE00E94EF1121E0BE
:1046C0002093E80D2093E90D7092E10D6092E00DCA
:1046D000D092E30DC092E20D8EE699E00E94EF11B8
:1046E0000E94D61068EC70E080E090E00E94A10685
:1046F0008CE00E94D405019781F40E94D10620919C
:10470000BC0C3091BD0C4091BE0C5091BF0C621797
:1047100073078407950708F47DCF0E94FC1110925F
:10472000E10D1092E00D1092E30D1092E20D88E879
:1047300099E00E94F0118BE999E00E94EF118091BD
:1047400012028F830E94ED120E94D6106F818CE1BD
:1047500090E00E94751360ED77E080E090E0B6CACB
:1047600089E09CE00E94EF1141E04093E80D409306
:10477000E90D7092E10D6092E00DD092E30DC092D0
:10478000E20D8BE799E0AACF92E02916310409F0F7
:1047900076C10E94D10660547B428E4F9F4F60933A
:1047A000BC0C7093BD0C8093BE0C9093BF0C61E069
:1047B00082E00E94FC0561E083E00E94FC0561E06C
:1047C00084E00E94FC0561E085E00E94FC0561E058
:1047D00086E00E94FC0564EF71E080E090E00E94BA
:1047E000A106512C612C712C1F8201E010E086E1A2
:1047F000E82EF12C90E2C92ED12C2AE2A22EB12C67
:1048000037E3832E912C0E94FC111093E70D009347
:10481000E60D1093E50D0093E40D1092E10D10925A
:10482000E00D1092E30D1092E20D21E02093E80DCF
:104830002093E90D87EA99E00E94EF111092E10DB3
:104840001092E00D8CE090E09093E30D8093E20DE8
:1048500088EB99E00E94EF119F81992309F4E1C050
:1048600060E084E00E94FC058DEB99E00E94EF116E
:104870001092E10D1092E00DF092E30DE092E20D46
:1048800089EC99E00E94EF11772009F4D1C060E033
:1048900086E00E94FC058DEB99E00E94EF111092DA
:1048A000E10D1092E00DD092E30DC092E20D8EEC7E
:1048B00099E00E94EF11662009F4C1C060E083E036
:1048C0000E94FC058DEB99E00E94EF111092E10D22
:1048D0001092E00DB092E30DA092E20D83ED99E00D
:1048E0000E94EF11552009F4B1C060E085E00E94FC
:1048F000FC058DEB99E00E94EF110E94D6108BE031
:104900000E94D405892B49F4809102029091030200
:10491000019690930302809302028AE00E94D405DC
:10492000892B49F4809102029091030201979093A0
:1049300003028093020280910202909103021816F2
:10494000190634F084E090E0909303028093020211
:104950008091020290910302059724F010930302C4
:104960000093020291E09093E80D9093E90D20915D
:104970000202309103024AE0429FC001439F900D22
:10498000112402969092E10D8092E00D9093E30D38
:104990008093E20D8DE897E00E94F0118DE00E9477
:1049A000D405892B61F48091020290910302813039
:1049B000910509F052C02F8141E024272F830E94E6
:1049C000D61068EC70E080E090E00E94A1068CE0D8
:1049D0000E94D405019781F40E94D1062091BC0C5D
:1049E0003091BD0C4091BE0C5091BF0C6217730703
:1049F0008407950708F407CF61E082E00E94FC0578
:104A000061E083E00E94FC0561E084E00E94FC0517
:104A100061E085E00E94FC0561E086E00E94FC0503
:104A200072C961E084E00E94FC0583EC99E01ECF2E
:104A300061E086E00E94FC0583EC99E02ECF61E006
:104A400083E00E94FC0583EC99E03ECF61E085E0C5
:104A50000E94FC0583EC99E04ECF8230910519F459
:104A600081E07826ACCF8330910519F491E0692676
:104A7000A6CF049709F0A3CF21E05226A0CF43E0B0
:104A80002416310409F08AC60E94D10660547B4284
:104A90008E4F9F4F6093BC0C7093BD0C8093BE0CE7
:104AA0009093BF0C64EF71E080E090E00E94A1065B
:104AB00011E088E30E9465069093D60C8093D50C94
:104AC00089E30E9465069093DA0C8093D90C86E303
:104AD0000E9465069093BB0C8093BA0C87E30E94FA
:104AE00065069093CA0C8093C90C0E94FC1181E06A
:104AF00090E09093E70D8093E60D9093E50D809301
:104B0000E40D1092E10D1092E00D1092E30D109261
:104B1000E20D1093E80D1093E90D88ED99E00E94E5
:104B2000EF118091BA0C9091BB0C0E94071282E9A0
:104B300096E00E94F0118DE39AE00E94EF118091BF
:104B40000602909107020E94071282E996E00E94F5
:104B5000EF118EED99E00E94EF118091B40C9091CD
:104B6000B50C0E94071284EE99E00E94F01187EFC5
:104B70009BE00E94EF118091C90C9091CA0C0E9499
:104B8000071282E996E00E94F0118DE39AE00E94FC
:104B9000EF1180910402909105020E94071282E9B0
:104BA00096E00E94EF118EED99E00E94EF11809146
:104BB000B20C9091B30C0E94071284EE99E00E940F
:104BC000F01186EE99E00E94EF118091D50C909142
:104BD000D60C0E94071282E996E00E94F0118DE344
:104BE0009AE00E94EF1180910A0290910B020E94BC
:104BF000071282E996E00E94EF118EED99E00E9483
:104C0000EF118091B80C9091B90C0E94071284EEBC
:104C100099E00E94F01180EF99E00E94EF118091DD
:104C2000D90C9091DA0C0E94071282E996E00E945A
:104C3000F0118DE39AE00E94EF11809108029091AB
:104C400009020E94071282E996E00E94EF118EEDA0
:104C500099E00E94EF118091B60C9091B70C0E94E0
:104C6000071284EE99E00E94F0110E94D61068ECC1
:104C700070E080E090E00E94A1068CE00E94D405E4
:104C8000019709F040C80E94D106C090BC0CD0909A
:104C9000BD0CE090BE0CF090BF0C6C157D058E0530
:104CA0009F0508F406CF2FC80E94D10660547B42AE
:104CB0008E4F9F4F6093BC0C7093BD0C8093BE0CC5
:104CC0009093BF0C64EF71E080E090E00E94A10639
:104CD00011E00E94FC1181E090E09093E70D809339
:104CE000E60D9093E50D8093E40D1093E80D10937D
:104CF000E90D1092E10D1092E00D1092E30D10926B
:104D0000E20D85ED96E00E94EF116091AD0C70917F
:104D1000AE0C8091AF0C9091B00C4AE00E94AC11A7
:104D200086E198E00E94EF116091A90C7091AA0CA5
:104D30008091AB0C9091AC0C6A30710581059105A6
:104D400008F461C00E94E01289EF99E00E94EF111F
:104D50006091C00C7091C10C8091C20C9091C30CF9
:104D60000E94E01288E09AE00E94EF116091CB0C63
:104D70007091CC0C8091CD0C9091CE0C0E94E012E1
:104D800087E19AE00E94F0118AE29AE00E94EF1116
:104D90008091A70C9091A80C0E9407128EE29AE0D5
:104DA0000E94EF118091C40C9091C50C0E943412A6
:104DB00083E39AE00E94EF118091C60C9091C70C9A
:104DC0000E9434120E94D61068EC70E080E090E0FF
:104DD0000E94A1068CE00E94D405019711F00C946A
:104DE000831E0E94D106C090BC0CD090BD0CE090F8
:104DF000BE0CF090BF0C6C157D058E059F0508F468
:104E000068CF0C94831E83EF96E00E94EF116091AF
:104E1000A90C7091AA0C8091AB0C9091AC0C92CF24
:104E20000230110509F0DEC00E94D10660547B42B9
:104E30008E4F9F4F6093BC0C7093BD0C8093BE0C43
:104E40009093BF0C64EF71E080E090E00E94A106B7
:104E50000E94FC1181E090E09093E70D8093E60DB5
:104E60009093E50D8093E40D1092E10D1092E00D0A
:104E70001092E30D1092E20D9092E80D9092E90DE0
:104E800088EC9AE00E94F01189ED9AE00E94F011FE
:104E90008AE00E94D405892B49F480910E029091FA
:104EA0000F02019690930F0280930E028BE00E94F6
:104EB000D405892B49F480910E0290910F0201973D
:104EC00090930F0280930E021092E10D1092E00D6C
:104ED00089E190E09093E30D8093E20D8FEE9AE0EC
:104EE0000E94EF1180910E0290910F020E943412E5
:104EF0008EEF9AE00E94EF118091C60C9091C70C42
:104F00000E9434129092E80D9092E90D8091C80CA5
:104F1000882309F464C087E09BE00E94EF110E949F
:104F2000D61064E670E080E090E00E94A1068CE07C
:104F30000E94D405019781F40E94D106C090BC0C58
:104F4000D090BD0CE090BE0CF090BF0C6C157D05B0
:104F50008E059F0508F47CCF1092C80C0E94FC11AE
:104F60001092E10D1092E00D1092E30D1092E20DFF
:104F700081E29BE00E94F0118AE39BE00E94EF1126
:104F8000F0900E028F2D0E94ED1286E49BE00E94AD
:104F9000EF11E0900F028E2D0E94ED128DE598E04A
:104FA0000E94EF11EE821D826D817E816F2990E05B
:104FB00080E04AE00E94AC110E94D61068EC70E0DC
:104FC00080E090E00E94A1066E2D8AE190E00E94B0
:104FD00075136F2D8BE190E00E94751330C589E148
:104FE0009BE09BCF0330110509F0D0C00E94D10691
:104FF00060547B428E4F9F4F6093BC0C7093BD0CEE
:105000008093BE0C9093BF0C64EF71E080E090E061
:105010000E94A1060E94FC119092E80D9092E90D69
:1050200081E090E09093E70D8093E60D9093E50D7D
:105030008093E40D1092E10D1092E00D1092E30DBB
:105040001092E20D83E59BE00E94EF114AE060E0E0
:1050500070E180E090E00E94AC1189E796E00E9448
:105060009F110E94FC119092E80D9092E90D81E051
:1050700090E09093E70D8093E60D9093E50D80937B
:10508000E40D1092E10D1092E00D1092E30D1092DC
:10509000E20D83E59BE00E94EF114AE060E070E1E1
:1050A00080E090E00E94AC1189E796E00E949F1199
:1050B0008BE00E94D405892B29F495E0E91AF108C8
:1050C0000E94D6108AE00E94D405892BD9F525E0EC
:1050D000E20EF11C0E94D610E11440E1F40624F027
:1050E0006BEFE62E6FE0F62E1092E10D1092E00DC0
:1050F00088E090E09093E30D8093E20D670195E0E6
:10510000C90ED11C5701CA14DB0409F1C5010E9464
:10511000E3148093B10C8CE19CE00E94F011C50176
:105120000E94071285EC96E00E94EF116091B10C8D
:1051300070E090E080E040E10E94AC112FEFA21AF5
:10514000B20AE1CFF7FEC8CFF12CE12CC5CF0E9407
:10515000D61062E370E080E090E00E94A1068CE04F
:105160000E94D405019709F06AC40E94D1062091DB
:10517000BC0C3091BD0C4091BE0C5091BF0C62171D
:1051800073078407950708F46CCF59C404301105E0
:1051900009F0BDC10E94D10660547B428E4F9F4FE3
:1051A0006093BC0C7093BD0C8093BE0C9093BF0CAD
:1051B0000E94FC119092E80D9092E90D81E090E040
:1051C0009093E70D8093E60D9093E50D8093E40DA9
:1051D0001092E10D1092E00D1092E30D1092E20D8D
:1051E00083E69BE00E94F01185E79BE00E94EF11AF
:1051F0000E94D61068EE73E080E090E00E94A10665
:105200008BE00E94D405892B09F078C01092B90C6C
:105210001092B80C60E08AE090E00E94751360E0A4
:105220008BE090E00E94751380E094E090930B0275
:1052300080930A0264E08CE090E00E94751360E0C5
:105240008DE090E00E9475131092B70C1092B60C8E
:1052500060E08EE090E00E94751360E08FE090E0E7
:105260000E94751380E094E09093090280930802F5
:1052700064E080E190E00E94751360E081E190E0DD
:105280000E9475131092B50C1092B40C60E082E18C
:1052900090E00E94751360E083E190E00E94751336
:1052A00080E094E0909307028093060264E084E13A
:1052B00090E00E94751360E085E190E00E94751314
:1052C0001092B30C1092B20C60E086E190E00E9464
:1052D000751360E087E190E00E94751380E094E030
:1052E000909305028093040264E088E190E00E94BC
:1052F000751360E089E190E00E9475130E94FC1133
:105300009092E80D9092E90D81E090E09093E70D86
:105310008093E60D9093E50D8093E40D1092E10DDE
:105320001092E00D1092E30D1092E20D81E89BE0E7
:105330000E94F01187E99BE00E94EF111092E10DAD
:105340001092E00D89E190E09093E30D8093E20DDF
:105350008AE090E00E94E314F82E8BE090E00E9437
:10536000E3149F2D9093B90C8093B80C85EA9BE0D1
:105370000E94EF118091B80C9091B90C0E94071215
:105380008CE090E00E94E314F82E8DE090E00E9403
:10539000E3149F2D90930B0280930A028CEA9BE00A
:1053A0000E94EF1180910A0290910B020E94341228
:1053B0008EE090E00E94E314F82E8FE090E00E94CF
:1053C000E3149F2D9093B70C8093B60C81EB9BE078
:1053D0000E94EF118091B60C9091B70C0E940712B9
:1053E00080E190E00E94E314F82E81E190E00E94B9
:1053F000E3149F2D90930902809308028CEA9BE0AE
:105400000E94EF1180910802909109020E943412CB
:1054100082E190E00E94E314F82E83E190E00E9484
:10542000E3149F2D9093B50C8093B40C88EB9BE014
:105430000E94EF118091B40C9091B50C0E9407125C
:1054400084E190E00E94E314F82E85E190E00E9450
:10545000E3149F2D90930702809306028CEA9BE051
:105460000E94EF1180910602909107020E9434126F
:1054700086E190E00E94E314F82E87E190E00E941C
:10548000E3149F2D9093B30C8093B20C80EC9BE0BF
:105490000E94EF118091B20C9091B30C0E94071200
:1054A00088E190E00E94E314F82E89E190E00E94E8
:1054B000E3149F2D90930502809304028CEA9BE0F5
:1054C0000E94EF1180910402909105020E94341213
:1054D0000E94D61068EC70E080E090E00E94A10687
:1054E0008CE00E94D405019709F0A9C20E94D10660
:1054F000C090BC0CD090BD0CE090BE0CF090BF0CE6
:105500006C157D058E059F0508F47ACE98C205308E
:10551000110509F094C20E94D10660547B428E4F5F
:105520009F4F6093BC0C7093BD0C8093BE0C909306
:10553000BF0C64EF71E080E090E00E94A10657EF9D
:10554000F52E86E30E9465069093BB0C8093BA0CFF
:1055500087E30E9465069093CA0C8093C90C88E388
:105560000E9465069093D60C8093D50C89E30E9427
:1055700065069093DA0C8093D90C0E94FC1181E0AF
:1055800090E09093E70D8093E60D9093E50D809366
:10559000E40D1092E10D1092E00D1092E30D1092C7
:1055A000E20D9092E80D9092E90D88EC9BE00E944C
:1055B000F01186ED9BE00E94EF118091D50C909147
:1055C000D60C9C0143E0220F331F4A95E1F7821B62
:1055D000930B62E370E0A3D2CB0186589F4F0E94E9
:1055E000071285EC96E00E94EF118091D50C909106
:1055F000D60C0E9434128DED9BE00E94EF11209199
:10560000D90C3091DA0C4F2D4203C001439F900D0D
:10561000112462E370E083D2CB018C579F4F0E942C
:10562000071285EC96E00E94EF118091D90C9091C1
:10563000DA0C0E94341284EE9BE00E94EF1120915C
:10564000C90C3091CA0C4F2D4203C001439F900DED
:10565000112462E370E063D2CB018C579F4F0E940C
:10566000071285EC96E00E94EF118091C90C909191
:10567000CA0C0E9434128DEE9BE00E94EF11209123
:10568000BA0C3091BB0C4F2D4203C001439F900DCB
:10569000112462E370E043D2CB018C579F4F0E94EC
:1056A000071285EC96E00E94EF118091BA0C909160
:1056B000BB0C0E9434120E94D61060E971E080E0B9
:1056C00090E00E94A1068CE00E94D405019709F0A9
:1056D000B6C10E94D1062091BC0C3091BD0C409106
:1056E000BE0C5091BF0C621773078407950708F42E
:1056F00028CFA5C18091130290911402209110022D
:1057000030911102820F931F2091D50C3091D60C4D
:105710008217930754F461E086E00E94FC05109222
:105720001102109210020C94A81E60E086E00E9404
:10573000FC0584E090E090931102809310020C9499
:10574000A81E87E09CE00C94DD1E83EF96E00E948B
:10575000EF116091A90C7091AA0C8091AB0C909103
:10576000AC0C0C94231F46E02416310411F00C9469
:105770008C1C22242394312C0C948C1C0630110593
:1057800011F00C944C1D01E010E00C944C1D0630FF
:10579000110509F0A0C001E010E09DC084E02816CA
:1057A000310409F481CA95E02916310411F00C94F2
:1057B000831E0E94D10660547B428E4F9F4F6093A0
:1057C000BC0C7093BD0C8093BE0C9093BF0C64EF27
:1057D00071E080E090E00E94A10601E010E09924D1
:1057E0009394A4E34A2E512CB2E66B2E712C0E94A6
:1057F000FC1181E090E09093E70D8093E60D90938B
:10580000E50D8093E40D1092E10D1092E00D1092E1
:10581000E30D1092E20D9092E80D9092E90D83E471
:105820009AE00E94EF111092E10D1092E00D8CE0D1
:1058300090E09093E30D8093E20D86E59AE00E945C
:10584000EF111092E10D1092E00D86E190E090933F
:10585000E30D8093E20D87E69AE00E94EF1110922B
:10586000E10D1092E00D80E290E09093E30D8093C3
:10587000E20D88E79AE00E94EF111092E10D10927C
:10588000E00D8AE290E09093E30D8093E20D89E8C9
:105890009AE00E94EF111092E10D1092E00D5092EB
:1058A000E30D4092E20D8AE99AE00E94EF110E9416
:1058B000D6108BE00E94D405892B11F40F5F1F4F87
:1058C0008AE00E94D405892B09F061CF01501109AB
:1058D00011F405E010E09092E80D9092E90D7092BD
:1058E000E10D6092E00D2AE0209FC001219F900D04
:1058F000112402969093E30D8093E20D8DE897E0DA
:105900000E94F0110E94D6108DE00E94D4057C0107
:10591000892B09F094C00130110509F081CA0E9459
:10592000D10660547B428E4F9F4F6093BC0C7093A6
:10593000BD0C8093BE0C9093BF0C64EF71E080E0CF
:1059400090E00E94A10660E084E00E94FC05C12C6A
:1059500074E0D72EEAE0AE2EB12CF2E08F2E0E943A
:10596000FC1181E090E09093E70D8093E60D909319
:10597000E50D8093E40D1092E10D1092E00D109270
:10598000E30D1092E20D9092E80D9092E90D8BEAF2
:105990009AE00E94F01187E30E9465069093CA0C7A
:1059A0008093C90CE816F9060CF47C018C159D0552
:1059B0000CF46C011092E10D1092E00DB092E30D29
:1059C000A092E20D8092E80D8092E90D88EF9AE0B6
:1059D0000E94EF118091C90C9091CA0C0E94341260
:1059E0008CEB9AE00E94EF11C6010E94341282EC07
:1059F0009AE00E94EF11C7010E9434120E94D61053
:105A000068EC70E080E090E00E94A1068CE00E94CB
:105A1000D405019781F40E94D1062091BC0C3091ED
:105A2000BD0C4091BE0C5091BF0C621773078407E8
:105A3000950708F494CF61E084E00E94FC0568ECCF
:105A400070E080E090E00E94A1068CE00E94D40506
:105A5000019711F00C94831E0E94D106C090BC0CDB
:105A6000D090BD0CE090BE0CF090BF0C6C157D0585
:105A70008E059F0508F4BBCE0C94831EF999FECFCA
:105A800092BD81BDF89A992780B50895262FF9997E
:105A9000FECF1FBA92BD81BD20BD0FB6F894FA9A11
:105AA000F99A0FBE019608952BD0A59F900DB49F33
:105AB000900DA49F800D911D11240895A1E21A2E2E
:105AC000AA1BBB1BFD010DC0AA1FBB1FEE1FFF1FA2
:105AD000A217B307E407F50720F0A21BB30BE40BF2
