:1000000082C30000B1C30000AFC30000ADC3000055
:10001000ABC30000A9C30000A7C30000A5C3000034
:10002000A3C30000A1C300009FC300009DC3000044
:100030009BC3000099C3000097C3000095C3000054
:1000400093C3000091C300008FC300008DC3000064
:100050008BC3000089C3000087C300000C947E1787
:1000600083C300000C9448170C941E177DC3000036
:100070007BC3000079C3000077C3000075C3000094
:1000800073C3000071C300006FC300006DC30000A4
:100090006BC3000069C3000067C300000C94C8175D
:1000A00063C3000061C300005FC300005DC30000C4
:1000B0005BC3000059C3000057C3000055C30000D4
:1000C00053C3000051C300004FC300004DC30000E4
:1000D0004BC3000049C3000047C3000045C30000F4
:1000E00043C3000000000000003E5B4F5B3E3E6BE0
:1000F0004F6B3E1C3E7C3E1C183C7E3C181C577DC2
:10010000571C1C5E7F5E1C00183C1800FFE7C3E70D
:10011000FF0018241800FFE7DBE7FF30483A060E1F
:100120002629792926407F050507407F05253F5A66
:100130003CE73C5A7F3E1C1C08081C1C3E7F1422D6
:100140007F22145F5F005F5F06097F017F00668981
:10015000956A606060606094A2FFA29408047E04C7
:100160000810207E201008082A1C08081C2A0808ED
:100170001E101010100C1E0C1E0C30383E383006AD
:100180000E3E0E06000000000000005F00000007A9
:10019000000700147F147F14242A7F2A12231308D7
:1001A000646236495620500008070300001C2241B3
:1001B000000041221C002A1C7F1C2A08083E080857
:1001C0000080703000080808080800006060002007
:1001D000100804023E5149453E00427F40007249EA
:1001E0004949462141494D331814127F102745458E
:1001F00045393C4A494931412111090736494949A4
:1002000036464949291E0000140000004034000011
:10021000000814224114141414140041221408027A
:10022000015909063E415D594E7C1211127C7F49ED
:100230004949363E414141227F4141413E7F494942
:1002400049417F090909013E414151737F0808086E
:100250007F00417F41002040413F017F081422413F
:100260007F404040407F021C027F7F0408107F3E99
:100270004141413E7F090909063E4151215E7F0906
:10028000192946264949493203017F01033F40406D
:10029000403F1F2040201F3F4038403F6314081458
:1002A0006303047804036159494D43007F41414190
:1002B0000204081020004141417F04020102044071
:1002C00040404040000307080020545478407F28F5
:1002D0004444383844444428384444287F385454EB
:1002E000541800087E090218A4A49C787F0804040E
:1002F0007800447D40002040403D007F10284400AD
:1003000000417F40007C047804787C08040478383D
:1003100044444438FC1824241818242418FC7C086D
:10032000040408485454542404043F44243C4040EA
:10033000207C1C2040201C3C4030403C442810289D
:10034000444C9090907C4464544C440008364100E6
:100350000000770000004136080002010204023C60
:100360002623263C1EA1A161123A4040207A38542F
:1003700054555921555579412254547842215554A8
:10038000784020545579400C1E52721239555555FB
:1003900059395454545939555454580000457C41E6
:1003A0000002457D420001457C407D1211127DF026
:1003B000282528F07C545545002054547C547C0A50
:1003C000097F4932494949323A4444443A324A4819
:1003D00048303A4141217A3A42402078009DA0A01D
:1003E0007D3D4242423D3D4040403D3C24FF24246F
:1003F000487E4943662B2FFC2F2BFF0929F620C08E
:10040000887E090320545479410000447D413048DE
:10041000484A32384040227A007A0A0A727D0D1921
:10042000317D2629292F28262929292630484D4083
:1004300020380808080808080808382F10C8ACBA7F
:100440002F102834FA00007B000008142A142222FE
:10045000142A14085500550055AA55AA55AAFF5547
:10046000FF55FF000000FF00101010FF00141414CF
:10047000FF001010FF00FF1010F010F0141414FC17
:10048000001414F700FF0000FF00FF1414F404FC34
:10049000141417101F10101F101F1414141F001015
:1004A0001010F0000000001F101010101F1010108E
:1004B00010F010000000FF1010101010101010109D
:1004C000FF10000000FF140000FF00FF00001F10DD
:1004D000170000FC04F414141710171414F404F497
:1004E0000000FF00F714141414141414F700F71488
:1004F0001414171410101F101F141414F4141010D7
:10050000F010F000001F101F0000001F140000007A
:10051000FC140000F010F01010FF10FF141414FF72
:10052000141010101F00000000F010FFFFFFFFFF6D
:10053000F0F0F0F0F0FFFFFF0000000000FFFF0F01
:100540000F0F0F0F3844443844FC4A4A4A347E02A5
:10055000020606027E027E02635549416338444426
:100560003C04407E201E2006027E020299A5E7A5DB
:10057000991C2A492A1C4C7201724C304A4D4D304C
:100580003048784830BC625A463D3E494949007E71
:100590000101017E2A2A2A2A2A44445F4444405108
:1005A0004A444040444A51400000FF0103E080FFBC
:1005B000000008086B6B083612362436060F090F48
:1005C00006000018180000001010003040FF010164
:1005D000001F01011E00191D1712003C3C3C3C008D
:1005E0000000000000002100240027002A002D0048
:1005F0003000330001010000040107010A0100007E
:100600002200250028002B002E00310034000201BA
:100610000000050108010B01000020002300260056
:1006200029002C002F003200000100000301060108
:100630000901050505050705080808080202020268
:100640000A0A08080404040401010101010101016E
:100650000303030303030303040707070C0C0C0C39
:100660000C0C0C0C02020202060606060606060622
:100670000B0B0B0B0B0B0B0B0102102020080810AF
:100680002040102040800201020108040201010202
:1006900004081020408080402010080402018004DB
:1006A0000201804020100804020108040201010236
:1006B000040810204080010204081020408000003F
:1006C0000A0B02090C0D0E080703040100000000CC
:1006D000000000000000000000000000000000001A
:1006E00000000000000000000000121110000000D7
:1006F00000000000000000000000000000000000FA
:1007000000000000EC1811241FBECFEFD1E2DEBFC5
:10071000CDBF00E00CBF1CE0A0E0B2E0E0EDFAE5E8
:1007200000E00BBF02C007900D92A233B107D9F7CA
:100730002EE0A2E3BCE001C01D92A130B207E1F7B8
:1007400013E0C3E8D3E000E006C021970109802F41
:10075000FE010E94462DC238D10780E00807A9F7A4
:100760000E9452190C94662D4BCC2091280D81E0EB
:10077000213208F044C08091040D8111FCCF80919A
:10078000270D92E09093040D91E09093030D9FEF5D
:100790009093020D1092010D2093000DA7E0BDE093
:1007A000E0EEFCE090E0291331C01092DF0C909154
:1007B000DF0C880F892B8093DF0C8091DE0C813059
:1007C00049F51092DE0C8091DF0C8093BB00809184
:1007D000BC0083FDF8CF85EC8093BC008091040DB4
:1007E0008230E1F38091020D8F3FB1F08091020DD4
:1007F0008032A1F08091020D803391F084E010925C
:10080000060D1092280D1092050D08953D9131931B
:100810009F5FC9CF85EEE0CF80E0F1CF82E0EFCFE0
:1008200083E0EDCF28E030E040E8E091F70DF09173
:10083000F80D50819091FE0D909595239083E09155
:10084000F50DF091F60D9091FD0D582F542389F080
:100850005081952B9083E091F70DF091F80D9081E8
:100860005091FE0D952B9083469521503109E9F664
:100870000895508190959523EDCFAF92BF92CF927E
:10088000DF92EF92FF920F931F93CF93DF936C0150
:100890007B018B01040F151FEB015E01AE18BF0831
:1008A000C017D10759F06991D601ED91FC910190E3
:1008B000F081E02DC6011995892B79F7C501DF91EB
:1008C000CF911F910F91FF90EF90DF90CF90BF904D
:1008D000AF900895FC01538D448D252F30E0842F77
:1008E00090E0821B930B541710F0CF960895019758
:1008F0000895FC01918D828D981761F0A28DAE0F45
:10090000BF2FB11D5D968C91928D9F5F9F73928FCB
:1009100090E008958FEF9FEF0895FC01918D828DF7
:10092000981731F0828DE80FF11D858D90E00895C4
:100930008FEF9FEF0895FC01918D228D892F90E01C
:10094000805C9F4F821B91098F739927089589E2DC
:100950009DE0F1DF21E0892B09F420E0822F08954A
:10096000FC01A48DA80FB92FB11DA35ABF4F2C9124
:10097000848D90E001968F739927848FA689B7891B
:100980002C93A089B1898C91837080648C93938D12
:10099000848D981306C00288F389E02D80818F7DB5
:1009A00080830895EF92FF920F931F93CF93DF936D
:1009B000EC0181E0888F9B8D8C8D98131AC0E8899B
:1009C000F989808185FF15C09FB7F894EE89FF896A
:1009D0006083E889F98980818370806480839FBF08
:1009E00081E090E0DF91CF911F910F91FF90EF9008
:1009F0000895F62E0B8D10E00F5F1F4F0F73112718
:100A0000E02E8C8D8E110BC00FB607FCFACFE88953
:100A1000F989808185FFF5CFCE01A2DFF2CFEB8D82
:100A2000EC0FFD2FF11DE35AFF4FF0829FB7F894B2
:100A30000B8FEA89FB8980818062D0CFCF93DF93CF
:100A4000EC01888D8823B1F0AA89BB89E889F989EE
:100A50008C9185FD03C0808186FD0CC00FB607FC1C
:100A6000F7CF8C9185FFF2CF808185FFEDCFCE014E
:100A700077DFEACFDF91CF91089580E090E0892B76
:100A800021F065DF81110E94000080E090E0892B59
:100A900049F080E090E0892B29F00E94000081114C
:100AA0000E94000080E090E0892B49F080E090E017
:100AB000892B29F00E94000081110E94000080E033
:100AC00090E0892B49F080E090E0892B29F00E948A
:100AD000000081110C94000008958150823108F0CB
:100AE0005AC0E82FF0E08827E758FA4F8F4F0C9450
:100AF000462D99059D058B0591059505CB05A0050E
:100B0000A605AA05B005B405B805BE05C205CB0506
:100B1000C605CC05D005809180008F77809380003A
:100B20000895809180008F7DF9CF80918000877F2C
:100B3000F5CF84B58F7784BD089584B58F7DFBCFC5
:100B40008091B0008F778093B00008958091B000BD
:100B50008F7DF9CF809190008F77809390000895DA
:100B6000809190008F7DF9CF80919000877FF5CFA5
:100B70008091A0008F778093A00008958091A000BD
:100B80008F7DF9CF8091A000877FF5CF80912001E4
:100B90008F77809320010895809120018F7DF9CF78
:100BA00080912001877FF5CFCF93DF93282F30E00E
:100BB000F901E254F94F8491F901E858F94FD491C1
:100BC000F901EE5CF94FC491CC2399F0811185DFD6
:100BD000EC2FF0E0EE0FFF1FE85EF94FA591B49106
:100BE000EC91ED2381E090E009F480E0DF91CF917A
:100BF000089580E090E0FACF1F93CF93DF93282FE2
:100C000030E0F901E254F94F8491F901E858F94FC5
:100C1000D491F901EE5CF94FC491CC23A1F0162FC9
:100C200081115BDFEC2FF0E0EE0FFF1FE250FA4F77
:100C3000A591B4918FB7F894EC91111108C0D0959B
:100C4000DE23DC938FBFDF91CF911F910895DE2BC0
:100C5000F8CFCF93DF9390E0FC01E858F94F24914F
:100C60008E5C994FFC0184918823C9F090E0880F35
:100C7000991FFC01EC51FA4FA591B491FC01E2508F
:100C8000FA4FC591D49161110DC09FB7F8948C9122
:100C9000209582238C938881282328839FBFDF910E
:100CA000CF910895623051F49FB7F8943C91822F10
:100CB000809583238C93E8812E2BEFCF8FB7F89408
:100CC000EC912E2B2C938FBFEACF90917B00977FD6
:100CD00090937B008653806480937C0080917A009F
:100CE000806480937A0080917A0086FDFCCF8091A9
:100CF00078009091790008953FB7F8948091A10C05
:100D00009091A20CA091A30CB091A40C26B5A89B25
:100D100005C02F3F19F00196A11DB11D3FBFBA2F8D
:100D2000A92F982F8827BC01CD01620F711D811D4D
:100D3000911D42E0660F771F881F991F4A95D1F7D2
:100D400008958F929F92AF92BF92CF92DF92EF92CF
:100D5000FF924B015C01D0DF6B017C01CDDF6C1990
:100D60007D098E099F09683E734081059105B0F3A6
:100D700021E0821A9108A108B10888EEC80E83E02C
:100D8000D81EE11CF11C81149104A104B10431F7B7
:100D9000FF90EF90DF90CF90BF90AF909F908F909B
:100DA00008952FB7F89460919D0C70919E0C8091DE
:100DB0009F0C9091A00C2FBF08950F931F93CF937A
:100DC000DF93EC018E89823009F453C0833009F43B
:100DD000ACC0813009F05CC0EC81FD81E41BF50BF7
:100DE000AF01421B530B77FD3FC08E819F81681777
:100DF0007907D4F557FF04C0240F351F50E040E0B9
:100E00008C819D81FA01E20FF31F8E179F071CF45E
:100E10009C01241B350B1216130634F5FB0177FDDC
:100E20003796A3E0F595E795AA95E1F7F695FE2F9D
:100E3000EE27F795E795E40FF51FE95EFD4F677024
:100E4000772781E090E001C0880F6A95EAF7482F84
:100E50000130110509F472C008F47CC02E0F3F1F49
:100E60000230110509F483C0DF91CF911F910F91DA
:100E70000895AC81BD81CD01861B970BBC016150EB
:100E80007109EE81FF81E41BF50BAF01421B530B8F
:100E900077FDEACF8C819D81681779072CF757FF82
:100EA00004C0240F351F50E040E08E819F81FA017D
:100EB000E20FF31F8E179F071CF49C01241B350BB8
:100EC000121613068CF6922FA42FA695A695A6951A
:100ED00080E8A89FD0011124A60FB71FA95EBD4FBF
:100EE000477009F457C058E0541B452F652F70E038
:100EF000FB01E15EF94F8081251708F0B0C0621B4D
:100F000071092FEF30E002C0359527956A95E2F719
:100F1000822301301105A9F108F464C002301105E3
:100F200009F0A2CF2C9182272EC0AE81BF81CD01C6
:100F3000861B970BBC016150710955CF2E0F3F1FC7
:100F4000E217F30709F490CF8191DF011197842B09
:100F50008C93F6CF80952E0F3F1FE217F30709F40D
:100F600083CF9191DF01119798239C93F6CFE217DD
:100F7000F30709F479CF8191DF01119784278C93CE
:100F8000F6CF2C91822B8C93941708F46DCF941B81
:100F9000A058BF4F983008F447C00230110531F512
:100FA000FD01892F208120952083E058FF4F885034
:100FB0008830C0F728EF290F26952695269530E032
:100FC0002F5F3F4F3695322F222737952795A20F57
:100FD000B31F977009F448CFE92FF0E0E95EF94FAD
:100FE000808132C080952C918223CDCF81E0013069
:100FF000110509F080E08195FD01292F8083E058DB
:10100000FF4F28502830D0F728EF290F2695269536
:10101000269530E02F5F3F4F3695322F22273795A8
:101020002795A20FB31F9770992309F41DCFE92FBD
:10103000F0E0E95EF94F80810130110541F058F090
:101040000230110509F010CF9C91892702C09C91B4
:10105000892B8C9309CF80959C918923FACF0130FD
:10106000110509F48ECF08F4BDCF0230110509F443
:1010700059CF8DCF0F931F93CF93DF93EC018E89C0
:10108000823009F45EC0833009F4B5C0813009F0C4
:1010900067C0AC81BD81CD01841B950BAC01415073
:1010A000510957FD49C08C819D81481759070CF0A3
:1010B00043C077FF04C0260F371F70E060E08E81C9
:1010C0009F81FB01E20FF31F8E179F071CF49C0109
:1010D000261B370B121613067CF5922FA62FA6950A
:1010E000A695A69580E8A89FD0011124A40FB51F4E
:1010F000A95EBD4F677009F48FC048E0461B642F9E
:1011000070E0FB01E15EF94F8081241708F002C115
:10111000621B71092FEF30E002C0359527956A9563
:10112000E2F782230130110509F46DC008F49CC078
:101130000230110509F4F8C0DF91CF911F910F9192
:101140000895EC81FD81E61BF70BAE81BF81CD01D7
:10115000841B950BAC0141505109BF01621B730BFD
:1011600057FDEACF8E819F81481759072CF777FFEB
:1011700004C0260F371F70E060E08C819D81FB0169
:10118000E20FF31F8E179F071CF49C01261B370BE1
:10119000121613068CF6FA0157FD379693E0F59573
:1011A000E7959A95E1F7F695FE2FEE27F795E795E7
:1011B000E60FF71FE95EFD4F4770552781E090E08D
:1011C00001C0880F4A95EAF7482F0130110509F44C
:1011D00088C008F492C02E0F3F1F0230110509F09D
:1011E000ABCFE217F30709F4A7CF8191DF01119785
:1011F00084278C93F6CFEE81FF81E61BF70BBF01AE
:10120000621B730B4ECF2C91822B8C93941708F496
:1012100093CF941BA058BF4F983008F447C00230BA
:10122000110531F5FD01892F208120952083E0589B
:10123000FF4F88508830C0F728EF290F2695269554
:10124000269530E02F5F3F4F3695322F2227379576
:101250002795A20FB31F977009F46ECFE92FF0E026
:10126000E95EF94F808132C080952C918223CDCFE9
:1012700081E00130110509F080E08195FD01292F01
:101280008083E058FF4F28502830D0F728EF290FEF
:1012900026952695269530E02F5F3F4F3695322FC5
:1012A000222737952795A20FB31F9770992309F42A
:1012B00043CFE92FF0E0E95EF94F8081013011055D
:1012C00041F058F00230110509F036CF9C91892782
:1012D00002C09C91892B8C932FCF80959C91892360
:1012E000FACF2E0F3F1FE217F30709F425CF8191A4
:1012F000DF011197842B8C93F6CF80952E0F3F1F23
:101300002E173F0709F418CF9191DF011197982309
:101310009C93F6CF0130110509F475CF08F4A4CFE2
:101320000230110509F075CF2C9182276ECFDC01B8
:1013300077FD67C018968D919C911997681779076A
:101340000CF05FC057FD5DC01A968D919C911B9764
:10135000481759070CF055C056968C915697823015
:10136000B9F0833041F1813049F414968D919C910C
:10137000841B950BAB01BC01615071092130310513
:1013800021F108F43FC02230310509F458C0089516
:101390001496ED91FC911597E61BF70BBF01615078
:1013A000710916968D919C91FC01E41BF50BAF0120
:1013B00041505109E3CF16968D919C91861B970B56
:1013C000BA01AC0141505109D9CFFA0157FD379606
:1013D000A3E0F595E795AA95E1F7F695FE2FEE27A0
:1013E000F795E795E60FF71FE95EFD4F4770552724
:1013F00021E030E001C0220F4A95EAF78081822B7C
:1014000080830895FA0157FD379623E0F595E79517
:101410002A95E1F7F695FE2FEE27F795E795E60F6B
:10142000F71FE95EFD4F4770552781E090E001C04E
:10143000880F4A95EAF7809590818923E1CFFA01D8
:1014400057FD379683E0F595E7958A95E1F7F69590
:10145000FE2FEE27F795E795E60FF71FE95EFD4FA4
:101460004770552721E030E001C0220F4A95EAF786
:1014700080818227C5CF0895FC016370668B8481CB
:10148000958126813781613039F0633029F0918769
:1014900080873387228708953187208793878287C3
:1014A00008952F923F924F925F926F927F928F9208
:1014B0009F92AF92BF92CF92DF92EF92FF920F93E3
:1014C0001F93CF93DF93CDB7DEB76A970FB6F8942B
:1014D000DEBF0FBECDBF9A8F898F7A8369834A01A1
:1014E000D22E18870F833701BC2CDC0159962D9121
:1014F0003C915A972115310509F015C118968D9127
:101500009C911997681779070CF0D7C11A968D919D
:101510009C91481759070CF0D0C14C2C512CB6E0C7
:10152000CB9E600D711D11247C876B8716161706E4
:101530000CF0C3C1EA2DF0E0FA87E98793E0EE0FE3
:10154000FF1F9A95E1F7F88BEF87CF01840F951F66
:10155000181619060CF0B1C1A98DBA8D58968C9148
:10156000811104C0BFEABD1508F4D394A98DBA8DCA
:10157000ED91FC9111970284F385E02DCD01199531
:10158000B5E0DB9EC0011124E981FA81FC83EB8385
:10159000312C212C9C012C513F4F388F2F8B4A2D01
:1015A00050E05E8B4D8BEF89F88DE20DF31D449179
:1015B0009E828D82D12CC12C69817A81620D731D2E
:1015C0007A8B698B842F90E09C8B8B8BE98DFA8DC5
:1015D000A081B18140FF82C0F1E0BF126FC0AF12A5
:1015E0006DC01C96ED91FC912F813885A4014C0DA6
:1015F0005D1D69897A89898D9A8D1995EB89FC8998
:10160000F595E7954E2F5FEFC51AD50A6D817E815E
:101610008D899E89680F791F7E836D8398E0C91636
:10162000D10481F6AFEF2A1A3A0AEB81FC81E40D6E
:10163000F51DFC83EB83F5E02F16310409F0B3CFE1
:101640002F81388526153705B9F0A98DBA8DED9112
:10165000FC91B1E0BB1257C0AB1255C069817A81D1
:101660006B5F7F4F0088F189E02D830128E030E037
:10167000A401898D9A8D1995A98DBA8DED91FC9152
:1016800011970688F789E02DCD016A960FB6F89478
:10169000DEBF0FBECDBFDF91CF911F910F91FF90A5
:1016A000EF90DF90CF90BF90AF909F908F907F9002
:1016B0006F905F904F903F902F9019941E96ED91F0
:1016C000FC91EF80F88409851A8592014D815E8135
:1016D0006B817C81898D9A8D199590CF2F8138856A
:1016E0002615370509F48ACF31E0B31207C0A312DB
:1016F00005C01C96ED91FC91930178CF1E96ED915B
:10170000FC917301E0CF6B857C85641975090684B3
:10171000F785E02D73010F8518899201A401898D49
:101720009A8D1995A9CFF9013496949132974591E4
:101730005491D91AB7E0DB9E400D511D1124F901D7
:10174000259134913C8B2B8BFA0125903490FA0132
:101750003296749031963491398B329664903196EA
:10176000449041E04C1518F04A1508F07FC0662DF2
:10177000062C000C770B7C836B83842D042C000CCF
:10178000990B9E838D83A98DBA8DED91FC91119754
:101790000284F385E02DCD011995512CD12CC12C5B
:1017A000EA2DF0E0FA87E9872B2D30E03C872B8784
:1017B000A401440D511D47FC5A95588F4F8B6981E8
:1017C0007A81660D711D67FC7A957E876D877989B0
:1017D000C71608F051CF2C2D30E04D815E81420FAD
:1017E000531FA985BA854A9FC0014B9F900D5A9FF0
:1017F000900D1124FC01E80DF91DF88BEF87852D64
:10180000612C4F89588D420F531F5E8B4D8B67148F
:1018100008F050C044244394480E877041F4C1013D
:101820000196EB89FC89E20DF31DD4901C01D7FED3
:1018300019C0A98DBA8DED91FC91662D70E0B1E0D3
:10184000BB1219C0AB1217C02D853E85620F731FE6
:101850000484F585E02D2F8138854D895E89898D39
:101860009A8D1995DD0C6394842DD1CF1E821D8233
:101870001C821B8288CF4B815C81640F751FAB85F6
:10188000BC856A9FC0016B9F900D7A9F900D1124BB
:1018900069817A81680F791F0684F785E02DEF80D2
:1018A000F88409851A859D014F855889898D9A8DFF
:1018B0001995D8CF570CC3948ACF6A960FB6F8946F
:1018C000DEBF0FBECDBFDF91CF911F910F91FF9073
:1018D000EF90DF90CF90BF90AF909F908F907F90D0
:1018E0006F905F904F903F902F9008958F929F92AE
:1018F000AF92CF92EF92FF920F931F93CF93DF930C
:10190000EC01262F898D9A8D009709F050C06A301E
:10191000D1F41D861C868D8948E0849F9001112496
:101920008E859F85820F931F9F878E8781E090E031
:10193000DF91CF911F910F91FF90EF90CF90AF90DB
:101940009F908F9008956D3089F3CC88AD888F89F2
:101950008823C1F08C859D8536E0C39E800D911D46
:101960001124488559854817590764F44E855F85C9
:101970001D861C8638E0A39EC0011124840F951F8C
:101980009F878E87EA88FB88088919894E855F853D
:101990006C857D85CE0185DD2C898C859D8546E015
:1019A000249F800D911D11249D878C87BFCF6A30A5
:1019B00069F41D861C86FC013696E4912D898E857E
:1019C0009F85E29F800D911D1124AECF6D3009F4EB
:1019D000ADCFFC0134963491631708F4A7CF31964C
:1019E000E491E61708F4A2CFFC013296859094901A
:1019F000462F431B342F47E0349F800C911C112449
:101A0000F401329634913196E4913323A1F1EE231F
:101A100091F1CC88F4013596E491AD884F89442347
:101A200001F10E2E000CFF0BE30FF11DCE9EA00165
:101A3000CF9E500D11246C857D85460F571F6885FC
:101A40007985641775076CF44E855F851D861C8645
:101A5000FC013696E491AE9E400D511D11245F8726
:101A60004E87EA88FB88088919894E855F856C85D1
:101A70007D85CE0116DDF4013496E4912C898C85A8
:101A80009D85E29F800D911D11248ECF6F927F92D4
:101A90008F929F92AF92BF92CF92DF92EF92FF927E
:101AA0000F931F93CF93DF93EC016B015A01390120
:101AB0004801E881F9810284F385E02D1995E881D8
:101AC000F9810288F389E02D87019301A501B60110
:101AD000CE011995A501480D591D41505109E881C4
:101AE000F9810288F389E02D9301B601CE011995A1
:101AF000E881F9810088F189E02D9401A501B60102
:101B0000CE011995C60CD71CB60161507109E88148
:101B1000F9810088F189E02D9401A501CE01199584
:101B2000E881F9810688F789E02DCE01DF91CF9118
:101B30001F910F91FF90EF90DF90CF90BF90AF90EB
:101B40009F908F907F906F9019946F927F928F9259
:101B50009F92AF92BF92CF92DF92EF92FF920F933C
:101B60001F93CF93DF935C01EB016A0149013801B8
:101B70008701DC01ED91FC916217730719F564167A
:101B800075062CF0962D872D3A01C92ED82E960178
:101B9000261937092F5F3F4F048CF58DE02DA301E7
:101BA000BE01C5011995DF91CF911F910F91FF9053
:101BB000EF90DF90CF90BF90AF909F908F907F90ED
:101BC0006F9008954615570591F42617370724F0AE
:101BD000892D4B01C22FD82F9E01281939092F5F5B
:101BE0003F4F068CF78DE02DA601B401DACF0284B9
:101BF000F385E02D1995D501ED91FC910488F589C7
:101C0000E02D83019401A601BE01C5011995D501FE
:101C1000ED91FC910688F789E02DC501DF91CF9108
:101C20001F910F91FF90EF90DF90CF90BF90AF90FA
:101C30009F908F907F906F901994EF92FF920F93E7
:101C40001F93DC011A960D911C911B9718962D91EC
:101C50003C911997ED91FC9100A0F1A1E02D7B0141
:101C600050E040E070E060E019951F910F91FF9007
:101C7000EF9008954F925F926F927F928F929F9212
:101C8000AF92BF92CF92DF92EF92FF920F931F938A
:101C9000CF93DF936C012B015A0139014801DC011C
:101CA000ED91FC910284F385E02D1995E201640C1D
:101CB000751CD601ED91FC91C615D7055CF4008822
:101CC000F189E02D87019401A501BE01C601199596
:101CD0002196EFCF0688F789E02DC601DF91CF91DD
:101CE0001F910F91FF90EF90DF90CF90BF90AF903A
:101CF0009F908F907F906F905F904F9019948F92EC
:101D00009F92AF92BF92CF92DF92EF92FF920F938A
:101D10001F93CF93DF93EC015B014A016901E881D6
:101D2000F9810284F385E02D199595012C0D3D1D57
:101D300021503109E881F9810488F589E02D780185
:101D40008401A401B501CE011995E881F9810688C5
:101D5000F789E02DCE01DF91CF911F910F91FF9078
:101D6000EF90DF90CF90BF90AF909F908F9019949D
:101D70008F929F92AF92BF92CF92DF92EF92FF929B
:101D80000F931F93CF93DF93EC015B014A0169012D
:101D90007801E881F9810284F385E02D1995C80C5A
:101DA000D91C860101501109E881F9810488F5895F
:101DB000E02D9501A401B501CE011995E881F981C5
:101DC0000688F789E02DCE01DF91CF911F910F9109
:101DD000FF90EF90DF90CF90BF90AF909F908F904B
:101DE00019940895EF92FF920F931F93DC01ED91E8
:101DF000FC9100A0F1A1E02D19951F910F91FF908A
:101E0000EF9008950F931F93DC01ED91FC91068CE8
:101E1000F78DE02D19951F910F9108950F931F9342
:101E2000DC01ED91FC91048CF58DE02D19951F914D
:101E30000F910895DC01ED91FC910084F185E02D76
:101E400019942F923F924F925F926F927F928F924E
:101E50009F92AF92BF92CF92DF92EF92FF920F9339
:101E60001F93CF93DF9300D000D0CDB7DEB73C01F6
:101E70006A013E832D83FC82EB825801A41AB50AC5
:101E8000B7FE03C0B194A194B1088D809E80861ADC
:101E9000970A97FE03C09194819491088A149B0439
:101EA0005CF0902F812F0D811E819D838E839C2D50
:101EB0008D2D6B01692F782F0C151D055CF09D8110
:101EC0008E817E836D83692F782F902F812F8601DD
:101ED000C92ED82E1601201A310A2B012D813E81E0
:101EE000421A530A57FE03C051944194510871019C
:101EF00037FE03C03FEFE31AF30AF594E7948D81B0
:101F00009E81861797075CF5A1E0B0E0BA83A983AC
:101F1000C016D1064CF1D301ED91FC910484F585F6
:101F2000E02D2B813C81A8016D817E818A149B0468
:101F30001CF04D815E81B801C3011995E418F508C4
:101F4000F7FE0AC02D813E8189819A81280F391FB1
:101F50003E832D83E20CF31C0F5F1F4FD9CF2FEF71
:101F60003FEF3A832983D4CF26960FB6F894DEBF8D
:101F70000FBECDBFDF91CF911F910F91FF90EF90DA
:101F8000DF90CF90BF90AF909F908F907F906F9099
:101F90005F904F903F902F900895089585ED809326
:101FA000BC008091BC0084FDFCCF1092040D08950C
:101FB0002091770C260F3327331F21323105ECF4A3
:101FC0002091040DFC0190E080E0243069F082E073
:101FD0000895A091770C2191AC014B5A534FA40F57
:101FE000B52FB11D2C930196861798F38091770C2D
:101FF000680F6093770C80E0089581E0089508955C
:102000000895E091540C8091530CE81730F4F0E0FF
:10201000ED5CF34F808190E008958FEF9FEF08957E
:102020009091540C8091530C2FEF3FEF981748F488
:10203000E92FF0E0ED5CF34F208130E09F5F90935B
:10204000540CC90108958091530C9091540C891B34
:10205000990B0895CF92DF92EF92FF920F931F9307
:10206000CF93DF937C01CB018A012091050D2223C0
:1020700089F0EB016B01C40ED51ECC15DD0561F0B6
:102080006991D701ED91FC910190F081E02DC7019C
:102090001995F3CF642F8CDFC801DF91CF911F9189
:1020A0000F91FF90EF90DF90CF900895CF93DF9343
:1020B0001F92CDB7DEB769832091050D2223F9F079
:1020C0002091280D203258F021E030E0FC013383CC
:1020D000228390E080E00F90DF91CF91089580916E
:1020E000060DE82FF0E0E95FF24F998190838F5F52
:1020F0008093060D8093280D81E090E0ECCF61E0A5
:10210000CE01019655DFF8CFCF93C82F8091EF0D08
:102110008F3FB1F1E091F90DF091FA0D808190912E
:10212000FF0D892B8083E091FB0DF091FC0D9081D8
:102130008091000E809589238083E091F90DF091C4
:10214000FA0D90818091FF0D809589238083809185
:10215000F40D882389F0CEBD00000DB407FEFDCF3D
:102160008EB5E091F90DF091FA0D80819091FF0DFF
:10217000892B8083CF9108958C2F0E941204F1CF78
:102180008091ED0D91E09093050D8093270D1092B5
:10219000060D1092280D60E086EC9DE087DF6C2F25
:1021A00086EC9DE083DFCF910C94B503DF92EF9234
:1021B000FF920F931F93CF93DF9381E2A5DF80E01F
:1021C000A3DF8FE7A1DF82E29FDF80E09DDF87E072
:1021D0009BDF8091EF0D8F3F09F442C0E091F90D34
:1021E000F091FA0D80819091FF0D892B8083E09111
:1021F000FB0DF091FC0D80819091000E892B808366
:10220000E091F90DF091FA0D90818091FF0D80958C
:1022100089238083C7E1D2E007E116E0899190919C
:10222000F40D9923D1F08EBD00000DB407FEFDCF53
:102230008EB50C171D0791F7E091F90DF091FA0D8D
:1022400080819091FF0D892B8083DF91CF911F9129
:102250000F91FF90EF90DF9008950E941204E9CF54
:102260000091B8008CE08093B800C7E1D2E0DD2493
:10227000D3948091ED0DD092050D8093270D10928F
:10228000060D1092280D60E486EC9DE00FDF7E01C4
:1022900010E1F70161917F0186EC9DE007DF1150AD
:1022A000C1F70E94B5036096F6E0C731DF0709F772
:1022B0000093B800CACF90E080E008958F929F927B
:1022C000AF92BF92CF92DF92EF92FF920E94D1061F
:1022D0006B017C0120E83EEE46E350E00E94022DB7
:1022E00049015A018092A90C9092AA0CA092AB0CC1
:1022F000B092AC0CC701B60120E63AEE40E050E0E7
:102300000E94022D69017A01ACE3B0E0A5019401BD
:102310000E94F82CC61AD70AE80AF90AC092A50C3E
:10232000D092A60CE092A70CF092A80CFF90EF9030
:10233000DF90CF90BF90AF909F908F900895FC0159
:1023400001900020E9F73197AF01481B590BBC0100
:1023500082ED9DE00C943D048F929F92AF92BF92CC
:102360000F931F93CF93DF93CDB7DEB7A1970FB62F
:10237000F894DEBF0FBECDBF19A2423008F44AE088
:102380008E010F5D1F4F842E912CB12CA12CA50125
:1023900094010E94022DE62FB901CA01EA30ECF443
:1023A000E05DD801EE938D01232B242B252B79F7AB
:1023B00090E080E0109711F0CD01C1DFA1960FB63B
:1023C000F894DEBF0FBECDBFDF91CF911F910F916B
:1023D000BF90AF909F908F900895E95CE2CFAFCF10
:1023E000CF93DF93ACDFEC0187E796E0A8DF8C0F9B
:1023F0009D1FDF91CF910895E7E1F2E080E094E046
:10240000DF019C011D9221503040E1F70895CF92E9
:10241000DF92EF92FF92CF93DF936C01990FEE085A
:10242000FF08F7FE17C06DE282ED9DE05FDAEC0178
:1024300066277727CB016C197D098E099F094AE031
:102440008BDF8C0F9D1FDF91CF91FF90EF90DF907E
:10245000CF9008954AE0C701B601DF91CF91FF9078
:10246000EF90DF90CF9078CFCF93DF93D0DFEC0168
:1024700087E796E064DF8C0F9D1FDF91CF91089571
:102480001F93CF93DF93B8DFC2EDDDE081E090E0F2
:102490009B8B8A8B998B888B8AE090E09D878C87B9
:1024A00082E190E09F878E8782E08C8B8D8B80917C
:1024B000C70C9091C80CABDF11E01C8B1D8B8AE719
:1024C00096E08DDF1D861C861F861E8683E896E0BB
:1024D00086DF809113029091140299DF8FE896E0D5
:1024E0007FDF83E996E07BDF8091D70C9091D80C59
:1024F0008EDF8FE896E073DF1D861C8686E290E013
:102500009F878E878091D10C9091D20CADDF1C8B70
:102510001D8B8FE996E063DFDF91CF911F9146CE4F
:102520001F93CF93DF9368DFC2EDDDE081E090E0A1
:102530009B8B8A8B998B888B8AE090E09D878C8718
:1025400082E190E09F878E8782E08C8B8D8B8091DB
:10255000C70C9091C80C5BDF11E01C8B1D8B8AE7C8
:1025600096E03DDF1D861C861F861E8683E896E06A
:1025700036DF809111029091120249DF8FE896E0D8
:102580002FDF83E996E02BDF8091D30C9091D40C60
:102590003EDF8FE896E023DF1D861C8686E290E012
:1025A0009F878E878091D10C9091D20C5DDF1C8B20
:1025B0001D8B8BEA96E013DFDF91CF911F91F6CD53
:1025C000CF93DF934AE0C8DEEC0187E796E0B7DE01
:1025D0008C0F9D1FDF91CF910895CF93DF93682FCC
:1025E00070E090E080E04AE0B7DEEC0187E796E03B
:1025F000A6DE8C0F9D1FDF91CF910895FDDE81E057
:1026000090E09093E50D8093E40D9093E30D80931B
:10261000E20D8AE090E09093DF0D8093DE0D109242
:10262000E10D1092E00D82E08093E60D8093E70DBE
:1026300082EB96E0D4DE81E08093E60D8093E70D97
:102640001092DF0D1092DE0D84E190E09093E10D89
:102650008093E00D8BEB96E0C2DE8091D90C9091D7
:10266000DA0C02DF87EC96E0BADE8091DB0C909109
:10267000DC0CFADE1092DF0D1092DE0D88E290E0A5
:102680009093E10D8093E00D83ED96E0A8DE6091DC
:10269000A90C7091AA0C8091AB0C9091AC0C4AE003
:1026A0005BDE84E198E09BDE6091A50C7091A60C46
:1026B0008091A70C9091A80C83DF8EED96E08FDEC1
:1026C0006091CD0C7091CE0C8091CF0C9091D00C7C
:1026D0004AE042DE6BDD8DE00E94D405892B11F4C7
:1026E0001092DD0C08950E94622D1F93CF93DF930B
:1026F000EC01162F0E94E22C181739F0612FCE0141
:10270000DF91CF911F910C94EA2CDF91CF911F9113
:102710000895CF93DF9386E30E946506EC019093C2
:10272000B70C8093B60C87E30E9465069093C80CA3
:102730008093C70C88E30E9465069093D40C809325
:10274000D30C89E30E9465069093D80C8093D70C34
:102750008091B00C9091B10C8C179D076CF4D093C4
:10276000B10CC093B00C6D2F82E190E0BEDF6091A0
:10277000B60C83E190E0B9DF8091B60C9091B70C74
:102780002091040230910502821793076CF4909314
:10279000050280930402692F84E190E0A6DF609136
:1027A000B60C85E190E0A1DF8091C70C9091C80C38
:1027B0002091AE0C3091AF0C281739076CF4909330
:1027C000AF0C8093AE0C692F86E190E08EDF6091B4
:1027D000AE0C87E190E089DF8091C70C9091C80C26
:1027E0002091020230910302821793076CF49093B8
:1027F000030280930202692F88E190E076DF609106
:10280000020289E190E071DF8091D30C9091D40CA9
:102810002091B40C3091B50C281739076CF49093C3
:10282000B50C8093B40C692F8AE090E05EDF609174
:10283000B40C8BE090E059DF8091D30C9091D40CD4
:102840002091080230910902821793076CF490934B
:10285000090280930802692F8CE090E046DF6091C6
:1028600008028DE090E041DF8091D70C9091D80C68
:102870002091B20C3091B30C281739076CF4909367
:10288000B30C8093B20C692F8EE090E02EDF609144
:10289000B20C8FE090E029DF8091D70C9091D80C9A
:1028A0002091060230910702821793077CF49093DF
:1028B000070280930602692F80E190E016DF6091A5
:1028C000060281E190E0DF91CF910FCFDF91CF91B0
:1028D00008950C94E22CCF93E091390DF0913A0DCC
:1028E00092E09083E091350DF091360D1082E091E9
:1028F000370DF091380D8FEC80831092410DE091EF
:102900003D0DF0913E0D86E08083E0913B0DF0910E
:102910003C0D808180618083E0913B0DF0913C0D06
:10292000808188608083E0913B0DF0913C0D808137
:1029300080688083E0913B0DF0913C0D80818F7D1C
:1029400080839093EE0D8CE38093ED0D8091EF0DDD
:102950008F3F09F43FC261E08091F10D0E9429068A
:1029600061E08091F30D0E9429068091F30D082EFD
:10297000000C990BFC01EE5CF94FE491F0E0EE0FD6
:10298000FF1FE250FA4F259134913093FA0D2093B6
:10299000F90DFC01E858F94FE491E093FF0D8091A7
:1029A000F10D082E000C990BFC01EE5CF94FE4913F
:1029B000F0E0EE0FFF1FE250FA4F25913491309373
:1029C000FC0D2093FB0DFC01E858F94FE491E093D6
:1029D000000E8091F40D81113EC061E08091EF0DF9
:1029E0000E94290661E08091F00D0E9429068091E5
:1029F000F00D082E000C990BFC01EE5CF94FE491F0
:102A0000F0E0EE0FFF1FE250FA4F25913491309322
:102A1000F80D2093F70DFC01E858F94FE491E0938D
:102A2000FE0D8091EF0D082E000C990BFC01EE5C61
:102A3000F94FE491F0E0EE0FFF1FE250FA4F2591BD
:102A400034913093F60D2093F50DFC01E858F94FC1
:102A5000E491E093FD0D8091F40D882309F437C0D3
:102A6000CFB7F8948091320C811127C0E7E6F6E0E9
:102A70008491EDEAF6E09491E82FF0E0EE0FFF1F6D
:102A8000EC51FA4FA591B491EC91E92321F461E066
:102A900085E30E94FC0561E085E30E9429068CB570
:102AA00080618CBD8CB580648CBD61E084E30E9444
:102AB000290661E083E30E9429068091320C8F5F32
:102AC0008093320CCFBF80E58CBD81E08DBD8091BD
:102AD000F20D87FD1EC061E00E94290661E0809131
:102AE000F20D0E94FC0561E070E080E090E00E9441
:102AF000A10660E08091F20D0E94FC056AE070E0A2
:102B000080E090E00E94A10661E08091F20D0E94B9
:102B1000FC058EEAF9DA85EDF7DA80E8F5DA88EA7D
:102B2000F3DA8FE3F1DA83EDEFDA80E0EDDA80E4D7
:102B3000EBDA8DE8E9DA84E1E7DA80E2E5DA80E0F1
:102B4000E3DA81EAE1DA88ECDFDA8AEDDDDA82E1E4
:102B5000DBDA81E8D9DA8FECD7DA89EDD5DA81EFE3
:102B6000D3DA8BEDD1DA80E4CFDA84EACDDA86EA03
:102B7000CBDA8EE2C9DA8FEAC7DA61E082E00E943E
:102B8000290661E083E00E94290661E084E00E945A
:102B9000290661E085E00E94290661E086E00E9446
:102BA000290660E088E00E94290660E089E00E9432
:102BB000290662E08CE00E94290662E08DE00E9416
:102BC000290662E08AE00E94290662E08BE00E940A
:102BD000290661E082E00E94FC0561E083E00E943A
:102BE000FC0561E084E00E94FC0561E085E00E9454
:102BF000FC0561E086E00E94FC05FEDB82E080933C
:102C0000E60D8093E70D81E090E09093E50D8093D1
:102C1000E40D9093E30D8093E20D1092DF0D10927E
:102C2000DE0D1092E10D1092E00D8AEE96E0D7DBFA
:102C300081E08093E60D8093E70D1092DF0D1092F6
:102C4000DE0D89E190E09093E10D8093E00D83EF3C
:102C500096E0C6DB1092DF0D1092DE0D88E290E068
:102C60009093E10D8093E00D86E097E0B8DB109241
:102C7000DF0D1092DE0D84E390E09093E10D8093E0
:102C8000E00D8CE197E0ABDB91DA60EA7FE080E079
:102C900090E00E94A10690E080E01BDEC82F81E05A
:102CA00090E017DE9C2F909312028093110283E034
:102CB00090E00FDE90E090930B0280930A0285E093
:102CC00090E007DEC82F86E090E003DE9C2F909313
:102CD00014028093130288E090E0FBDD90E0909373
:102CE0000D0280930C028AE090E0F3DDC82F8BE0A8
:102CF00090E0EFDD9C2F9093B50C8093B40C8CE0AA
:102D000090E0E7DDC82F8DE090E0E3DD9C2F90930D
:102D10000902809308028EE090E0DBDDC82F8FE08F
:102D200090E0D7DD9C2F9093B30C8093B20C80E1A0
:102D300090E0CFDDC82F81E190E0CBDD9C2F909318
:102D400007028093060282E190E0C3DDC82F83E191
:102D500090E0BFDD9C2F9093B10C8093B00C84E188
:102D600090E0B7DDC82F85E190E0B3DD9C2F909314
:102D700005028093040286E190E0ABDDC82F87E175
:102D800090E0A7DD9C2F9093AF0C8093AE0C88E170
:102D900090E09FDDC82F89E190E09BDD9C2F909310
:102DA0000302809302028AE190E093DDC82F8BE159
:102DB00090E08FDD9C2F90930F0280930E028CE1A8
:102DC00090E087DD91E0811101C090E090931002C6
:102DD000CF9108951092540C1092530C1092060D3E
:102DE0001092280D1092040D81E08093030D109233
:102DF000DE0C61E084E10E94FC0561E085E10E9457
:102E0000FC058091B9008E7F8093B9008091B90054
:102E10008D7F8093B90088E48093B80085E4809327
:102E2000BC008FEF9FE09093760C8093750C80E050
:102E300090E190937A0C8093790C49CE1F920F9277
:102E40000FB60F9211240BB60F922F933F934F930F
:102E50005F936F937F938F939F93AF93BF93EF9302
:102E6000FF9389E29DE00E94B004FF91EF91BF9132
:102E7000AF919F918F917F916F915F914F913F9112
:102E80002F910F900BBE0F900FBE0F901F901895B3
:102E90001F920F920FB60F9211240BB60F922F9321
:102EA0008F939F93EF93FF93E091390DF0913A0D3B
:102EB0008081E0913F0DF091400D82FD1DC0908119
:102EC0008091420D8F5F8F732091430D821741F0E7
:102ED000E091420DF0E0E75DF24F958F8093420D57
:102EE000FF91EF919F918F912F910F900BBE0F90BB
:102EF0000FBE0F901F9018958081F2CF1F920F92F6
:102F00000FB60F9211242F933F938F939F93AF93FC
:102F1000BF9380919D0C90919E0CA0919F0CB091BD
:102F2000A00C30919C0C23E0230F2D3758F501960F
:102F3000A11DB11D20939C0C80939D0C90939E0C21
:102F4000A0939F0CB093A00C8091A10C9091A20C27
:102F5000A091A30CB091A40C0196A11DB11D80936A
:102F6000A10C9093A20CA093A30CB093A40CBF91BE
:102F7000AF919F918F913F912F910F900FBE0F9026
:102F80001F90189526E8230F0296A11DB11DD2CFE0
:102F90001F920F920FB60F9211240BB60F922F9320
:102FA0003F934F935F936F937F938F939F93AF93D1
:102FB000BF93EF93FF938091B900887F803609F427
:102FC0004DC008F040C0883209F4A9C028F580310E
:102FD00009F49DC0C8F4882309F4FBC0883009F4C3
:102FE00096C0FF91EF91BF91AF919F918F917F918B
:102FF0006F915F914F913F912F910F900BBE0F906A
:103000000FBE0F901F901895883109F488C0803248
:1030100041F78093020D14C0803409F49DC040F440
:103020008033B9F38833E9F68093020D85ECB0C0A4
:10303000803509F485C0883509F496C0883489F64E
:103040000E94CE0FCECF883909F48CC038F588376E
:1030500029F050F4883611F0803719F683E0809318
:10306000040D10929B0C57C0883809F47BC080393E
:1030700019F0803809F0B5CF80919B0C803208F0B0
:1030800071C0E0919B0C81E08E0F80939B0C80912E
:10309000BB00F0E0E558F34F80833DC0803B39F042
:1030A000E0F4803A09F479C0883A09F09ACF84E0D4
:1030B0008093040D1092780C1092770CE091750CAF
:1030C000F091760C19958091770C81110FC081E0F9
:1030D0008093770C1092550C09C0803C09F4A6CF60
:1030E000883C09F4A3CF883B09F07BCFE091780CB2
:1030F00081E08E0F8093780CF0E0EB5AF34F8081E3
:103100008093BB009091780C8091770C29C08091BE
:10311000DF0C8093BB0085EC8093BC0062CF909164
:10312000010D8091000D981758F5E091010D81E097
:103130008E0F8093010DF0E0E052F34F8081E9CFD4
:10314000E091010D81E08E0F8093010D8091BB0015
:10315000F0E0E052F34F80839091010D8091000DDB
:103160009817C8F285E8D8CFE091010D81E08E0F65
:103170008093010D8091BB00F0E0E052F34F80831B
:103180008091030D81115CCF81E08093DE0C84EA95
:103190008093BC001092040D24CF85EC8093BC007A
:1031A0001092040D80919B0C803230F4E0919B0CC6
:1031B000F0E0E558F34F108260919B0C70E0E091D5
:1031C000790CF0917A0C8BE79CE0199510929B0C8E
:1031D00008CF1092020D34CFE9E2FDE01382128293
:1031E00088EE93E0A0E0B0E084839583A683B78364
:1031F0002BE236E03183208325EC30E035872487CD
:1032000024EC30E03787268720EC30E0318B208BB0
:1032100021EC30E0338B228B22EC30E0358B248B99
:1032200026EC30E0378B268B118E128E138E148E87
:10323000E6ECFDE01382128284839583A683B78334
:103240008DE396E091838083E2EDFDE013821282AC
:1032500020E830E03583248380E490E09783868300
:103260003187208793878287168A1586148617866A
:10327000168681E0858B848B2FEF3FEF338B228B7B
:10328000318B208B878B108E128E118E8FE496E0FF
:10329000918380838FEF858F81A3878F868F84E0D2
:1032A00080A30895CF93DF9300D000D01F921F9288
:1032B000CDB7DEB7789484B5826084BD84B5816073
:1032C00084BD85B5826085BD85B5816085BD8091F1
:1032D0006E00816080936E00109281008091810069
:1032E0008260809381008091810081608093810061
:1032F000809180008160809380008091B100846023
:103300008093B1008091B00081608093B000809183
:103310009100826080939100809191008160809300
:103320009100809190008160809390008091A10035
:1033300082608093A1008091A10081608093A100B0
:103340008091A00081608093A00080912101826023
:1033500080932101809121018160809321018091DE
:10336000200181608093200180917A0084608093A5
:103370007A0080917A00826080937A0080917A004E
:10338000816080937A0080917A00806880937A00CF
:103390001092C100A0DA6CEB72E080E090E00E9435
:1033A000A106B7D98091DD0C882321F027D90E948E
:1033B0003D05F1CF88E00E94D40598878F839093D4
:1033C000DC0C8093DB0C89E00E94D4058C01909387
:1033D000DA0C8093D90C0E945E110130110521F0A6
:1033E0008F819885019719F481E08093DD0C80919D
:1033F000DD0C8111DBCF80911502909116028D3D7D
:1034000095400CF44BC12091D70C3091D80C809191
:10341000130290911402821793070CF0DDC480917F
:10342000D50C9091D60C01969093D60C8093D50C28
:1034300010921602109215021092D20C1092D10C1A
:103440008091CD0C9091CE0CA091CF0CB091D00C6E
:103450000196A11DB11D8093CD0C9093CE0CA0932D
:10346000CF0CB093D00C8091C90C9091CA0CA09154
:10347000CB0CB091CC0C0196A11DB11D8093C90C51
:103480009093CA0CA093CB0CB093CC0C0E9440122A
:1034900061E082E00E94FC0561E083E00E94FC059F
:1034A00061E084E00E94FC0561E085E00E94FC058B
:1034B00061E086E00E94FC0560E085E00E94FC057A
:1034C00083E390E098878F8324D90E94401264E6BA
:1034D00070E080E090E00E94A1068F8198850197BE
:1034E00098878F83892B81F760E084E00E94FC0538
:1034F00085E690E098878F830CD90E94401264E69D
:1035000070E080E090E00E94A1068F81988501978D
:1035100098878F83892B81F760E083E00E94FC0508
:1035200083E390E098878F83F4D80E94401264E68A
:1035300070E080E090E00E94A1068F81988501975D
:1035400098878F83892B81F760E082E00E94FC05D9
:1035500011E088E00E94D40598878F839093DC0C5B
:103560008093DB0C89E00E94D4059093DA0C809361
:10357000D90C019721F08F819885019711F4109350
:10358000DD0C8091D10C9091D20C01969093D20CCD
:103590008093D10CBED82091C70C3091C80C80917B
:1035A0000E0290910F02821793075CF41093C60CE1
:1035B0008091C40C9091C50C01969093C50C80939A
:1035C000C40C0E94401264EF71E080E090E00E9421
:1035D000A106809113029091140220910C02309167
:1035E0000D02821B930B4091D70C5091D80C209167
:1035F000D10C3091D20C84179507A4F42C3D95E0A2
:10360000390784F48091DD0C81110CC040910E02C9
:1036100050910F028091C70C9091C80C84179507A8
:103620000CF497CF3093C30C2093C20C61E082E07E
:103630000E94FC0585E690E098878F836AD80E94F7
:10364000401264E670E080E090E00E94A1068F8165
:103650009885019798878F83892B81F761E083E0B4
:103660000E94FC0561E085E00E94FC0585E690E093
:1036700098878F834ED80E94401264E670E080E005
:1036800090E00E94A1068F819885019798878F838B
:10369000892B81F761E084E00E94FC058CE00E94A8
:1036A000D405892B09F0A3C20E94D10660547B4245
:1036B0008E4F9F4F6093B80C7093B90C8093BA0CE7
:1036C0009093BB0C64EF71E080E090E00E94A10653
:1036D00022242394312C0E94FC1181E090E09093ED
:1036E000E50D8093E40D9093E30D8093E20D10922D
:1036F000DF0D1092DE0D1092E10D1092E00D80931F
:10370000E60D8093E70D8BE297E00E94EF11109297
:10371000DF0D1092DE0D8CE090E09093E10D809330
:10372000E00D80E497E00E94EF111092DF0D1092FF
:10373000DE0D86E190E09093E10D8093E00D8FE443
:1037400097E00E94EF111092DF0D1092DE0D80E2E3
:1037500090E09093E10D8093E00D8EE597E00E945C
:10376000EF111092DF0D1092DE0D8AE290E090933F
:10377000E10D8093E00D8DE697E00E94EF1110922D
:10378000DF0D1092DE0D84E390E09093E10D8093C5
:10379000E00D8CE797E00E94EF110E94D6108BE0BD
:1037A0000E94D405892B19F49FEF291A390A8AE05F
:1037B0000E94D405892B11F00C94572B21E0221A7A
:1037C000310819F425E0222E312C81E08093E60D9A
:1037D0008093E70D8AE590E09093DF0D8093DE0DF6
:1037E0002AE0229DC001239D900D11240296909302
:1037F000E10D8093E00D8BE897E00E94F0110E94AC
:10380000D6108DE00E94D405892B09F0D5C141E086
:103810002416310409F081C70E94D10660547B420E
:103820008E4F9F4F6093B80C7093B90C8093BA0C75
:103830009093BB0C64EF71E080E090E00E94A106E1
:1038400001E010E0EE24E394F12CF4E3CF2ED12C30
:10385000A4E14A2E512CBAE06B2E712C8FE0882EF9
:10386000912C0E94FC11F092E50DE092E40DF09293
:10387000E30DE092E20D1092DF0D1092DE0D10923A
:10388000E10D1092E00D81E08093E60D8093E70D4D
:103890008FE897E00E94EF111092DF0D1092DE0D7D
:1038A0008CE090E09093E10D8093E00D84EA97E046
:1038B0000E94EF111092DF0D1092DE0D86E190E074
:1038C0009093E10D8093E00D84EB97E00E94EF115F
:1038D0001092DF0D1092DE0D80E290E09093E10DEA
:1038E0008093E00D84EC97E00E94EF111092DF0DC1
:1038F0001092DE0D8AE290E09093E10D8093E00D4E
:1039000084ED97E00E94EF111092DF0D1092DE0D12
:10391000D092E10DC092E00D84EE97E00E94EF118D
:103920000E94D6108BE00E94D405892B11F40F5F02
:103930001F4F8AE00E94D405892B11F00C94622B52
:103940000150110911F405E010E091E09093E60DAB
:103950009093E70D8DE590E09093DF0D8093DE0D61
:103960002AE0209FC001219F900D11240296909380
:10397000E10D8093E00D8BE897E00E94F0110E942A
:10398000D6108DE00E94D405892B09F0FAC00130D1
:10399000110509F052C30E94D10660547B428E4F3C
:1039A0009F4F6093B80C7093B90C8093BA0C9093AE
:1039B000BB0C64EF71E080E090E00E94A1067EE124
:1039C000A72EB12C0E94FC11F092E50DE092E40DBF
:1039D000F092E30DE092E20D1092DF0D1092DE0DF9
:1039E0001092E10D1092E00D91E09093E60D90930E
:1039F000E70D84EF97E00E94F0110E94D6108AE054
:103A00000E94D405892B49F48091110290911202F1
:103A1000019690931202809311028BE00E94D405CC
:103A2000892B49F480911102909112020197909391
:103A300012028093110221E02093E60D2093E70DFE
:103A40001092DF0D1092DE0D9092E10D8092E00D4C
:103A500088E098E00E94F0111092DF0D1092DE0DC8
:103A6000B092E10DA092E00D86E198E00E94EF1186
:103A700042E04093E60D4093E70D80911102909152
:103A800012020E94071281E08093E60D8093E70DF9
:103A900080E996E00E94F0111092DF0D1092DE0D89
:103AA000D092E10DC092E00D8DE198E00E94EF11FF
:103AB0008091D30C9091D40C0E94071280E996E07B
:103AC0000E94EF110E94D61068EC70E080E090E058
:103AD0000E94A1068CE00E94D405019781F40E9407
:103AE000D1062091B80C3091B90C4091BA0C50918C
:103AF000BB0C621773078407950708F463CF0E9415
:103B0000FC111092DF0D1092DE0D1092E10D10925B
:103B1000E00D8EE298E00E94F01185E498E00E94AA
:103B2000EF11909111029F83892F0E94ED1280E581
:103B300098E00E94EF11B09012028B2D0E94ED12BE
:103B40008BE598E00E94EF11BA82198269817A812F
:103B50002F81622B90E080E04AE00E94AC110E942D
:103B6000D6106B2D90E080E00E9475136F8181E08C
:103B700090E00E94751368EC70E080E090E00E9495
:103B8000A10668EC70E080E090E00E94A1068CE065
:103B90000E94D405019781F40E94D1062091B80CAF
:103BA0003091B90C4091BA0C5091BB0C621773075D
:103BB0008407950708F455CE68EC70E080E090E04B
:103BC0000E94A1068CE00E94D405019781F40E9416
:103BD000D1060091B80C1091B90C2091BA0C30911B
:103BE000BB0C601771078207930708F474CD8091AE
:103BF000100261E0811101C060E086E00E94FC05D6
:103C00000E94FC118AE090E09093DF0D8093DE0D1E
:103C10001092E10D1092E00D89E796E00E94F011FC
:103C200081E08093E60D8093E70D1092DF0D1092F6
:103C3000DE0D8AE090E09093E10D8093E00D83EF3C
:103C40009BE00E94EF118091C70C9091C80C0E94DC
:103C5000071282EE99E00E94EF11809110028823F2
:103C600011F40C94452B8CEF9BE00E94EF11109205
:103C7000DF0D1092DE0D1092E10D1092E00D8EE03E
:103C80009CE00E94EF118091B60C9091B70C0E94BD
:103C900007128FE896E00E94EF111092DF0D10924C
:103CA000DE0D86E190E09093E10D8093E00D8CE1D4
:103CB0009CE00E94EF110E945E116091A90C70912E
:103CC000AA0C8091AB0C9091AC0C4AE00E94AC1114
:103CD00084E198E00E94EF116091A50C7091A60C10
:103CE0008091A70C9091A80C6A307105810591050F
:103CF00010F40C94492B0E94E01287E29CE00E9491
:103D0000EF1120911502309116028DED95E0821B86
:103D1000930B0E94071284EC99E00E94EF116091CE
:103D2000CD0C7091CE0C8091CF0C9091D00C0E9454
:103D3000E0121092DF0D1092DE0D8AE290E0909377
:103D4000E10D8093E00D81E09AE00E94EF118091F7
:103D5000D30C9091D40C0E94071280E996E00E9447
:103D6000EF1186E198E00E94EF118091110290918D
:103D700012020E94071280E996E00E94F01180E191
:103D80009AE00E94EF118091D70C9091D80C0E947C
:103D9000071280E996E00E94EF1186E198E00E9408
:103DA000EF1180911302909114020E94071280E992
:103DB00096E00E94EF110E94D6108091150290911A
:103DC00016028D3D25E092070CF0F1CA0196909302
:103DD000160280931502EBCA2091D30C3091D40CBB
:103DE0008091110290911202821793070CF056CC29
:103DF0008091D50C9091D60C01969093D60C80931F
:103E0000D50C10921602109215021092D20C10923C
:103E1000D10C8091CD0C9091CE0CA091CF0CB09193
:103E2000D00C0196A11DB11D8093CD0C9093CE0CAA
:103E3000A093CF0CB093D00C8091BE0C9091BF0C8E
:103E4000A091C00CB091C10C0196A11DB11D809331
:103E5000BE0C9093BF0CA093C00CB093C10C0E94F9
:103E6000901261E082E00E94FC0561E083E00E9424
:103E7000FC0561E084E00E94FC0561E085E00E94B1
:103E8000FC0561E086E00E94FC0560E084E00E94A1
:103E9000FC0585E690E098878F830E9489130E9435
:103EA000901264E670E080E090E00E94A1068F81AD
:103EB0009885019798878F83892B79F760E083E055
:103EC0000E94FC0583E390E098878F830E9489130A
:103ED0000E94901264E670E080E090E00E94A106EB
:103EE0008F819885019798878F83892B79F760E078
:103EF00082E00E94FC0511E088E00E94D4059887CA
:103F00008F839093DC0C8093DB0C89E00E94D405B6
:103F10009093DA0C8093D90C019721F08F819885CA
:103F2000019711F41093DD0C0E9489132091C70CA6
:103F30003091C80C80910E0290910F028217930766
:103F40005CF41093C60C8091C40C9091C50C019642
:103F50009093C50C8093C40C8091D10C9091D20C9D
:103F600001969093D20C8093D10C0E94901264EF32
:103F700071E080E090E00E94A10680911102909192
:103F8000120220910A0230910B02821B930B409186
:103F9000D30C5091D40C2091D10C3091D20C8417B9
:103FA0009507A4F42C3D95E0390784F48091DD0C4D
:103FB00081110CC040910E0250910F028091C70CEC
:103FC0009091C80C841795070CF496CF3093BD0CD4
:103FD0002093BC0C61E082E00E94FC0583E390E04A
:103FE00098878F830E9489130E94901264E670E084
:103FF00080E090E00E94A1068F81988501979887C4
:104000008F83892B79F761E083E00E94FC0589ECBE
:1040100090E098878F830E9489130E94901264E633
:1040200070E080E090E00E94A1068F819885019762
:1040300098878F83892B79F72DCB0230110509F0F2
:10404000D2C00E94D10660547B428E4F9F4F609336
:10405000B80C7093B90C8093BA0C9093BB0C64EFBE
:1040600071E080E090E00E94A1066EE1A62EB12CE6
:104070000E94FC11F092E50DE092E40DF092E30D48
:10408000E092E20D1092DF0D1092DE0D1092E10D24
:104090001092E00D41E04093E60D4093E70D83E67A
:1040A00098E00E94F0110E94D6108AE00E94D40588
:1040B000892B49F480910A0290910B02019690930A
:1040C0000B0280930A028BE00E94D405892B49F4ED
:1040D00080910A0290910B02019790930B028093BA
:1040E0000A0281E08093E60D8093E70D1092DF0DC8
:1040F0001092DE0D9092E10D8092E00D87E798E03E
:104100000E94F0111092DF0D1092DE0DB092E10DC1
:10411000A092E00D86E198E00E94EF1192E090936A
:10412000E60D9093E70D80910A0290910B020E9498
:10413000071221E02093E60D2093E70D89E898E02F
:104140000E94F0111092DF0D1092DE0DD092E10D61
:10415000C092E00D8DE198E00E94EF118091D30CA8
:104160009091D40C0E94071280E996E00E94EF1112
:104170000E94D61068EC70E080E090E00E94A106FA
:104180008CE00E94D405019781F40E94D106209111
:10419000B80C3091B90C4091BA0C5091BB0C62171D
:1041A00073078407950708F463CF0E94FC111092EF
:1041B000DF0D1092DE0D1092E10D1092E00D81E9FD
:1041C00098E00E94F01183EA98E00E94EF1140917C
:1041D0000A024F83842F0E94ED120E94D6106F8135
:1041E00088E090E0C6CC0330110509F0EEC00E94D3
:1041F000D10660547B428E4F9F4F6093B80C7093F2
:10420000B90C8093BA0C9093BB0C64EF71E080E022
:1042100090E00E94A1065EE1A52EB12C0E94FC1147
:10422000F092E50DE092E40DF092E30DE092E20DE4
:104230001092DF0D1092DE0D1092E10D1092E00D44
:1042400081E08093E60D8093E70D8EEA98E00E946E
:10425000F0110E94D6108AE00E94D405892B49F4FF
:10426000809113029091140201969093140280930E
:1042700013028BE00E94D405892B49F4809113022C
:10428000909114020197909314028093130291E08D
:104290009093E60D9093E70D1092DF0D1092DE0DD6
:1042A0009092E10D8092E00D84EC98E00E94F01174
:1042B0001092DF0D1092DE0DB092E10DA092E00D94
:1042C00086E198E00E94EF1122E02093E60D209312
:1042D000E70D80911302909114020E94071241E0B1
:1042E0004093E60D4093E70D80E996E00E94F011BF
:1042F0001092DF0D1092DE0DD092E10DC092E00D14
:104300008DE198E00E94EF118091D70C9091D80C2C
:104310000E94071280E996E00E94EF110E94D610D9
:1043200068EC70E080E090E00E94A1068CE00E94C2
:10433000D405019781F40E94D1062091B80C3091E8
:10434000B90C4091BA0C5091BB0C621773078407EB
:10435000950708F463CF0E94FC111092DF0D1092B4
:10436000DE0D1092E10D1092E00D85ED98E00E94B7
:10437000F0118CEE98E00E94EF11809113028F8370
:104380000E94ED1287EF98E00E94EF11B0901402A6
:104390008B2D0E94ED128BE598E00E94EF11BC82FC
:1043A0001B826B817C819F81692B90E080E04AE0D9
:1043B0000E94AC110E94D6106B2D85E090E00E9407
:1043C00075136F8186E090E0D4CB0430110509F0BD
:1043D000D2C00E94D10660547B428E4F9F4F6093A3
:1043E000B80C7093B90C8093BA0C9093BB0C64EF2B
:1043F00071E080E090E00E94A1064EE1A42EB12C75
:104400000E94FC11F092E50DE092E40DF092E30DB4
:10441000E092E20D1092DF0D1092DE0D1092E10D90
:104420001092E00D21E02093E60D2093E70D82E04D
:1044300099E00E94F0110E94D6108AE00E94D405F3
:10444000892B49F480910C0290910D020196909372
:104450000D0280930C028BE00E94D405892B49F455
:1044600080910C0290910D02019790930D02809320
:104470000C0241E04093E60D4093E70D1092DF0DF2
:104480001092DE0D9092E10D8092E00D88E199E0AE
:104490000E94F0111092DF0D1092DE0DB092E10D2E
:1044A000A092E00D86E198E00E94EF1182E08093F7
:1044B000E60D8093E70D80910C0290910D020E9411
:1044C000071291E09093E60D9093E70D89E898E04C
:1044D0000E94F0111092DF0D1092DE0DD092E10DCE
:1044E000C092E00D8DE198E00E94EF118091D70C11
:1044F0009091D80C0E94071280E996E00E94EF117B
:104500000E94D61068EC70E080E090E00E94A10666
:104510008CE00E94D405019781F40E94D10620917D
:10452000B80C3091B90C4091BA0C5091BB0C621789
:1045300073078407950708F463CF0E94FC1110925B
:10454000DF0D1092DE0D1092E10D1092E00D8EE263
:1045500099E00E94F01180E499E00E94EF1120910F
:104560000C022F83822F0E94ED120E94D6106F81C1
:1045700083E090E0FECA0530110509F002CB0E94ED
:10458000D10660547B428E4F9F4F6093B80C70935E
:10459000B90C8093BA0C9093BB0C64EF71E080E08F
:1045A00090E00E94A1060E94FC11F092E50DE092BD
:1045B000E40DF092E30DE092E20D1092DF0D109207
:1045C000DE0D85E090E09093E10D8093E00D91E0A9
:1045D0009093E60D9093E70D8BE499E00E94F01123
:1045E0008AE00E94D405892B19F421E0209310025F
:1045F0008BE00E94D405892B11F41092100241E047
:104600004093E60D4093E70D1092DF0D1092DE0D02
:104610005092E10D4092E00D8DE599E00E94EF117E
:104620007092DF0D6092DE0D83E290E09093E10DD9
:104630008093E00D92E09093E60D9093E70D8091CA
:104640001002882309F455C08EEF9BE00E94EF1101
:1046500021E02093E60D2093E70D7092DF0D60922C
:10466000DE0DD092E10DC092E00D8CE699E00E9443
:10467000EF110E94D61068EC70E080E090E00E949C
:10468000A1068CE00E94D405019781F40E94D10616
:104690002091B80C3091B90C4091BA0C5091BB0CE0
:1046A000621773078407950708F47DCF0E94FC11F9
:1046B0001092DF0D1092DE0D1092E10D1092E00DC0
:1046C00086E899E00E94F01189E999E00E94EF11D3
:1046D000809110028F830E94ED120E94D6106F818C
:1046E0008CE190E00E94751360ED77E080E090E04F
:1046F00046CA87E09CE00E94EF1141E04093E60D3E
:104700004093E70D7092DF0D6092DE0DD092E10DC7
:10471000C092E00D89E799E0AACF92E02916310412
:1047200009F076C10E94D10660547B428E4F9F4FA4
:104730006093B80C7093B90C8093BA0C9093BB0C37
:1047400061E082E00E94FC0561E083E00E94FC05DC
:1047500061E084E00E94FC0561E085E00E94FC05C8
:1047600061E086E00E94FC0564EF71E080E090E08B
:104770000E94A106512C612C712C1F8201E010E0D7
:1047800086E1E82EF12C90E2C92ED12C2AE2A22E4D
:10479000B12C37E3832E912C0E94FC111093E50D70
:1047A0000093E40D1093E30D0093E20D1092DF0DE2
:1047B0001092DE0D1092E10D1092E00D21E0209399
:1047C000E60D2093E70D85EA99E00E94EF11109223
:1047D000DF0D1092DE0D8CE090E09093E10D809360
:1047E000E00D86EB99E00E94EF119F81992309F477
:1047F000E1C060E084E00E94FC058BEB99E00E9440
:10480000EF111092DF0D1092DE0DF092E10DE092AB
:10481000E00D87EC99E00E94EF11772009F4D1C0F8
:1048200060E086E00E94FC058BEB99E00E94EF11AE
:104830001092DF0D1092DE0DD092E10DC092E00DCE
:104840008CEC99E00E94EF11662009F4C1C060E091
:1048500083E00E94FC058BEB99E00E94EF1110921F
:10486000DF0D1092DE0DB092E10DA092E00D81ED12
:1048700099E00E94EF11552009F4B1C060E085E095
:104880000E94FC058BEB99E00E94EF110E94D6106C
:104890008BE00E94D405892B49F48091000290910D
:1048A0000102019690930102809300028AE00E9427
:1048B000D405892B49F4809100029091010201975F
:1048C0009093010280930002809100029091010276
:1048D0001816190634F084E090E09093010280935A
:1048E00000028091000290910102059724F010933C
:1048F00001020093000291E09093E60D9093E70D82
:1049000020910002309101024AE0429FC001439F82
:10491000900D112402969092DF0D8092DE0D9093FF
:10492000E10D8093E00D8BE897E00E94F0118DE09F
:104930000E94D405892B61F48091000290910102BC
:104940008130910509F052C02F8141E024272F8347
:104950000E94D61068EC70E080E090E00E94A10612
:104960008CE00E94D405019781F40E94D106209129
:10497000B80C3091B90C4091BA0C5091BB0C621735
:1049800073078407950708F407CF61E082E00E946F
:10499000FC0561E083E00E94FC0561E084E00E9488
:1049A000FC0561E085E00E94FC0561E086E00E9474
:1049B000FC0502C961E084E00E94FC0581EC99E0FD
:1049C0001ECF61E086E00E94FC0581EC99E02ECFCD
:1049D00061E083E00E94FC0581EC99E03ECF61E05C
:1049E00085E00E94FC0581EC99E04ECF8230910574
:1049F00019F481E07826ACCF8330910519F491E069
:104A00006926A6CF049709F0A3CF21E05226A0CFB4
:104A100043E02416310409F065C60E94D1066054B3
:104A20007B428E4F9F4F6093B80C7093B90C80936C
:104A3000BA0C9093BB0C64EF71E080E090E00E94B0
:104A4000A10611E088E30E9465069093D40C809340
:104A5000D30C89E30E9465069093D80C8093D70C01
:104A600086E30E9465069093B70C8093B60C87E3AB
:104A70000E9465069093C80C8093C70C0E94FC119D
:104A800081E090E09093E50D8093E40D9093E30D29
:104A90008093E20D1092DF0D1092DE0D1092E10D69
:104AA0001092E00D1093E60D1093E70D86ED99E05E
:104AB0000E94EF118091B60C9091B70C0E940712E2
:104AC00080E996E00E94F0118BE39AE00E94EF11DA
:104AD00080910402909105020E94071280E996E0FD
:104AE0000E94EF118CED99E00E94EF118091B00CC3
:104AF0009091B10C0E94071282EE99E00E94F01191
:104B000085EF9BE00E94EF118091C70C9091C80C3B
:104B10000E94071280E996E00E94F0118BE39AE070
:104B20000E94EF1180910202909103020E940712ED
:104B300080E996E00E94EF118CED99E00E94EF1160
:104B40008091AE0C9091AF0C0E94071282EE99E01A
:104B50000E94F01184EE99E00E94EF118091D30C35
:104B60009091D40C0E94071280E996E00E94F01107
:104B70008BE39AE00E94EF11809108029091090264
:104B80000E94071280E996E00E94EF118CED99E0F7
:104B90000E94EF118091B40C9091B50C0E94071205
:104BA00082EE99E00E94F0118EEE99E00E94EF11E2
:104BB0008091D70C9091D80C0E94071280E996E062
:104BC0000E94F0118BE39AE00E94EF11809106029F
:104BD000909107020E94071280E996E00E94EF116F
:104BE0008CED99E00E94EF118091B20C9091B30C82
:104BF0000E94071282EE99E00E94F0110E94D610E6
:104C000068EC70E080E090E00E94A1068CE00E94D9
:104C1000D405019711F00C94DC1D0E94D106C090C0
:104C2000B80CD090B90CE090BA0CF090BB0C6C159D
:104C30007D058E059F0508F405CF0C94DC1D0E94B0
:104C4000D10660547B428E4F9F4F6093B80C709397
:104C5000B90C8093BA0C9093BB0C64EF71E080E0C8
:104C600090E00E94A10611E00E94FC1181E090E01A
:104C70009093E50D8093E40D9093E30D8093E20D06
:104C80001093E60D1093E70D1092DF0D1092DE0DDC
:104C90001092E10D1092E00D83ED96E00E94EF116D
:104CA0006091A90C7091AA0C8091AB0C9091AC0C06
:104CB0004AE00E94AC1184E198E00E94EF116091FB
:104CC000A50C7091A60C8091A70C9091A80C6A304D
:104CD00071058105910508F461C00E94E01287EF1B
:104CE00099E00E94EF116091BE0C7091BF0C809111
:104CF000C00C9091C10C0E94E01286E09AE00E94E4
:104D0000EF116091C90C7091CA0C8091CB0C9091FD
:104D1000CC0C0E94E01285E19AE00E94F01188E23A
:104D20009AE00E94EF118091BC0C9091BD0C0E9402
:104D300007128CE29AE00E94EF118091C20C9091D0
:104D4000C30C0E94341281E39AE00E94EF1180911B
:104D5000C40C9091C50C0E9434120E94D61068ECCD
:104D600070E080E090E00E94A1068CE00E94D405F3
:104D7000019711F00C94DC1D0E94D106C090B80C74
:104D8000D090B90CE090BA0CF090BB0C6C157D057E
:104D90008E059F0508F468CF0C94DC1D81EF96E02A
:104DA0000E94EF116091A50C7091A60C8091A70C48
:104DB0009091A80C92CF0230110509F0DEC00E943C
:104DC000D10660547B428E4F9F4F6093B80C709316
:104DD000B90C8093BA0C9093BB0C64EF71E080E047
:104DE00090E00E94A1060E94FC1181E090E0909367
:104DF000E50D8093E40D9093E30D8093E20D109206
:104E0000DF0D1092DE0D1092E10D1092E00D9092E8
:104E1000E60D9092E70D86EC9AE00E94F01187ED86
:104E20009AE00E94F0118AE00E94D405892B49F48F
:104E300080910E0290910F02019690930F02809341
:104E40000E028BE00E94D405892B49F480910E025A
:104E500090910F02019790930F0280930E0210928F
:104E6000DF0D1092DE0D89E190E09093E10D8093CB
:104E7000E00D8DEE9AE00E94EF1180910E0290916C
:104E80000F020E9434128CEF9AE00E94EF11809181
:104E9000C40C9091C50C0E9434129092E60D909231
:104EA000E70D8091C60C882309F464C085E09BE07F
:104EB0000E94EF110E94D61064E670E080E090E05E
:104EC0000E94A1068CE00E94D405019781F40E9403
:104ED000D106C090B80CD090B90CE090BA0CF0900C
:104EE000BB0C6C157D058E059F0508F47CCF1092D8
:104EF000C60C0E94FC111092DF0D1092DE0D109274
:104F0000E10D1092E00D8FE19BE00E94F01188E32B
:104F10009BE00E94EF11F0900E028F2D0E94ED1287
:104F200084E49BE00E94EF11E0900F028E2D0E941E
:104F3000ED128BE598E00E94EF11EE821D826D81EB
:104F40007E816F2990E080E04AE00E94AC110E94CF
:104F5000D61068EC70E080E090E00E94A1066E2D13
:104F60008AE190E00E9475136F2D8BE190E00E9422
:104F7000751309C587E19BE09BCF0330110509F04C
:104F8000D0C00E94D10660547B428E4F9F4F6093E9
:104F9000B80C7093B90C8093BA0C9093BB0C64EF6F
:104FA00071E080E090E00E94A1060E94FC119092C6
:104FB000E60D9092E70D81E090E09093E50D8093EF
:104FC000E40D9093E30D8093E20D1092DF0D1092AB
:104FD000DE0D1092E10D1092E00D81E59BE00E9444
:104FE000EF114AE060E070E180E090E00E94AC11D7
:104FF00087E796E00E949F110E94FC119092E60DB7
:105000009092E70D81E090E09093E50D8093E40DA0
:105010009093E30D8093E20D1092DF0D1092DE0D60
:105020001092E10D1092E00D81E59BE00E94EF11DE
:105030004AE060E070E180E090E00E94AC1187E718
:1050400096E00E949F118BE00E94D405892B29F4E1
:1050500095E0E91AF1080E94D6108AE00E94D40572
:10506000892BD9F525E0E20EF11C0E94D610E1143F
:1050700040E1F40624F06BEFE62E6FE0F62E10927E
:10508000DF0D1092DE0D88E090E09093E10D8093AB
:10509000E00D670195E0C90ED11C5701CA14DB046D
:1050A00009F1C5010E9469148093AD0C8AE19CE06E
:1050B0000E94F011C5010E94071283EC96E00E9445
:1050C000EF116091AD0C70E090E080E040E10E9453
:1050D000AC112FEFA21AB20AE1CFF7FEC8CFF12C24
:1050E000E12CC5CF0E94D61062E370E080E090E032
:1050F0000E94A1068CE00E94D405019709F043C4E8
:105100000E94D1062091B80C3091B90C4091BA0C94
:105110005091BB0C621773078407950708F46CCF96
:1051200032C40430110509F0BDC10E94D10660549B
:105130007B428E4F9F4F6093B80C7093B90C809355
:10514000BA0C9093BB0C0E94FC119092E60D9092C9
:10515000E70D81E090E09093E50D8093E40D90934E
:10516000E30D8093E20D1092DF0D1092DE0D109290
:10517000E10D1092E00D81E69BE00E94F01183E7C3
:105180009BE00E94EF110E94D61068EE73E080E071
:1051900090E00E94A1068BE00E94D405892B09F0C3
:1051A00078C01092B50C1092B40C60E08AE090E0E8
:1051B0000E94751360E08BE090E00E94751380E020
:1051C00094E0909309028093080264E08CE090E000
:1051D0000E94751360E08DE090E00E9475131092BC
:1051E000B30C1092B20C60E08EE090E00E94751358
:1051F00060E08FE090E00E94751380E094E090936F
:1052000007028093060264E080E190E00E9475133B
:1052100060E081E190E00E9475131092B10C109251
:10522000B00C60E082E190E00E94751360E083E1E1
:1052300090E00E94751380E094E0909305028093C3
:10524000040264E084E190E00E94751360E085E16F
:1052500090E00E9475131092AF0C1092AE0C60E0BB
:1052600086E190E00E94751360E087E190E00E9483
:10527000751380E094E0909303028093020264E04F
:1052800088E190E00E94751360E089E190E00E945F
:1052900075130E94FC119092E60D9092E70D81E04B
:1052A00090E09093E50D8093E40D9093E30D80934F
:1052B000E20D1092DF0D1092DE0D1092E10D1092B2
:1052C000E00D8FE79BE00E94F01185E99BE00E94D2
:1052D000EF111092DF0D1092DE0D89E190E09093B6
:1052E000E10D8093E00D8AE090E00E946914F82EB1
:1052F0008BE090E00E9469149F2D9093B50C8093F1
:10530000B40C83EA9BE00E94EF118091B40C909161
:10531000B50C0E9407128CE090E00E946914F82EF0
:105320008DE090E00E9469149F2D90930902809374
:1053300008028AEA9BE00E94EF1180910802909196
:1053400009020E9434128EE090E00E946914F82E47
:105350008FE090E00E9469149F2D9093B30C80938E
:10536000B20C8FEA9BE00E94EF118091B20C9091F9
:10537000B30C0E94071280E190E00E946914F82E9D
:1053800081E190E00E9469149F2D90930702809321
:1053900006028AEA9BE00E94EF118091060290913A
:1053A00007020E94341282E190E00E946914F82EF4
:1053B00083E190E00E9469149F2D9093B10C80933B
:1053C000B00C86EB9BE00E94EF118091B00C9091A5
:1053D000B10C0E94071284E190E00E946914F82E3B
:1053E00085E190E00E9469149F2D909305028093BF
:1053F00004028AEA9BE00E94EF11809104029091DE
:1054000005020E94341286E190E00E946914F82E91
:1054100087E190E00E9469149F2D9093AF0C8093D8
:10542000AE0C8EEB9BE00E94EF118091AE0C909140
:10543000AF0C0E94071288E190E00E946914F82ED8
:1054400089E190E00E9469149F2D9093030280935C
:1054500002028AEA9BE00E94EF1180910202909181
:1054600003020E9434120E94D61068EC70E080E0C3
:1054700090E00E94A1068CE00E94D405019709F0FB
:1054800082C20E94D106C090B80CD090B90CE090B6
:10549000BA0CF090BB0C6C157D058E059F0508F4C9
:1054A0007ACE71C20530110509F06DC20E94D10695
:1054B00060547B428E4F9F4F6093B80C7093B90C31
:1054C0008093BA0C9093BB0C64EF71E080E090E0A5
:1054D0000E94A10657EFF52E86E30E946506909381
:1054E000B70C8093B60C87E30E9465069093C80CB6
:1054F0008093C70C88E30E9465069093D40C809338
:10550000D30C89E30E9465069093D80C8093D70C46
:105510000E94FC1181E090E09093E50D8093E40DF2
:105520009093E30D8093E20D1092DF0D1092DE0D4B
:105530001092E10D1092E00D9092E60D9092E70D21
:1055400086EC9BE00E94F01184ED9BE00E94EF113D
:105550008091D30C9091D40C9C0143E0220F331F17
:105560004A95E1F7821B930B62E370E07CD2CB019A
:1055700086589F4F0E94071283EC96E00E94EF111D
:105580008091D30C9091D40C0E9434128BED9BE04F
:105590000E94EF112091D70C3091D80C4F2D42036F
:1055A000C001439F900D112462E370E05CD2CB01F7
:1055B0008C579F4F0E94071283EC96E00E94EF11D8
:1055C0008091D70C9091D80C0E94341282EE9BE00F
:1055D0000E94EF112091C70C3091C80C4F2D42034F
:1055E000C001439F900D112462E370E03CD2CB01D7
:1055F0008C579F4F0E94071283EC96E00E94EF1198
:105600008091C70C9091C80C0E9434128BEE9BE0E5
:105610000E94EF112091B60C3091B70C4F2D420330
:10562000C001439F900D112462E370E01CD2CB01B6
:105630008C579F4F0E94071283EC96E00E94EF1157
:105640008091B60C9091B70C0E9434120E94D61033
:1056500060E971E080E090E00E94A1068CE00E9489
:10566000D405019709F08FC10E94D1062091B80C92
:105670003091B90C4091BA0C5091BB0C6217730772
:105680008407950708F428CF7EC185E09CE00C9440
:10569000351E81EF96E00E94EF116091A50C70918C
:1056A000A60C8091A70C9091A80C0C947B1E46E050
:1056B0002416310411F00C94E51B22242394312C80
:1056C0000C94E51B0630110511F00C94A51C01E0AB
:1056D00010E00C94A51C0630110509F0A0C001E0F3
:1056E00010E09DC084E02816310409F4A8CA95E0B2
:1056F0002916310411F00C94DC1D0E94D10660546F
:105700007B428E4F9F4F6093B80C7093B90C80937F
:10571000BA0C9093BB0C64EF71E080E090E00E94C3
:10572000A10601E010E099249394A4E34A2E512CA1
:10573000B2E66B2E712C0E94FC1181E090E09093F8
:10574000E50D8093E40D9093E30D8093E20D1092AC
:10575000DF0D1092DE0D1092E10D1092E00D90928F
:10576000E60D9092E70D81E49AE00E94EF1110920D
:10577000DF0D1092DE0D8CE090E09093E10D8093B0
:10578000E00D84E59AE00E94EF111092DF0D109277
:10579000DE0D86E190E09093E10D8093E00D85E6CB
:1057A0009AE00E94EF111092DF0D1092DE0D80E260
:1057B00090E09093E10D8093E00D86E79AE00E94DF
:1057C000EF111092DF0D1092DE0D8AE290E09093BF
:1057D000E10D8093E00D87E89AE00E94EF111092AE
:1057E000DF0D1092DE0D5092E10D4092E00D88E940
:1057F0009AE00E94EF110E94D6108BE00E94D4051F
:10580000892B11F40F5F1F4F8AE00E94D405892B6A
:1058100009F061CF0150110911F405E010E09092F8
:10582000E60D9092E70D7092DF0D6092DE0D2AE09A
:10583000209FC001219F900D112402969093E10DAD
:105840008093E00D8BE897E00E94F0110E94D61043
:105850008DE00E94D4057C01892B09F094C00130B1
:10586000110509F0A8CA0E94D10660547B428E4FF0
:105870009F4F6093B80C7093B90C8093BA0C9093BF
:10588000BB0C64EF71E080E090E00E94A10660E054
:1058900084E00E94FC05C12C74E0D72EEAE0AE2E15
:1058A000B12CF2E08F2E0E94FC1181E090E09093E9
:1058B000E50D8093E40D9093E30D8093E20D10923B
:1058C000DF0D1092DE0D1092E10D1092E00D90921E
:1058D000E60D9092E70D89EA9AE00E94F01187E3C5
:1058E0000E9465069093C80C8093C70CE816F906D1
:1058F0000CF47C018C159D050CF46C011092DF0DED
:105900001092DE0DB092E10DA092E00D8092E60DB6
:105910008092E70D86EF9AE00E94EF118091C70C0C
:105920009091C80C0E9434128AEB9AE00E94EF1109
:10593000C6010E94341280EC9AE00E94EF11C70168
:105940000E9434120E94D61068EC70E080E090E073
:105950000E94A1068CE00E94D405019781F40E9468
:10596000D1062091B80C3091B90C4091BA0C5091ED
:10597000BB0C621773078407950708F494CF61E0A6
:1059800084E00E94FC0568EC70E080E090E00E94FA
:10599000A1068CE00E94D405019711F00C94DC1D47
:1059A0000E94D106C090B80CD090B90CE090BA0C0F
:1059B000F090BB0C6C157D058E059F0508F4BBCEE1
:1059C0000C94DC1DF999FECF92BD81BDF89A992700
:1059D00080B50895262FF999FECF1FBA92BD81BDDB
:1059E00020BD0FB6F894FA9AF99A0FBE0196089561
:1059F0002BD0A59F900DB49F900DA49F800D911D5D
:105A000011240895A1E21A2EAA1BBB1BFD010DC093
:105A1000AA1FBB1FEE1FFF1FA217B307E407F5075E
:105A200020F0A21BB30BE40BF50B661F771F881F3A
:105A3000991F1A9469F760957095809590959B01D0
:105A4000AC01BD01CF010895A29FB001B39FC00179
:105A5000A39F700D811D1124911DB29F700D811D9A
:105A60001124911D089597FB072E16F4009406D07B
:105A700077FD08D013D007FC05D03EF490958195B2
:105A80009F4F0895709561957F4F0895EE0FFF1F0A
:105A9000881F8BBF0790F691E02D1994AA1BBB1BA2
:105AA00051E107C0AA1FBB1FA617B70710F0A61B1E
:105AB000B70B881F991F5A95A9F780959095BC013F
:105AC000CD01089581E090E0F89400C0F894FFCFF4
:105AD000010000040004000400040A000A0084031A
