:1000000082C30000B1C30000AFC30000ADC3000055
:10001000ABC30000A9C30000A7C30000A5C3000034
:10002000A3C30000A1C300009FC300009DC3000044
:100030009BC3000099C3000097C3000095C3000054
:1000400093C3000091C300008FC300008DC3000064
:100050008BC3000089C3000087C300000C9468179D
:1000600083C300000C9432170C9408177DC3000062
:100070007BC3000079C3000077C3000075C3000094
:1000800073C3000071C300006FC300006DC30000A4
:100090006BC3000069C3000067C300000C94B21773
:1000A00063C3000061C300005FC300005DC30000C4
:1000B0005BC3000059C3000057C3000055C30000D4
:1000C00053C3000051C300004FC300004DC30000E4
:1000D0004BC3000049C3000047C3000045C30000F4
:1000E00043C3000000000000003E5B4F5B3E3E6BE0
:1000F0004F6B3E1C3E7C3E1C183C7E3C181C577DC2
:10010000571C1C5E7F5E1C00183C1800FFE7C3E70D
:10011000FF0018241800FFE7DBE7FF30483A060E1F
:100120002629792926407F050507407F05253F5A66
:100130003CE73C5A7F3E1C1C08081C1C3E7F1422D6
:100140007F22145F5F005F5F06097F017F00668981
:10015000956A606060606094A2FFA29408047E04C7
:100160000810207E201008082A1C08081C2A0808ED
:100170001E101010100C1E0C1E0C30383E383006AD
:100180000E3E0E06000000000000005F00000007A9
:10019000000700147F147F14242A7F2A12231308D7
:1001A000646236495620500008070300001C2241B3
:1001B000000041221C002A1C7F1C2A08083E080857
:1001C0000080703000080808080800006060002007
:1001D000100804023E5149453E00427F40007249EA
:1001E0004949462141494D331814127F102745458E
:1001F00045393C4A494931412111090736494949A4
:1002000036464949291E0000140000004034000011
:10021000000814224114141414140041221408027A
:10022000015909063E415D594E7C1211127C7F49ED
:100230004949363E414141227F4141413E7F494942
:1002400049417F090909013E414151737F0808086E
:100250007F00417F41002040413F017F081422413F
:100260007F404040407F021C027F7F0408107F3E99
:100270004141413E7F090909063E4151215E7F0906
:10028000192946264949493203017F01033F40406D
:10029000403F1F2040201F3F4038403F6314081458
:1002A0006303047804036159494D43007F41414190
:1002B0000204081020004141417F04020102044071
:1002C00040404040000307080020545478407F28F5
:1002D0004444383844444428384444287F385454EB
:1002E000541800087E090218A4A49C787F0804040E
:1002F0007800447D40002040403D007F10284400AD
:1003000000417F40007C047804787C08040478383D
:1003100044444438FC1824241818242418FC7C086D
:10032000040408485454542404043F44243C4040EA
:10033000207C1C2040201C3C4030403C442810289D
:10034000444C9090907C4464544C440008364100E6
:100350000000770000004136080002010204023C60
:100360002623263C1EA1A161123A4040207A38542F
:1003700054555921555579412254547842215554A8
:10038000784020545579400C1E52721239555555FB
:1003900059395454545939555454580000457C41E6
:1003A0000002457D420001457C407D1211127DF026
:1003B000282528F07C545545002054547C547C0A50
:1003C000097F4932494949323A4444443A324A4819
:1003D00048303A4141217A3A42402078009DA0A01D
:1003E0007D3D4242423D3D4040403D3C24FF24246F
:1003F000487E4943662B2FFC2F2BFF0929F620C08E
:10040000887E090320545479410000447D413048DE
:10041000484A32384040227A007A0A0A727D0D1921
:10042000317D2629292F28262929292630484D4083
:1004300020380808080808080808382F10C8ACBA7F
:100440002F102834FA00007B000008142A142222FE
:10045000142A14085500550055AA55AA55AAFF5547
:10046000FF55FF000000FF00101010FF00141414CF
:10047000FF001010FF00FF1010F010F0141414FC17
:10048000001414F700FF0000FF00FF1414F404FC34
:10049000141417101F10101F101F1414141F001015
:1004A0001010F0000000001F101010101F1010108E
:1004B00010F010000000FF1010101010101010109D
:1004C000FF10000000FF140000FF00FF00001F10DD
:1004D000170000FC04F414141710171414F404F497
:1004E0000000FF00F714141414141414F700F71488
:1004F0001414171410101F101F141414F4141010D7
:10050000F010F000001F101F0000001F140000007A
:10051000FC140000F010F01010FF10FF141414FF72
:10052000141010101F00000000F010FFFFFFFFFF6D
:10053000F0F0F0F0F0FFFFFF0000000000FFFF0F01
:100540000F0F0F0F3844443844FC4A4A4A347E02A5
:10055000020606027E027E02635549416338444426
:100560003C04407E201E2006027E020299A5E7A5DB
:10057000991C2A492A1C4C7201724C304A4D4D304C
:100580003048784830BC625A463D3E494949007E71
:100590000101017E2A2A2A2A2A44445F4444405108
:1005A0004A444040444A51400000FF0103E080FFBC
:1005B000000008086B6B083612362436060F090F48
:1005C00006000018180000001010003040FF010164
:1005D000001F01011E00191D1712003C3C3C3C008D
:1005E0000000000000002100240027002A002D0048
:1005F0003000330001010000040107010A0100007E
:100600002200250028002B002E00310034000201BA
:100610000000050108010B01000020002300260056
:1006200029002C002F003200000100000301060108
:100630000901050505050705080808080202020268
:100640000A0A08080404040401010101010101016E
:100650000303030303030303040707070C0C0C0C39
:100660000C0C0C0C02020202060606060606060622
:100670000B0B0B0B0B0B0B0B0102102020080810AF
:100680002040102040800201020108040201010202
:1006900004081020408080402010080402018004DB
:1006A0000201804020100804020108040201010236
:1006B000040810204080010204081020408000003F
:1006C0000A0B02090C0D0E080703040100000000CC
:1006D000000000000000000000000000000000001A
:1006E00000000000000000000000121110000000D7
:1006F00000000000000000000000000000000000FA
:1007000000000000D61811241FBECFEFD1E2DEBFDB
:10071000CDBF00E00CBF1BE0A0E0B2E0E4EDF7E5E8
:1007200000E00BBF02C007900D92A238B107D9F7C5
:100730002DE0A2E8BBE001C01D92AF34B207E1F7A3
:1007400013E0C3E8D3E000E006C021970109802F41
:10075000FE010E94C82BC238D10780E00807A9F724
:100760000E943C190C94E82B4BCC2091760C81E034
:10077000213208F044C08091520C8111FCCF80914D
:10078000750C92E09093520C91E09093510C9FEF76
:100790009093500C10924F0C20934E0CA5E5BCE0AA
:1007A000EEE2FCE090E0291331C010922D0C909104
:1007B0002D0C880F892B80932D0C80912C0C81306F
:1007C00049F510922C0C80912D0C8093BB008091E8
:1007D000BC0083FDF8CF85EC8093BC008091520C67
:1007E0008230E1F38091500C8F3FB1F08091500C3A
:1007F0008032A1F08091500C803391F084E010920F
:10080000540C1092760C1092530C08953D91319334
:100810009F5FC9CF85EEE0CF80E0F1CF82E0EFCFE0
:1008200083E0EDCF28E030E040E8E091450DF09125
:10083000460D508190914C0D909595239083E091B9
:10084000430DF091440D90914B0D582F542389F096
:100850005081952B9083E091450DF091460D90814C
:1008600050914C0D952B9083469521503109E9F616
:100870000895508190959523EDCFAF92BF92CF927E
:10088000DF92EF92FF920F931F93CF93DF936C0150
:100890007B018B01040F151FEB015E01AE18BF0831
:1008A000C017D10759F06991D601ED91FC910190E3
:1008B000F081E02DC6011995892B79F7C501DF91EB
:1008C000CF911F910F91FF90EF90DF90CF90BF904D
:1008D000AF900895FC01538D448D252F30E0842F77
:1008E00090E0821B930B541710F0CF960895019758
:1008F0000895FC01918D828D981761F0A28DAE0F45
:10090000BF2FB11D5D968C91928D9F5F9F73928FCB
:1009100090E008958FEF9FEF0895FC01918D828DF7
:10092000981731F0828DE80FF11D858D90E00895C4
:100930008FEF9FEF0895FC01918D228D892F90E01C
:10094000805C9F4F821B91098F739927089587E7D9
:100950009CE0F1DF21E0892B09F420E0822F08954B
:10096000FC01A48DA80FB92FB11DA35ABF4F2C9124
:10097000848D90E001968F739927848FA689B7891B
:100980002C93A089B1898C91837080648C93938D12
:10099000848D981306C00288F389E02D80818F7DB5
:1009A00080830895EF92FF920F931F93CF93DF936D
:1009B000EC0181E0888F9B8D8C8D98131AC0E8899B
:1009C000F989808185FF15C09FB7F894EE89FF896A
:1009D0006083E889F98980818370806480839FBF08
:1009E00081E090E0DF91CF911F910F91FF90EF9008
:1009F0000895F62E0B8D10E00F5F1F4F0F73112718
:100A0000E02E8C8D8E110BC00FB607FCFACFE88953
:100A1000F989808185FFF5CFCE01A2DFF2CFEB8D82
:100A2000EC0FFD2FF11DE35AFF4FF0829FB7F894B2
:100A30000B8FEA89FB8980818062D0CFCF93DF93CF
:100A4000EC01888D8823B1F0AA89BB89E889F989EE
:100A50008C9185FD03C0808186FD0CC00FB607FC1C
:100A6000F7CF8C9185FFF2CF808185FFEDCFCE014E
:100A700077DFEACFDF91CF91089580E090E0892B76
:100A800021F065DF81110E94000080E090E0892B59
:100A900049F080E090E0892B29F00E94000081114C
:100AA0000E94000080E090E0892B49F080E090E017
:100AB000892B29F00E94000081110E94000080E033
:100AC00090E0892B49F080E090E0892B29F00E948A
:100AD000000081110C94000008958150823108F0CB
:100AE0005AC0E82FF0E08827E758FA4F8F4F0C9450
:100AF000C82B99059D058B0591059505CB05A0058E
:100B0000A605AA05B005B405B805BE05C205CB0506
:100B1000C605CC05D005809180008F77809380003A
:100B20000895809180008F7DF9CF80918000877F2C
:100B3000F5CF84B58F7784BD089584B58F7DFBCFC5
:100B40008091B0008F778093B00008958091B000BD
:100B50008F7DF9CF809190008F77809390000895DA
:100B6000809190008F7DF9CF80919000877FF5CFA5
:100B70008091A0008F778093A00008958091A000BD
:100B80008F7DF9CF8091A000877FF5CF80912001E4
:100B90008F77809320010895809120018F7DF9CF78
:100BA00080912001877FF5CFCF93DF93282F30E00E
:100BB000F901E254F94F8491F901E858F94FD491C1
:100BC000F901EE5CF94FC491CC2399F0811185DFD6
:100BD000EC2FF0E0EE0FFF1FE85EF94FA591B49106
:100BE000EC91ED2381E090E009F480E0DF91CF917A
:100BF000089580E090E0FACF1F93CF93DF93282FE2
:100C000030E0F901E254F94F8491F901E858F94FC5
:100C1000D491F901EE5CF94FC491CC23A1F0162FC9
:100C200081115BDFEC2FF0E0EE0FFF1FE250FA4F77
:100C3000A591B4918FB7F894EC91111108C0D0959B
:100C4000DE23DC938FBFDF91CF911F910895DE2BC0
:100C5000F8CFCF93DF9390E0FC01E858F94F24914F
:100C60008E5C994FFC0184918823C9F090E0880F35
:100C7000991FFC01EC51FA4FA591B491FC01E2508F
:100C8000FA4FC591D49161110DC09FB7F8948C9122
:100C9000209582238C938881282328839FBFDF910E
:100CA000CF910895623051F49FB7F8943C91822F10
:100CB000809583238C93E8812E2BEFCF8FB7F89408
:100CC000EC912E2B2C938FBFEACF90917B00977FD6
:100CD00090937B008653806480937C0080917A009F
:100CE000806480937A0080917A0086FDFCCF8091A9
:100CF00078009091790008953FB7F8948091F10BB6
:100D00009091F20BA091F30BB091F40B26B5A89B38
:100D100005C02F3F19F00196A11DB11D3FBFBA2F8D
:100D2000A92F982F8827BC01CD01620F711D811D4D
:100D3000911D42E0660F771F881F991F4A95D1F7D2
:100D400008958F929F92AF92BF92CF92DF92EF92CF
:100D5000FF924B015C01D0DF6B017C01CDDF6C1990
:100D60007D098E099F09683E734081059105B0F3A6
:100D700021E0821A9108A108B10888EEC80E83E02C
:100D8000D81EE11CF11C81149104A104B10431F7B7
:100D9000FF90EF90DF90CF90BF90AF909F908F909B
:100DA00008952FB7F8946091ED0B7091EE0B809140
:100DB000EF0B9091F00B2FBF08950F931F93CF93DC
:100DC000DF93EC018E89823009F453C0833009F43B
:100DD000ACC0813009F05CC0EC81FD81E41BF50BF7
:100DE000AF01421B530B77FD3FC08E819F81681777
:100DF0007907D4F557FF04C0240F351F50E040E0B9
:100E00008C819D81FA01E20FF31F8E179F071CF45E
:100E10009C01241B350B1216130634F5FB0177FDDC
:100E20003796A3E0F595E795AA95E1F7F695FE2F9D
:100E3000EE27F795E795E40FF51FEC5EFD4F677021
:100E4000772781E090E001C0880F6A95EAF7482F84
:100E50000130110509F472C008F47CC02E0F3F1F49
:100E60000230110509F483C0DF91CF911F910F91DA
:100E70000895AC81BD81CD01861B970BBC016150EB
:100E80007109EE81FF81E41BF50BAF01421B530B8F
:100E900077FDEACF8C819D81681779072CF757FF82
:100EA00004C0240F351F50E040E08E819F81FA017D
:100EB000E20FF31F8E179F071CF49C01241B350BB8
:100EC000121613068CF6922FA42FA695A695A6951A
:100ED00080E8A89FD0011124A60FB71FAC5EBD4FBC
:100EE000477009F457C058E0541B452F652F70E038
:100EF000FB01E45EF94F8081251708F0B0C0621B4A
:100F000071092FEF30E002C0359527956A95E2F719
:100F1000822301301105A9F108F464C002301105E3
:100F200009F0A2CF2C9182272EC0AE81BF81CD01C6
:100F3000861B970BBC016150710955CF2E0F3F1FC7
:100F4000E217F30709F490CF8191DF011197842B09
:100F50008C93F6CF80952E0F3F1FE217F30709F40D
:100F600083CF9191DF01119798239C93F6CFE217DD
:100F7000F30709F479CF8191DF01119784278C93CE
:100F8000F6CF2C91822B8C93941708F46DCF941B81
:100F9000A058BF4F983008F447C00230110531F512
:100FA000FD01892F208120952083E058FF4F885034
:100FB0008830C0F728EF290F26952695269530E032
:100FC0002F5F3F4F3695322F222737952795A20F57
:100FD000B31F977009F448CFE92FF0E0EC5EF94FAA
:100FE000808132C080952C918223CDCF81E0013069
:100FF000110509F080E08195FD01292F8083E058DB
:10100000FF4F28502830D0F728EF290F2695269536
:10101000269530E02F5F3F4F3695322F22273795A8
:101020002795A20FB31F9770992309F41DCFE92FBD
:10103000F0E0EC5EF94F80810130110541F058F08D
:101040000230110509F010CF9C91892702C09C91B4
:10105000892B8C9309CF80959C918923FACF0130FD
:10106000110509F48ECF08F4BDCF0230110509F443
:1010700059CF8DCF0F931F93CF93DF93EC018E89C0
:10108000823009F45EC0833009F4B5C0813009F0C4
:1010900067C0AC81BD81CD01841B950BAC01415073
:1010A000510957FD49C08C819D81481759070CF0A3
:1010B00043C077FF04C0260F371F70E060E08E81C9
:1010C0009F81FB01E20FF31F8E179F071CF49C0109
:1010D000261B370B121613067CF5922FA62FA6950A
:1010E000A695A69580E8A89FD0011124A40FB51F4E
:1010F000AC5EBD4F677009F48FC048E0461B642F9B
:1011000070E0FB01E45EF94F8081241708F002C112
:10111000621B71092FEF30E002C0359527956A9563
:10112000E2F782230130110509F46DC008F49CC078
:101130000230110509F4F8C0DF91CF911F910F9192
:101140000895EC81FD81E61BF70BAE81BF81CD01D7
:10115000841B950BAC0141505109BF01621B730BFD
:1011600057FDEACF8E819F81481759072CF777FFEB
:1011700004C0260F371F70E060E08C819D81FB0169
:10118000E20FF31F8E179F071CF49C01261B370BE1
:10119000121613068CF6FA0157FD379693E0F59573
:1011A000E7959A95E1F7F695FE2FEE27F795E795E7
:1011B000E60FF71FEC5EFD4F4770552781E090E08A
:1011C00001C0880F4A95EAF7482F0130110509F44C
:1011D00088C008F492C02E0F3F1F0230110509F09D
:1011E000ABCFE217F30709F4A7CF8191DF01119785
:1011F00084278C93F6CFEE81FF81E61BF70BBF01AE
:10120000621B730B4ECF2C91822B8C93941708F496
:1012100093CF941BA058BF4F983008F447C00230BA
:10122000110531F5FD01892F208120952083E0589B
:10123000FF4F88508830C0F728EF290F2695269554
:10124000269530E02F5F3F4F3695322F2227379576
:101250002795A20FB31F977009F46ECFE92FF0E026
:10126000EC5EF94F808132C080952C918223CDCFE6
:1012700081E00130110509F080E08195FD01292F01
:101280008083E058FF4F28502830D0F728EF290FEF
:1012900026952695269530E02F5F3F4F3695322FC5
:1012A000222737952795A20FB31F9770992309F42A
:1012B00043CFE92FF0E0EC5EF94F8081013011055A
:1012C00041F058F00230110509F036CF9C91892782
:1012D00002C09C91892B8C932FCF80959C91892360
:1012E000FACF2E0F3F1FE217F30709F425CF8191A4
:1012F000DF011197842B8C93F6CF80952E0F3F1F23
:101300002E173F0709F418CF9191DF011197982309
:101310009C93F6CF0130110509F475CF08F4A4CFE2
:101320000230110509F075CF2C9182276ECFDC01B8
:1013300077FD67C018968D919C911997681779076A
:101340000CF05FC057FD5DC01A968D919C911B9764
:10135000481759070CF055C056968C915697823015
:10136000B9F0833041F1813049F414968D919C910C
:10137000841B950BAB01BC01615071092130310513
:1013800021F108F43FC02230310509F458C0089516
:101390001496ED91FC911597E61BF70BBF01615078
:1013A000710916968D919C91FC01E41BF50BAF0120
:1013B00041505109E3CF16968D919C91861B970B56
:1013C000BA01AC0141505109D9CFFA0157FD379606
:1013D000A3E0F595E795AA95E1F7F695FE2FEE27A0
:1013E000F795E795E60FF71FEC5EFD4F4770552721
:1013F00021E030E001C0220F4A95EAF78081822B7C
:1014000080830895FA0157FD379623E0F595E79517
:101410002A95E1F7F695FE2FEE27F795E795E60F6B
:10142000F71FEC5EFD4F4770552781E090E001C04B
:10143000880F4A95EAF7809590818923E1CFFA01D8
:1014400057FD379683E0F595E7958A95E1F7F69590
:10145000FE2FEE27F795E795E60FF71FEC5EFD4FA1
:101460004770552721E030E001C0220F4A95EAF786
:1014700080818227C5CF0895FC016370668B8481CB
:10148000958126813781613039F0633029F0918769
:1014900080873387228708953187208793878287C3
:1014A00008952F923F924F925F926F927F928F9208
:1014B0009F92AF92BF92CF92DF92EF92FF920F93E3
:1014C0001F93CF93DF93CDB7DEB76A970FB6F8942B
:1014D000DEBF0FBECDBF9A8F898F7A8369834A01A1
:1014E000D22E18870F833701BC2CDC0159962D9121
:1014F0003C915A972115310509F015C118968D9127
:101500009C911997681779070CF0D7C11A968D919D
:101510009C91481759070CF0D0C14C2C512CB6E0C7
:10152000CB9E600D711D11247C876B8716161706E4
:101530000CF0C3C1EA2DF0E0FA87E98793E0EE0FE3
:10154000FF1F9A95E1F7F88BEF87CF01840F951F66
:10155000181619060CF0B1C1A98DBA8D58968C9148
:10156000811104C0BFEABD1508F4D394A98DBA8DCA
:10157000ED91FC9111970284F385E02DCD01199531
:10158000B5E0DB9EC0011124E981FA81FC83EB8385
:10159000312C212C9C012C513F4F388F2F8B4A2D01
:1015A00050E05E8B4D8BEF89F88DE20DF31D449179
:1015B0009E828D82D12CC12C69817A81620D731D2E
:1015C0007A8B698B842F90E09C8B8B8BE98DFA8DC5
:1015D000A081B18140FF82C0F1E0BF126FC0AF12A5
:1015E0006DC01C96ED91FC912F813885A4014C0DA6
:1015F0005D1D69897A89898D9A8D1995EB89FC8998
:10160000F595E7954E2F5FEFC51AD50A6D817E815E
:101610008D899E89680F791F7E836D8398E0C91636
:10162000D10481F6AFEF2A1A3A0AEB81FC81E40D6E
:10163000F51DFC83EB83F5E02F16310409F0B3CFE1
:101640002F81388526153705B9F0A98DBA8DED9112
:10165000FC91B1E0BB1257C0AB1255C069817A81D1
:101660006B5F7F4F0088F189E02D830128E030E037
:10167000A401898D9A8D1995A98DBA8DED91FC9152
:1016800011970688F789E02DCD016A960FB6F89478
:10169000DEBF0FBECDBFDF91CF911F910F91FF90A5
:1016A000EF90DF90CF90BF90AF909F908F907F9002
:1016B0006F905F904F903F902F9019941E96ED91F0
:1016C000FC91EF80F88409851A8592014D815E8135
:1016D0006B817C81898D9A8D199590CF2F8138856A
:1016E0002615370509F48ACF31E0B31207C0A312DB
:1016F00005C01C96ED91FC91930178CF1E96ED915B
:10170000FC917301E0CF6B857C85641975090684B3
:10171000F785E02D73010F8518899201A401898D49
:101720009A8D1995A9CFF9013496949132974591E4
:101730005491D91AB7E0DB9E400D511D1124F901D7
:10174000259134913C8B2B8BFA0125903490FA0132
:101750003296749031963491398B329664903196EA
:10176000449041E04C1518F04A1508F07FC0662DF2
:10177000062C000C770B7C836B83842D042C000CCF
:10178000990B9E838D83A98DBA8DED91FC91119754
:101790000284F385E02DCD011995512CD12CC12C5B
:1017A000EA2DF0E0FA87E9872B2D30E03C872B8784
:1017B000A401440D511D47FC5A95588F4F8B6981E8
:1017C0007A81660D711D67FC7A957E876D877989B0
:1017D000C71608F051CF2C2D30E04D815E81420FAD
:1017E000531FA985BA854A9FC0014B9F900D5A9FF0
:1017F000900D1124FC01E80DF91DF88BEF87852D64
:10180000612C4F89588D420F531F5E8B4D8B67148F
:1018100008F050C044244394480E877041F4C1013D
:101820000196EB89FC89E20DF31DD4901C01D7FED3
:1018300019C0A98DBA8DED91FC91662D70E0B1E0D3
:10184000BB1219C0AB1217C02D853E85620F731FE6
:101850000484F585E02D2F8138854D895E89898D39
:101860009A8D1995DD0C6394842DD1CF1E821D8233
:101870001C821B8288CF4B815C81640F751FAB85F6
:10188000BC856A9FC0016B9F900D7A9F900D1124BB
:1018900069817A81680F791F0684F785E02DEF80D2
:1018A000F88409851A859D014F855889898D9A8DFF
:1018B0001995D8CF570CC3948ACF6A960FB6F8946F
:1018C000DEBF0FBECDBFDF91CF911F910F91FF9073
:1018D000EF90DF90CF90BF90AF909F908F907F90D0
:1018E0006F905F904F903F902F9008958F929F92AE
:1018F000AF92CF92EF92FF920F931F93CF93DF930C
:10190000EC01262F898D9A8D009709F050C06A301E
:10191000D1F41D861C868D8948E0849F9001112496
:101920008E859F85820F931F9F878E8781E090E031
:10193000DF91CF911F910F91FF90EF90CF90AF90DB
:101940009F908F9008956D3089F3CC88AD888F89F2
:101950008823C1F08C859D8536E0C39E800D911D46
:101960001124488559854817590764F44E855F85C9
:101970001D861C8638E0A39EC0011124840F951F8C
:101980009F878E87EA88FB88088919894E855F853D
:101990006C857D85CE0185DD2C898C859D8546E015
:1019A000249F800D911D11249D878C87BFCF6A30A5
:1019B00069F41D861C86FC013696E4912D898E857E
:1019C0009F85E29F800D911D1124AECF6D3009F4EB
:1019D000ADCFFC0134963491631708F4A7CF31964C
:1019E000E491E61708F4A2CFFC013296859094901A
:1019F000462F431B342F47E0349F800C911C112449
:101A0000F401329634913196E4913323A1F1EE231F
:101A100091F1CC88F4013596E491AD884F89442347
:101A200001F10E2E000CFF0BE30FF11DCE9EA00165
:101A3000CF9E500D11246C857D85460F571F6885FC
:101A40007985641775076CF44E855F851D861C8645
:101A5000FC013696E491AE9E400D511D11245F8726
:101A60004E87EA88FB88088919894E855F856C85D1
:101A70007D85CE0116DDF4013496E4912C898C85A8
:101A80009D85E29F800D911D11248ECF6F927F92D4
:101A90008F929F92AF92BF92CF92DF92EF92FF927E
:101AA0000F931F93CF93DF93EC016B015A01390120
:101AB0004801E881F9810284F385E02D1995E881D8
:101AC000F9810288F389E02D87019301A501B60110
:101AD000CE011995A501480D591D41505109E881C4
:101AE000F9810288F389E02D9301B601CE011995A1
:101AF000E881F9810088F189E02D9401A501B60102
:101B0000CE011995C60CD71CB60161507109E88148
:101B1000F9810088F189E02D9401A501CE01199584
:101B2000E881F9810688F789E02DCE01DF91CF9118
:101B30001F910F91FF90EF90DF90CF90BF90AF90EB
:101B40009F908F907F906F9019946F927F928F9259
:101B50009F92AF92BF92CF92DF92EF92FF920F933C
:101B60001F93CF93DF935C01EB016A0149013801B8
:101B70008701DC01ED91FC916217730719F564167A
:101B800075062CF0962D872D3A01C92ED82E960178
:101B9000261937092F5F3F4F048CF58DE02DA301E7
:101BA000BE01C5011995DF91CF911F910F91FF9053
:101BB000EF90DF90CF90BF90AF909F908F907F90ED
:101BC0006F9008954615570591F42617370724F0AE
:101BD000892D4B01C22FD82F9E01281939092F5F5B
:101BE0003F4F068CF78DE02DA601B401DACF0284B9
:101BF000F385E02D1995D501ED91FC910488F589C7
:101C0000E02D83019401A601BE01C5011995D501FE
:101C1000ED91FC910688F789E02DC501DF91CF9108
:101C20001F910F91FF90EF90DF90CF90BF90AF90FA
:101C30009F908F907F906F901994EF92FF920F93E7
:101C40001F93DC011A960D911C911B9718962D91EC
:101C50003C911997ED91FC9100A0F1A1E02D7B0141
:101C600050E040E070E060E019951F910F91FF9007
:101C7000EF9008954F925F926F927F928F929F9212
:101C8000AF92BF92CF92DF92EF92FF920F931F938A
:101C9000CF93DF936C012B015A0139014801DC011C
:101CA000ED91FC910284F385E02D1995E201640C1D
:101CB000751CD601ED91FC91C615D7055CF4008822
:101CC000F189E02D87019401A501BE01C601199596
:101CD0002196EFCF0688F789E02DC601DF91CF91DD
:101CE0001F910F91FF90EF90DF90CF90BF90AF903A
:101CF0009F908F907F906F905F904F9019948F92EC
:101D00009F92AF92BF92CF92DF92EF92FF920F938A
:101D10001F93CF93DF93EC015B014A016901E881D6
:101D2000F9810284F385E02D199595012C0D3D1D57
:101D300021503109E881F9810488F589E02D780185
:101D40008401A401B501CE011995E881F9810688C5
:101D5000F789E02DCE01DF91CF911F910F91FF9078
:101D6000EF90DF90CF90BF90AF909F908F9019949D
:101D70008F929F92AF92BF92CF92DF92EF92FF929B
:101D80000F931F93CF93DF93EC015B014A0169012D
:101D90007801E881F9810284F385E02D1995C80C5A
:101DA000D91C860101501109E881F9810488F5895F
:101DB000E02D9501A401B501CE011995E881F981C5
:101DC0000688F789E02DCE01DF91CF911F910F9109
:101DD000FF90EF90DF90CF90BF90AF909F908F904B
:101DE00019940895EF92FF920F931F93DC01ED91E8
:101DF000FC9100A0F1A1E02D19951F910F91FF908A
:101E0000EF9008950F931F93DC01ED91FC91068CE8
:101E1000F78DE02D19951F910F9108950F931F9342
:101E2000DC01ED91FC91048CF58DE02D19951F914D
:101E30000F910895DC01ED91FC910084F185E02D76
:101E400019942F923F924F925F926F927F928F924E
:101E50009F92AF92BF92CF92DF92EF92FF920F9339
:101E60001F93CF93DF9300D000D0CDB7DEB73C01F6
:101E70006A013E832D83FC82EB825801A41AB50AC5
:101E8000B7FE03C0B194A194B1088D809E80861ADC
:101E9000970A97FE03C09194819491088A149B0439
:101EA0005CF0902F812F0D811E819D838E839C2D50
:101EB0008D2D6B01692F782F0C151D055CF09D8110
:101EC0008E817E836D83692F782F902F812F8601DD
:101ED000C92ED82E1601201A310A2B012D813E81E0
:101EE000421A530A57FE03C051944194510871019C
:101EF00037FE03C03FEFE31AF30AF594E7948D81B0
:101F00009E81861797075CF5A1E0B0E0BA83A983AC
:101F1000C016D1064CF1D301ED91FC910484F585F6
:101F2000E02D2B813C81A8016D817E818A149B0468
:101F30001CF04D815E81B801C3011995E418F508C4
:101F4000F7FE0AC02D813E8189819A81280F391FB1
:101F50003E832D83E20CF31C0F5F1F4FD9CF2FEF71
:101F60003FEF3A832983D4CF26960FB6F894DEBF8D
:101F70000FBECDBFDF91CF911F910F91FF90EF90DA
:101F8000DF90CF90BF90AF909F908F907F906F9099
:101F90005F904F903F902F900895089585ED809326
:101FA000BC008091BC0084FDFCCF1092520C0895BF
:101FB0002091C70B260F3327331F21323105ECF454
:101FC0002091520CFC0190E080E0243069F082E026
:101FD0000895A091C70B2191AC014B55544FA40F0C
:101FE000B52FB11D2C930196861798F38091C70BDE
:101FF000680F6093C70B80E0089581E0089508950D
:102000000895E091A40B8091A30BE81730F4F0E061
:10201000ED57F44F808190E008958FEF9FEF089582
:102020009091A40B8091A30B2FEF3FEF981748F4EA
:10203000E92FF0E0ED57F44F208130E09F5F90935F
:10204000A40BC90108958091A30B9091A40B891B47
:10205000990B0895CF92DF92EF92FF920F931F9307
:10206000CF93DF937C01CB018A012091530C222373
:1020700089F0EB016B01C40ED51ECC15DD0561F0B6
:102080006991D701ED91FC910190F081E02DC7019C
:102090001995F3CF642F8CDFC801DF91CF911F9189
:1020A0000F91FF90EF90DF90CF900895CF93DF9343
:1020B0001F92CDB7DEB769832091530C2223F9F02C
:1020C0002091760C203258F021E030E0FC0133837F
:1020D000228390E080E00F90DF91CF91089580916E
:1020E000540CE82FF0E0EB5AF34F998190838F5F07
:1020F0008093540C8093760C81E090E0ECCF61E00B
:10210000CE01019655DFF8CFCF93C82F80913D0DBA
:102110008F3FB1F1E091470DF091480D8081909192
:102120004D0D892B8083E091490DF0914A0D9081EE
:1021300080914E0D809589238083E091470DF09129
:10214000480D908180914D0D8095892380838091E9
:10215000420D882389F0CEBD00000DB407FEFDCFEF
:102160008EB5E091470DF091480D808190914D0D15
:10217000892B8083CF9108958C2F0E941204F1CF78
:1021800080913B0D91E09093530C8093750C1092CD
:10219000540C1092760C60E084E19DE087DF6C2F98
:1021A00084E19DE083DFCF910C94B503DF92EF9241
:1021B000FF920F931F93CF93DF9381E2A5DF80E01F
:1021C000A3DF8FE7A1DF82E29FDF80E09DDF87E072
:1021D0009BDF80913D0D8F3F09F442C0E091470D98
:1021E000F091480D808190914D0D892B8083E09175
:1021F000490DF0914A0D808190914E0D892B80837D
:10220000E091470DF091480D908180914D0D8095A2
:1022100089238083C4E1D2E004E116E089919091A2
:10222000420D9923D1F08EBD00000DB407FEFDCF05
:102230008EB50C171D0791F7E091470DF091480DF1
:10224000808190914D0D892B8083DF91CF911F91DB
:102250000F91FF90EF90DF9008950E941204E9CF54
:102260000091B8008CE08093B800C4E1D2E0DD2496
:10227000D39480913B0DD092530C8093750C1092A7
:10228000540C1092760C60E484E19DE00FDF7E0137
:1022900010E1F70161917F0184E19DE007DF1150BA
:1022A000C1F70E94B5036096F6E0C431DF0709F775
:1022B0000093B800CACF90E080E008958F929F927B
:1022C000AF92BF92CF92DF92EF92FF920E94D1061F
:1022D0006B017C0120E83EEE46E350E00E94842B37
:1022E00049015A018092F90B9092FA0BA092FB0BD4
:1022F000B092FC0BC701B60120E63AEE40E050E098
:102300000E94842B69017A01ACE3B0E0A50194013D
:102310000E947A2BC61AD70AE80AF90AC092F50B6E
:10232000D092F60BE092F70BF092F80BFF90EF9043
:10233000DF90CF90BF90AF909F908F900895FC0159
:1023400001900020E9F73197AF01481B590BBC0100
:1023500080E29DE00C943D048F929F92AF92BF92D9
:102360000F931F93CF93DF93CDB7DEB7A1970FB62F
:10237000F894DEBF0FBECDBF19A2423008F44AE088
:102380008E010F5D1F4F842E912CB12CA12CA50125
:1023900094010E94842BE62FB901CA01EA30ECF4C3
:1023A000E05DD801EE938D01232B242B252B79F7AB
:1023B00090E080E0109711F0CD01C1DFA1960FB63B
:1023C000F894DEBF0FBECDBFDF91CF911F910F916B
:1023D000BF90AF909F908F900895E95CE2CFAFCF10
:1023E000CF93DF93ACDFEC0184E796E0A8DF8C0F9E
:1023F0009D1FDF91CF910895E4E1F2E080E094E049
:10240000DF019C011D9221503040E1F70895CF92E9
:10241000DF92EF92FF92CF93DF936C01990FEE085A
:10242000FF08F7FE17C06DE280E29DE05FDAEC0185
:1024300066277727CB016C197D098E099F094AE031
:102440008BDF8C0F9D1FDF91CF91FF90EF90DF907E
:10245000CF9008954AE0C701B601DF91CF91FF9078
:10246000EF90DF90CF9078CFCF93DF93D0DFEC0168
:1024700084E796E064DF8C0F9D1FDF91CF91089574
:102480001F93CF93DF93B8DFC0E2DDE081E090E0FF
:102490009B8B8A8B998B888B8AE090E09D878C87B9
:1024A00082E190E09F878E8782E08C8B8D8B80917C
:1024B000060C9091070CABDF11E01C8B1D8B87E79E
:1024C00096E08DDF1D861C861F861E8680E896E0BE
:1024D00086DF809110029091110299DF8CE896E0DE
:1024E0007FDF80E996E07BDF8091250C9091260CC0
:1024F0008EDF8CE896E073DF1D861C8686E290E016
:102500009F878E8780911E0C90911F0CADDF1C8BD6
:102510001D8B8CE996E063DFDF91CF911F9146CE52
:102520001F93CF93DF9368DFC0E2DDE081E090E0AE
:102530009B8B8A8B998B888B8AE090E09D878C8718
:1025400082E190E09F878E8782E08C8B8D8B8091DB
:10255000060C9091070C5BDF11E01C8B1D8B87E74D
:1025600096E03DDF1D861C861F861E8680E896E06D
:1025700036DF80910E0290910F0249DF8CE896E0E1
:102580002FDF80E996E02BDF8091210C9091220CC7
:102590003EDF8CE896E023DF1D861C8686E290E015
:1025A0009F878E8780911E0C90911F0C5DDF1C8B86
:1025B0001D8B88EA96E013DFDF91CF911F91F6CD56
:1025C000CF93DF934AE0C8DEEC0184E796E0B7DE04
:1025D0008C0F9D1FDF91CF910895CF93DF93682FCC
:1025E00070E090E080E04AE0B7DEEC0184E796E03E
:1025F000A6DE8C0F9D1FDF91CF910895FDDE81E057
:1026000090E09093330D8093320D9093310D809331
:10261000300D8AE090E090932D0D80932C0D109258
:102620002F0D10922E0D82E08093340D8093350D86
:102630008FEA96E0D4DE81E08093340D8093350DEF
:1026400010922D0D10922C0D84E190E090932F0D9F
:1026500080932E0D88EB96E0C2DE8091270C90913E
:10266000280C02DF84EC96E0BADE8091290C909170
:102670002A0CFADE10922D0D10922C0D88E290E0BB
:1026800090932F0D80932E0D80ED96E0A8DE609143
:10269000F90B7091FA0B8091FB0B9091FC0B4AE0C7
:1026A0005BDE8FEF97E09BDE6091F50B7091F60B90
:1026B0008091F70B9091F80B83DF8BED96E08FDE26
:1026C00060911A0C70911B0C80911C0C90911D0C48
:1026D0004AE042DE6BDD8DE00E94D405892B11F4C7
:1026E00010922B0C08950E94E42B1F93CF93DF933D
:1026F000EC01162F0E94642B181739F0612FCE01C0
:10270000DF91CF911F910C946C2BDF91CF911F9192
:102710000895CF93DF9386E30E946506EC019093C2
:10272000090C8093080C87E30E9465069093070CC0
:102730008093060C88E30E9465069093220C809398
:10274000210C89E30E9465069093260C8093250C4A
:102750008091000C9091010C8C179D0764F4D0932C
:10276000010CC093000C60E082E190E0BEDF60E00D
:1027700083E190E0BADF8091080C9091090C2091E0
:10278000040230910502821793076CF490930502BE
:1027900080930402692F84E190E0A7DF6091080C28
:1027A00085E190E0A2DF8091060C9091070C2091CA
:1027B000FE0B3091FF0B281739076CF49093FF0B39
:1027C0008093FE0B692F86E190E08FDF6091FE0B16
:1027D00087E190E08ADF8091060C9091070C2091B0
:1027E000020230910302821793076CF49093030264
:1027F00080930202692F88E190E077DF6091020206
:1028000089E190E072DF8091210C9091220C20915F
:10281000040C3091050C281739076CF49093050CC3
:102820008093040C692F8AE090E05FDF6091040CD4
:102830008BE090E05ADF8091210C9091220C209146
:10284000080230910902821793076CF490930902F1
:1028500080930802692F8CE090E047DF60910802C6
:102860008DE090E042DF8091250C9091260C209124
:10287000020C3091030C281739076CF49093030C69
:102880008093020C692F8EE090E02FDF6091020CA4
:102890008FE090E02ADF8091250C9091260C20910A
:1028A000060230910702821793077CF49093070287
:1028B00080930602692F80E190E017DF60910602A5
:1028C00081E190E0DF91CF9110CFDF91CF9108951A
:1028D0000C94642BCF93E091870CF091880C92E0DC
:1028E0009083E091830CF091840C1082E091850C30
:1028F000F091860C8FEC808310928F0CE0918B0C02
:10290000F0918C0C86E08083E091890CF0918A0C28
:10291000808180618083E091890CF0918A0C8081B4
:1029200088608083E091890CF0918A0C80818068B6
:102930008083E091890CF0918A0C80818F7D808367
:1029400090933C0D8CE380933B0D80913D0D8F3F28
:1029500009F42AC261E080913F0D0E94290661E0DE
:102960008091410D0E9429068091410D082E000C96
:10297000990BFC01EE5CF94FE491F0E0EE0FFF1FC4
:10298000E250FA4F259134913093480D2093470D32
:10299000FC01E858F94FE491E0934D0D80913F0D13
:1029A000082E000C990BFC01EE5CF94FE491F0E06D
:1029B000EE0FFF1FE250FA4F2591349130934A0DEC
:1029C0002093490DFC01E858F94FE491E0934E0D36
:1029D0008091420D81113EC061E080913D0D0E94C9
:1029E000290661E080913E0D0E94290680913E0DEE
:1029F000082E000C990BFC01EE5CF94FE491F0E01D
:102A0000EE0FFF1FE250FA4F259134913093460D9F
:102A10002093450DFC01E858F94FE491E0934C0DEB
:102A200080913D0D082E000C990BFC01EE5CF94FD6
:102A3000E491F0E0EE0FFF1FE250FA4F2591349140
:102A40003093440D2093430DFC01E858F94FE49175
:102A5000E0934B0D8091420D882309F437C0CFB726
:102A6000F8948091820B811127C0E7E6F6E084910B
:102A7000EDEAF6E09491E82FF0E0EE0FFF1FEC5145
:102A8000FA4FA591B491EC91E92321F461E085E33B
:102A90000E94FC0561E085E30E9429068CB58061F7
:102AA0008CBD8CB580648CBD61E084E30E942906F6
:102AB00061E083E30E9429068091820B8F5F8093FF
:102AC000820BCFBF80E58CBD81E08DBD8091400D34
:102AD00087FD1EC061E00E94290661E08091400DE3
:102AE0000E94FC0561E070E080E090E00E94A10699
:102AF00060E08091400D0E94FC056AE070E080E09B
:102B000090E00E94A10661E08091400D0E94FC05CA
:102B10008EEAFADA85EDF8DA80E8F6DA88EAF4DAAD
:102B20008FE3F2DA83EDF0DA80E0EEDA80E4ECDADB
:102B30008DE8EADA84E1E8DA80E2E6DA80E0E4DAF5
:102B400081EAE2DA88ECE0DA8AEDDEDA82E1DCDAE8
:102B500081E8DADA8FECD8DA89EDD6DA81EFD4DAE7
:102B60008BEDD2DA80E4D0DA84EACEDA86EACCDA07
:102B70008EE2CADA8FEAC8DA61E082E00E942906B2
:102B800061E083E00E94290661E084E00E9429065A
:102B900061E085E00E94290661E086E00E94290646
:102BA00060E088E00E94290660E089E00E94290632
:102BB00062E08CE00E94290662E08DE00E94290616
:102BC00062E08AE00E94290662E08BE00E9429060A
:102BD00061E082E00E94FC0561E083E00E94FC0568
:102BE00061E084E00E94FC0561E085E00E94FC0554
:102BF00061E086E00E94FC05FFDB82E08093340DFB
:102C00008093350D81E090E09093330D8093320DE9
:102C10009093310D8093300D10922D0D10922C0D4C
:102C200010922F0D10922E0D87EE96E0D8DB81E0EA
:102C30008093340D8093350D10922D0D10922C0D34
:102C400089E190E090932F0D80932E0D80EF96E018
:102C5000C7DB10922D0D10922C0D88E290E090931E
:102C60002F0D80932E0D83E097E0B9DB10922D0D90
:102C700010922C0D84E390E090932F0D80932E0DF5
:102C800089E197E0ACDB92DA60EA7FE080E090E0F7
:102C90000E94A10690E080E01BDEC82F81E090E05A
:102CA00017DE9C2F90930F0280930E0283E090E03A
:102CB0000FDE90E090930B0280930A0285E090E093
:102CC00007DEC82F86E090E003DE9C2F9093110270
:102CD0008093100288E090E0FBDD90E090930D027D
:102CE00080930C028AE090E0F3DDC82F8BE090E047
:102CF000EFDD9C2F9093050C8093040C8CE090E00A
:102D0000E7DDC82F8DE090E0E3DD9C2F9093090272
:102D1000809308028EE090E0DBDDC82F8FE090E02A
:102D2000D7DD9C2F9093030C8093020C80E190E000
:102D3000CFDDC82F81E190E0CBDD9C2F909307027F
:102D40008093060282E190E0C3DDC82F83E190E02A
:102D5000BFDD9C2F9093010C8093000C84E190E0E8
:102D6000B7DDC82F85E190E0B3DD9C2F909305027D
:102D70008093040286E190E0ABDDC82F87E190E00C
:102D8000A7DD9C2F9093FF0B8093FE0B88E190E0D2
:102D90009FDDC82F89E190E09BDD9C2F909303027B
:102DA00080930202CF9108951092A40B1092A30B6E
:102DB0001092540C1092760C1092520C81E0809379
:102DC000510C10922C0C61E084E10E94FC0561E042
:102DD00085E10E94FC058091B9008E7F8093B90047
:102DE0008091B9008D7F8093B90088E48093B8000A
:102DF00085E48093BC008FEF9FE09093C60B809397
:102E0000C50B80E090E19093CA0B8093C90B5ECE16
:102E10001F920F920FB60F9211240BB60F922F93A1
:102E20003F934F935F936F937F938F939F93AF9352
:102E3000BF93EF93FF9387E79CE00E94B004FF915C
:102E4000EF91BF91AF919F918F917F916F915F9122
:102E50004F913F912F910F900BBE0F900FBE0F908F
:102E60001F9018951F920F920FB60F9211240BB658
:102E70000F922F938F939F93EF93FF93E091870C83
:102E8000F091880C8081E0918D0CF0918E0C82FD88
:102E90001DC090818091900C8F5F8F732091910C59
:102EA000821741F0E091900CF0E0E958F34F958FD4
:102EB0008093900CFF91EF919F918F912F910F90A4
:102EC0000BBE0F900FBE0F901F9018958081F2CF10
:102ED0001F920F920FB60F9211242F933F938F934F
:102EE0009F93AF93BF938091ED0B9091EE0BA091C8
:102EF000EF0BB091F00B3091EC0B23E0230F2D374B
:102F000058F50196A11DB11D2093EC0B8093ED0B9C
:102F10009093EE0BA093EF0BB093F00B8091F10B1D
:102F20009091F20BA091F30BB091F40B0196A11DBF
:102F3000B11D8093F10B9093F20BA093F30BB09320
:102F4000F40BBF91AF919F918F913F912F910F9073
:102F50000FBE0F901F90189526E8230F0296A11D13
:102F6000B11DD2CF1F920F920FB60F9211240BB644
:102F70000F922F933F934F935F936F937F938F9312
:102F80009F93AF93BF93EF93FF938091B900887F96
:102F9000803609F44DC008F040C0883209F4A9C059
:102FA00028F5803109F49DC0C8F4882309F4FBC0DA
:102FB000883009F496C0FF91EF91BF91AF919F9136
:102FC0008F917F916F915F914F913F912F910F90D2
:102FD0000BBE0F900FBE0F901F901895883109F40B
:102FE00088C0803241F78093500C14C0803409F4BB
:102FF0009DC040F48033B9F38833E9F68093500CD8
:1030000085ECB0C0803509F485C0883509F496C0D8
:10301000883489F60E94CE0FCECF883909F48CC04F
:1030200038F5883729F050F4883611F0803719F6D2
:1030300083E08093520C1092EB0B57C0883809F450
:103040007BC0803919F0803809F0B5CF8091EB0B47
:10305000803208F071C0E091EB0B81E08E0F80931D
:10306000EB0B8091BB00F0E0E553F44F80833DC053
:10307000803B39F0E0F4803A09F479C0883A09F0ED
:103080009ACF84E08093520C1092C80B1092C70B19
:10309000E091C50BF091C60B19958091C70B81117A
:1030A0000FC081E08093C70B1092A50B09C0803C34
:1030B00009F4A6CF883C09F4A3CF883B09F07BCF65
:1030C000E091C80B81E08E0F8093C80BF0E0EB55C8
:1030D000F44F80818093BB009091C80B8091C70B07
:1030E00029C080912D0C8093BB0085EC8093BC009F
:1030F00062CF90914F0C80914E0C981758F5E0914B
:103100004F0C81E08E0F80934F0CF0E0E25DF34FA7
:103110008081E9CFE0914F0C81E08E0F80934F0CBE
:103120008091BB00F0E0E25DF34F808390914F0C03
:1031300080914E0C9817C8F285E8D8CFE0914F0CDB
:1031400081E08E0F80934F0C8091BB00F0E0E25D38
:10315000F34F80838091510C81115CCF81E080938B
:103160002C0C84EA8093BC001092520C24CF85EC86
:103170008093BC001092520C8091EB0B803230F4A3
:10318000E091EB0BF0E0E553F44F10826091EB0B14
:1031900070E0E091C90BF091CA0B8BEC9BE01995A4
:1031A0001092EB0B08CF1092500C34CFE7E7FCE005
:1031B0001382128288EE93E0A0E0B0E084839583CE
:1031C000A683B78328E236E03183208325EC30E004
:1031D0003587248724EC30E03787268720EC30E0E1
:1031E000318B208B21EC30E0338B228B22EC30E0D2
:1031F000358B248B26EC30E0378B268B118E128E8C
:10320000138E148EE4E1FDE0138212828483958391
:10321000A683B7838AE396E091838083E0E2FDE0B2
:103220001382128220E830E03583248380E490E02A
:10323000978386833187208793878287168A1586AE
:1032400014861786168681E0858B848B2FEF3FEFDF
:10325000338B228B318B208B878B108E128E118EAD
:103260008CE496E0918380838FEF858F81A3878F95
:10327000868F84E080A30895CF93DF9300D000D0A1
:10328000CDB7DEB7789484B5826084BD84B58160A3
:1032900084BD85B5826085BD85B5816085BD809121
:1032A0006E00816080936E00109281008091810099
:1032B0008260809381008091810081608093810091
:1032C000809180008160809380008091B100846053
:1032D0008093B1008091B00081608093B0008091B4
:1032E0009100826080939100809191008160809331
:1032F0009100809190008160809390008091A10066
:1033000082608093A1008091A10081608093A100E0
:103310008091A00081608093A00080912101826053
:10332000809321018091210181608093210180910E
:10333000200181608093200180917A0084608093D5
:103340007A0080917A00826080937A0080917A007E
:10335000816080937A0080917A00806880937A00FF
:103360001092C100B7DA6CEB72E080E090E00E944E
:10337000A106CFD980912B0C882321F03FD90E9440
:103380003D05F1CF88E00E94D4059E838D83909304
:103390002A0C8093290C89E00E94D4058C0190931B
:1033A000280C8093270C0E945E110130110521F03A
:1033B0008D819E81019719F481E080932B0C80917F
:1033C0002B0C8111DBCF80911202909113028D3D65
:1033D00095400CF429C12091250C3091260C809148
:1033E000100290911102821793070CF0ADC48091E6
:1033F000230C9091240C01969093240C8093230C21
:10340000109213021092120210921F0C10921E0CB6
:1034100080911A0C90911B0CA0911C0CB0911D0C6A
:103420000196A11DB11D80931A0C90931B0CA093C3
:103430001C0CB0931D0C8091160C9091170CA09150
:10344000180CB091190C0196A11DB11D8093160C9A
:103450009093170CA093180CB093190C11D861E03D
:1034600082E00E94FC0561E083E00E94FC0561E0CF
:1034700084E00E94FC0561E085E00E94FC0561E0BB
:1034800086E00E94FC0560E085E00E94FC0583E385
:1034900090E09E838D833DD90E94401264E670E0E7
:1034A00080E090E00E94A1068D819E8101979E831D
:1034B0008D83892B81F760E084E00E94FC058DE21A
:1034C00091E09E838D8325D90E94401264E670E0CE
:1034D00080E090E00E94A1068D819E8101979E83ED
:1034E0008D83892B81F760E083E00E94FC0583E3F4
:1034F00090E09E838D830DD90E94401264E670E0B7
:1035000080E090E00E94A1068D819E8101979E83BC
:103510008D83892B81F760E082E00E94FC0511E039
:1035200088E00E94D4059E838D8390932A0C80931B
:10353000290C89E00E94D4059093280C8093270CD5
:10354000019721F08D819E81019711F410932B0C2E
:1035500080911E0C90911F0C019690931F0C8093EC
:103560001E0CD7D80E94401264EF71E080E090E01A
:103570000E94A106809110029091110220910C02EC
:1035800030910D02821B930B4091250C5091260C1B
:1035900020911E0C30911F0C841795074CF42C3D84
:1035A00095E039072CF480912B0C882309F4B8CFCF
:1035B0003093150C2093140C61E082E00E94FC050E
:1035C00085E690E09E838D83A4D80E94401264E635
:1035D00070E080E090E00E94A1068D819E810197BD
:1035E0009E838D83892B81F761E083E00E94FC0537
:1035F00061E085E00E94FC0585E690E09E838D8376
:1036000088D80E94401264E670E080E090E00E945A
:10361000A1068D819E8101979E838D83892B81F7E1
:1036200061E084E00E94FC058CE00E94D405892BB7
:1036300009F095C20E94D10660547B428E4F9F4F85
:1036400060930A0C70930B0C80930C0C90930D0CF0
:1036500064EF71E080E090E00E94A10622242394B0
:10366000312C0E94FC1181E090E09093330D809307
:10367000320D9093310D8093300D10922D0D1092DC
:103680002C0D10922F0D10922E0D8093340D8093DF
:10369000350D89E297E00E94EF1110922D0D1092E6
:1036A0002C0D84E190E090932F0D80932E0D8EE3EE
:1036B00097E00E94EF1110922D0D10922C0D8EE1CB
:1036C00090E090932F0D80932E0D8CE497E00E9454
:1036D000EF1110922D0D10922C0D88E290E0909336
:1036E0002F0D80932E0D8AE597E00E94EF11109226
:1036F0002D0D10922C0D82E390E090932F0D80936E
:103700002E0D88E697E00E94EF110E94D6108BE004
:103710000E94D405892B19F49FEF291A390A8AE0EF
:103720000E94D405892B11F00C943B2A21E0221A27
:10373000310819F414E0212E312C81E08093340DEE
:103740008093350D8AE590E090932D0D80932C0D9C
:1037500091012F5F3F4F4AE0429FC001439F900D70
:10376000112490932F0D80932E0D86E797E00E94F1
:10377000F0110E94D6108DE00E94D405892B09F02B
:10378000D3C141E02416310409F03EC70E94D1069E
:1037900060547B428E4F9F4F60930A0C70930B0CCA
:1037A00080930C0C90930D0C64EF71E080E090E03E
:1037B0000E94A10601E010E0EE24E394F12C74E3F2
:1037C000C72ED12CEDE54E2E512CFAE06F2E712C28
:1037D000AFE08A2E912C0E94FC11F092330DE09202
:1037E000320DF092310DE092300D10922D0D1092AD
:1037F0002C0D10922F0D10922E0D81E08093340D20
:103800008093350D8AE797E00E94EF1110922D0DFD
:1038100010922C0D8CE090E090932F0D80932E0D44
:103820008FE897E00E94EF1110922D0D10922C0D51
:1038300086E190E090932F0D80932E0D8FE997E015
:103840000E94EF1110922D0D10922C0D80E290E04D
:1038500090932F0D80932E0D8FEA97E00E94EF1129
:1038600010922D0D10922C0D8AE290E090932F0D66
:1038700080932E0D8FEB97E00E94EF1110922D0D8B
:1038800010922C0DD0922F0DC0922E0D8FEC97E040
:103890000E94EF110E94D6108BE00E94D405892B64
:1038A00011F40F5F1F4F8AE00E94D405892B11F09D
:1038B0000C94462A0150110911F405E010E091E042
:1038C0009093340D9093350D50922D0D40922C0D08
:1038D0002AE0209FC001219F900D11240296909311
:1038E0002F0D80932E0D86E797E00E94F0110E9425
:1038F000D6108DE00E94D405892B09F0FAC0013062
:10390000110509F031C30E94D10660547B428E4FED
:103910009F4F60930A0C70930B0C80930C0C909348
:103920000D0C64EF71E080E090E00E94A1065EE182
:10393000A52EB12C0E94FC11F092330DE092320DB5
:10394000F092310DE092300D10922D0D10922C0D51
:1039500010922F0D10922E0D21E02093340D209304
:10396000350D8FED97E00E94F0110E94D6108AE08D
:103970000E94D405892B49F480910E0290910F0288
:10398000019690930F0280930E028BE00E94D40563
:10399000892B49F480910E0290910F020197909328
:1039A0000F0280930E0241E04093340D4093350D99
:1039B00010922D0D10922C0D90922F0D80922E0DA5
:1039C00083EF97E00E94F01110922D0D10922C0DB4
:1039D000B0922F0DA0922E0D81E098E00E94EF1181
:1039E00082E08093340D8093350D80910E0290918A
:1039F0000F020E94071291E09093340D9093350DC1
:103A00008DE896E00E94F01110922D0D10922C0D71
:103A1000D0922F0DC0922E0D88E098E00E94EF11F9
:103A20008091210C9091220C0E9407128DE896E063
:103A30000E94EF110E94D61068EC70E080E090E0E8
:103A40000E94A1068CE00E94D405019781F40E9497
:103A5000D10620910A0C30910B0C40910C0C509126
:103A60000D0C621773078407950708F463CF0E9453
:103A7000FC1110922D0D10922C0D10922F0D109202
:103A80002E0D89E198E00E94F01180E398E00E94F9
:103A9000EF1120910E022D83822F0E94ED128BE3F5
:103AA00098E00E94EF11B0900F028B2D0E94ED1252
:103AB00086E498E00E94EF11BA82198269817A81C6
:103AC0004D81642B90E080E04AE00E94AC110E949E
:103AD000D6106B2D90E080E00E9475136D8181E01F
:103AE00090E00E94751368EC70E080E090E00E9426
:103AF000A10668EC70E080E090E00E94A1068CE0F6
:103B00000E94D405019781F40E94D10620910A0CED
:103B100030910B0C40910C0C50910D0C62177307F7
:103B20008407950708F457CE68EC70E080E090E0D9
:103B30000E94A1068CE00E94D405019781F40E94A6
:103B4000D10600910A0C10910B0C20910C0C3091B5
:103B50000D0C601771078207930708F482CD8091DE
:103B6000200C61E0811101C060E086E00E94FC054C
:103B70000E94FC118AE090E090932D0D80932C0D13
:103B800010922F0D10922E0D86E796E00E94F011F4
:103B900081E08093340D8093350D10922D0D10929D
:103BA0002C0D8AE090E090932F0D80932E0D82E4EF
:103BB0009BE00E94EF118091060C9091070C0E94EF
:103BC000071284EB99E00E94EF118091200C88236A
:103BD00011F40C94292A8BE49BE00E94EF111092BF
:103BE0002D0D10922C0D10922F0D10922E0D8DE593
:103BF0009BE00E94EF118091080C9091090C0E94AB
:103C000007128CE896E00E94EF1110922D0D109291
:103C10002C0D86E190E090932F0D80932E0D8BE676
:103C20009BE00E94EF110E945E116091F90B709170
:103C3000FA0B8091FB0B9091FC0B4AE00E94AC11B7
:103C40008FEF97E00E94EF116091F50B7091F60BEA
:103C50008091F70B9091F80B6A3071058105910501
:103C600010F40C942D2A0E94E01286E79BE00E943B
:103C7000EF1120911202309113028DED95E0821B1D
:103C8000930B0E94071280E999E00E94EF11609166
:103C90001A0C70911B0C80911C0C90911D0C0E94B1
:103CA000E01210922D0D10922C0D8AE290E090936C
:103CB0002F0D80932E0D82E99AE00E94EF118091E2
:103CC000210C9091220C0E9407128DE896E00E9430
:103CD000EF1181E098E00E94EF1180910E02909127
:103CE0000F020E9407128DE896E00E94F0118BE906
:103CF0009AE00E94EF118091250C9091260C0E9471
:103D000007128DE896E00E94EF1181E098E00E9492
:103D1000EF1180911002909111020E9407128DE81C
:103D200096E00E94EF110E94D610809112029091AD
:103D300013028D3D25E092070CF021CB0196909364
:103D40001302809312021BCB2091210C3091220C84
:103D500080910E0290910F02821793070CF064CCB1
:103D60008091230C9091240C01969093240C8093C5
:103D7000230C109213021092120210921F0C109238
:103D80001E0C80911A0C90911B0CA0911C0CB091F0
:103D90001D0C0196A11DB11D80931A0C90931B0C54
:103DA000A0931C0CB0931D0C8091100C9091110CE1
:103DB000A091120CB091130C0196A11DB11D80931E
:103DC000100C9093110CA093120CB093130C0E9442
:103DD000901261E082E00E94FC0561E083E00E94B5
:103DE000FC0561E084E00E94FC0561E085E00E9442
:103DF000FC0561E086E00E94FC0560E084E00E9432
:103E0000FC058DE291E09E838D830E9489130E94C0
:103E1000901264E670E080E090E00E94A1068D813F
:103E20009E8101979E838D83892B79F760E083E0E3
:103E30000E94FC0583E390E09E838D830E9489139A
:103E40000E94901264E670E080E090E00E94A1067B
:103E50008D819E8101979E838D83892B79F760E008
:103E600082E00E94FC0511E088E00E94D4059E8358
:103E70008D8390932A0C8093290C89E00E94D405AD
:103E80009093280C8093270C019721F08D819E81BF
:103E9000019711F410932B0C0E94891380911E0C32
:103EA00090911F0C019690931F0C80931E0C0E9402
:103EB000901264EF71E080E090E00E94A106809192
:103EC0000E0290910F0220910A0230910B02821B88
:103ED000930B4091210C5091220C20911E0C30919B
:103EE0001F0C841795074CF42C3D95E039072CF4F2
:103EF00080912B0C882309F4B7CF30930F0C2093BB
:103F00000E0C61E082E00E94FC0583E390E09E835A
:103F10008D830E9489130E94901264E670E080E015
:103F200090E00E94A1068D819E8101979E838D83E2
:103F3000892B79F761E083E00E94FC0589EC90E031
:103F40009E838D830E9489130E94901264E670E024
:103F500080E090E00E94A1068D819E8101979E8362
:103F60008D83892B79F75CCB0230110509F0D1C024
:103F70000E94D10660547B428E4F9F4F60930A0C83
:103F800070930B0C80930C0C90930D0C64EF71E00C
:103F900080E090E00E94A1064EE1A42EB12C0E9488
:103FA000FC11F092330DE092320DF092310DE0925F
:103FB000300D10922D0D10922C0D10922F0D10928D
:103FC0002E0D81E08093340D8093350D8EE498E0C2
:103FD0000E94F0110E94D6108AE00E94D405892B1D
:103FE00049F480910A0290910B02019690930B0282
:103FF00080930A028BE00E94D405892B49F48091BA
:104000000A0290910B02019790930B0280930A028F
:1040100091E09093340D9093350D10922D0D1092E8
:104020002C0D90922F0D80922E0D82E698E00E942A
:10403000F01110922D0D10922C0DB0922F0DA09218
:104040002E0D81E098E00E94EF1122E02093340DC4
:104050002093350D80910A0290910B020E94071265
:1040600041E04093340D4093350D84E798E00E9481
:10407000F01110922D0D10922C0DD0922F0DC09298
:104080002E0D88E098E00E94EF118091210C909114
:10409000220C0E9407128DE896E00E94EF110E9408
:1040A000D61068EC70E080E090E00E94A1068CE001
:1040B0000E94D405019781F40E94D10620910A0C38
:1040C00030910B0C40910C0C50910D0C6217730742
:1040D0008407950708F463CF0E94FC1110922D0D00
:1040E00010922C0D10922F0D10922E0D8CE798E04F
:1040F0000E94F0118EE898E00E94EF1180910A0270
:104100008D830E94ED120E94D6106D8188E090E0B0
:10411000E8CC0330110509F0EFC00E94D1066054CD
:104120007B428E4F9F4F60930A0C70930B0C8093D1
:104130000C0C90930D0C64EF71E080E090E00E9415
:10414000A1063EE1A32EB12C0E94FC11F092330D8A
:10415000E092320DF092310DE092300D10922D0D63
:1041600010922C0D10922F0D10922E0D91E0909325
:10417000340D9093350D89E998E00E94F0110E946A
:10418000D6108AE00E94D405892B49F48091100250
:1041900090911102019690931102809310028BE08E
:1041A0000E94D405892B49F480911002909111024C
:1041B0000197909311028093100221E02093340D17
:1041C0002093350D10922D0D10922C0D90922F0DE5
:1041D00080922E0D8FEA98E00E94F01110922D0D22
:1041E00010922C0DB0922F0DA0922E0D81E098E030
:1041F0000E94EF1142E04093340D4093350D8091C1
:104200001002909111020E94071281E08093340DF8
:104210008093350D8DE896E00E94F01110922D0DDF
:1042200010922C0DD0922F0DC0922E0D88E098E0A8
:104230000E94EF118091250C9091260C0E9407128C
:104240008DE896E00E94EF110E94D61068EC70E0B5
:1042500080E090E00E94A1068CE00E94D4050197C6
:1042600081F40E94D10620910A0C30910B0C4091F0
:104270000C0C50910D0C621773078407950708F416
:1042800063CF0E94FC1110922D0D10922C0D1092F4
:104290002F0D10922E0D80EC98E00E94F01187ED0A
:1042A00098E00E94EF11909110029D83892F0E9447
:1042B000ED1282EE98E00E94EF11B09011028B2D6A
:1042C0000E94ED1286E498E00E94EF11BC821B82EE
:1042D0006B817C812D81622B90E080E04AE00E941E
:1042E000AC110E94D6106B2D85E090E00E947513F2
:1042F0006D8186E090E0F5CB0430110509F0D2C065
:104300000E94D10660547B428E4F9F4F60930A0CEF
:1043100070930B0C80930C0C90930D0C64EF71E078
:1043200080E090E00E94A1062EE1A22EB12C0E9416
:10433000FC11F092330DE092320DF092310DE092CB
:10434000300D10922D0D10922C0D10922F0D1092F9
:104350002E0D41E04093340D4093350D8DEE98E0E5
:104360000E94F0110E94D6108AE00E94D405892B89
:1043700049F480910C0290910D02019690930D02E8
:1043800080930C028BE00E94D405892B49F4809124
:104390000C0290910D02019790930D0280930C02F4
:1043A00081E08093340D8093350D10922D0D109285
:1043B0002C0D90922F0D80922E0D83E099E00E949B
:1043C000F01110922D0D10922C0DB0922F0DA09285
:1043D0002E0D81E098E00E94EF1192E09093340D51
:1043E0009093350D80910C0290910D020E9407125E
:1043F00021E02093340D2093350D84E798E00E944E
:10440000F01110922D0D10922C0DD0922F0DC09204
:104410002E0D88E098E00E94EF118091250C90917C
:10442000260C0E9407128DE896E00E94EF110E9470
:10443000D61068EC70E080E090E00E94A1068CE06D
:104440000E94D405019781F40E94D10620910A0CA4
:1044500030910B0C40910C0C50910D0C62177307AE
:104460008407950708F463CF0E94FC1110922D0D6C
:1044700010922C0D10922F0D10922E0D89E199E0C3
:104480000E94F0118BE299E00E94EF1140910C0222
:104490004D83842F0E94ED120E94D6106D8183E01F
:1044A00090E01FCB0530110509F023CB0E94D10607
:1044B00060547B428E4F9F4F60930A0C70930B0C9D
:1044C00080930C0C90930D0C64EF71E080E090E011
:1044D0000E94A1060E94FC11F092330DE092320D71
:1044E000F092310DE092300D10922D0D10922C0DA6
:1044F00085E090E090932F0D80932E0D91E09093A6
:10450000340D9093350D86E399E00E94F0118AE016
:104510000E94D405892B19F421E02093200C8BE014
:104520000E94D405892B11F41092200C41E0409395
:10453000340D4093350D10922D0D10922C0D84E109
:1045400090E090932F0D80932E0D88E499E00E94C7
:10455000EF1170922D0D60922C0D83E290E09093FC
:104560002F0D80932E0D92E09093340D9093350D86
:104570008091200C8823A1F18DE49BE00E94EF1133
:1045800021E02093340D2093350D70922D0D609213
:104590002C0DD0922F0DC0922E0D87E599E00E9430
:1045A000EF110E94D61068EC70E080E090E00E946D
:1045B000A1068CE00E94D405019709F09ACA0E94D6
:1045C000D10620910A0C30910B0C40910C0C5091AB
:1045D0000D0C621773078407950708F47BCF89CA0F
:1045E00086E59BE00E94EF1141E04093340D40933B
:1045F000350D70922D0D60922C0DD0922F0DC09222
:104600002E0D84E699E0CBCF82E02816310409F024
:1046100076C10E94D10660547B428E4F9F4F6093BB
:104620000A0C70930B0C80930C0C90930D0C61E0B2
:1046300082E00E94FC0561E083E00E94FC0561E0ED
:1046400084E00E94FC0561E085E00E94FC0561E0D9
:1046500086E00E94FC0564EF71E080E090E00E943B
:10466000A106512C612C712C1D8201E010E0A6E105
:10467000EA2EF12CB0E2CB2ED12C8AE2A82EB12C5E
:1046800097E3892E912C0E94FC111093330D009317
:10469000320D1093310D0093300D10922D0D1092AC
:1046A0002C0D10922F0D10922E0D91E09093340D41
:1046B0009093350D81E799E00E94EF1110922D0D36
:1046C00010922C0D8CE090E090932F0D80932E0D86
:1046D00082E899E00E94EF119D81992309F4E1C0DD
:1046E00060E084E00E94FC0587E899E00E94EF11F9
:1046F00010922D0D10922C0DF0922F0DE0922E0D98
:1047000083E999E00E94EF11772009F4D1C060E0BD
:1047100086E00E94FC0587E899E00E94EF11109264
:104720002D0D10922C0DD0922F0DC0922E0D88E9D8
:1047300099E00E94EF11662009F4C1C060E083E0B7
:104740000E94FC0587E899E00E94EF1110922D0D60
:1047500010922C0DB0922F0DA0922E0D8DE999E0A4
:104760000E94EF11552009F4B1C060E085E00E947D
:10477000FC0587E899E00E94EF110E94D6108BE0BB
:104780000E94D405892B49F4809100029091010286
:10479000019690930102809300028AE00E94D40562
:1047A000892B49F480910002909101020197909326
:1047B000010280930002809100029091010218167C
:1047C000190634F084E090E0909301028093000297
:1047D0008091000290910102059724F0109301024C
:1047E0000093000291E09093340D9093350D209149
:1047F0000002309101024AE0429FC001439F900DA8
:104800001124029690922D0D80922C0D90932F0DD5
:1048100080932E0D86E797E00E94F0118DE00E94B4
:10482000D405892B61F480910002909101028130BE
:10483000910509F052C02D8141E024272D830E946B
:10484000D61068EC70E080E090E00E94A1068CE059
:104850000E94D405019781F40E94D10620910A0C90
:1048600030910B0C40910C0C50910D0C621773079A
:104870008407950708F407CF61E082E00E94FC05F9
:1048800061E083E00E94FC0561E084E00E94FC0599
:1048900061E085E00E94FC0561E086E00E94FC0585
:1048A00043C961E084E00E94FC058DE899E01ECFD9
:1048B00061E086E00E94FC058DE899E02ECF61E082
:1048C00083E00E94FC058DE899E03ECF61E085E041
:1048D0000E94FC058DE899E04ECF8230910519F4D5
:1048E00081E07826ACCF8330910519F491E06926F8
:1048F000A6CF049709F0A3CF21E05226A0CF43E032
:104900002416310409F0D2C50E94D10660547B42BE
:104910008E4F9F4F60930A0C70930B0C80930C0C7E
:1049200090930D0C64EF71E080E090E00E94A1068E
:1049300011E088E30E9465069093220C8093210C7D
:1049400089E30E9465069093260C8093250C86E3EC
:104950000E9465069093090C8093080C87E30E94DF
:1049600065069093070C8093060C0E94FC1181E071
:1049700090E09093330D8093320D9093310D80939E
:10498000300D10922D0D10922C0D10922F0D1092B3
:104990002E0D1093340D1093350D82EA99E00E948C
:1049A000EF118091080C9091090C0E9407128DE87C
:1049B00096E00E94F01188EA99E00E94EF11809140
:1049C0000402909105020E9407128DE896E00E9471
:1049D000EF118EEA99E00E94EF118091000C909106
:1049E000010C0E94071284EB99E00E94F01184E40C
:1049F0009BE00E94EF118091060C9091070C0E94A1
:104A000007128DE896E00E94F01188EA99E00E9472
:104A1000EF1180910202909103020E9407128DE82B
:104A200096E00E94EF118EEA99E00E94EF118091CA
:104A3000FE0B9091FF0B0E94071284EB99E00E94FD
:104A4000F01186EB99E00E94EF118091210C90917A
:104A5000220C0E9407128DE896E00E94F01188EA6D
:104A600099E00E94EF1180910802909109020E9442
:104A700007128DE896E00E94EF118EEA99E00E94FD
:104A8000EF118091040C9091050C0E94071284EBA9
:104A900099E00E94F01180EC99E00E94EF11809162
:104AA000250C9091260C0E9407128DE896E00E943A
:104AB000F01188EA99E00E94EF118091060290912E
:104AC00007020E9407128DE896E00E94EF118EEA1D
:104AD00099E00E94EF118091020C9091030C0E94CA
:104AE000071284EB99E00E94F0110E94D61068EC46
:104AF00070E080E090E00E94A1068CE00E94D40566
:104B0000019709F011C80E94D106C0900A0CD090FC
:104B10000B0CE0900C0CF0900D0C6C157D058E05C7
:104B20009F0508F406CF00C80230110509F0B3C094
:104B30000E94D10660547B428E4F9F4F60930A0CB7
:104B400070930B0C80930C0C90930D0C64EF71E040
:104B500080E090E00E94A1060E94FC1181E090E0BC
:104B60009093330D8093320D9093310D8093300DDF
:104B700010922D0D10922C0D10922F0D10922E0DC3
:104B80009092340D9092350D80ED96E00E94EF11D9
:104B90006091F90B7091FA0B8091FB0B9091FC0BDB
:104BA0004AE00E94AC118FEF97E00E94EF116091F4
:104BB000F50B7091F60B8091F70B9091F80B6A3022
:104BC00071058105910508F459C00E94E01284E541
:104BD0009AE00E94F01187E69AE00E94EF1160913E
:104BE000100C7091110C8091120C9091130C0E947A
:104BF000E01281E79AE00E94EF116091160C70912B
:104C0000170C8091180C9091190C0E94E0128BE700
:104C10009AE00E94F0118EE89AE00E94EF118091D4
:104C20000E0C90910F0C0E94341287E99AE00E94BA
:104C3000EF118091140C9091150C0E9434120E9477
:104C4000D61068EC70E080E090E00E94A1068CE055
:104C50000E94D405019709F0EEC30E94D106C090CE
:104C60000A0CD0900B0CE0900C0CF0900D0C6C1515
:104C70007D058E059F0508F46FCFDDC38EEE96E0AF
:104C80000E94EF116091F50B7091F60B8091F70B7C
:104C90009091F80B9ACF0330110509F0D0C00E9413
:104CA000D10660547B428E4F9F4F60930A0C7093E5
:104CB0000B0C80930C0C90930D0C64EF71E080E072
:104CC00090E00E94A1060E94FC119092340D9092F7
:104CD000350D81E090E09093330D8093320D9093E9
:104CE000310D8093300D10922D0D10922C0D1092DD
:104CF0002F0D10922E0D80EA9AE00E94EF114AE0EB
:104D000060E070E180E090E00E94AC1184E796E002
:104D10000E949F110E94FC119092340D9092350DCB
:104D200081E090E09093330D8093320D9093310D9C
:104D30008093300D10922D0D10922C0D10922F0D8E
:104D400010922E0D80EA9AE00E94EF114AE060E096
:104D500070E180E090E00E94AC1184E796E00E9450
:104D60009F118BE00E94D405892B29F495E0E91A64
:104D7000F1080E94D6108AE00E94D405892BD9F54B
:104D800025E0E20EF11C0E94D610E11440E1F40689
:104D900024F06BEFE62E6FE0F62E10922D0D1092A0
:104DA0002C0D88E090E090932F0D80932E0D6701DD
:104DB00095E0C90ED11C5701CA14DB0409F1C501E5
:104DC0000E9468148093FD0B89E69BE00E94F0111D
:104DD000C5010E94071280EC96E00E94EF116091DD
:104DE000FD0B70E090E080E040E10E94AC112FEFFD
:104DF000A21AB20AE1CFF7FEC8CFF12CE12CC5CF41
:104E00000E94D61062E370E080E090E00E94A1066C
:104E10008CE00E94D405019709F00DC30E94D106D1
:104E200020910A0C30910B0C40910C0C50910D0C00
:104E3000621773078407950708F46CCFFCC204302F
:104E4000110509F052C30E94D10660547B428E4F77
:104E50009F4F60930A0C70930B0C80930C0C9093F3
:104E60000D0C0E94FC119092340D9092350D81E052
:104E700090E09093330D8093320D9093310D809399
:104E8000300D10922D0D10922C0D10922F0D1092AE
:104E90002E0D80EB9AE00E94F01182EC9AE00E94C5
:104EA000EF110E94D61068EE73E080E090E00E945F
:104EB000A1068BE00E94D405892B09F078C01092DE
:104EC000050C1092040C60E08AE090E00E947513DB
:104ED00060E08BE090E00E94751380E094E0909396
:104EE00009028093080264E08CE090E00E94751350
:104EF00060E08DE090E00E9475131092030C109218
:104F0000020C60E08EE090E00E94751360E08FE09C
:104F100090E00E94751380E094E0909307028093E4
:104F2000060264E080E190E00E94751360E081E198
:104F300090E00E9475131092010C1092000C60E03A
:104F400082E190E00E94751360E083E190E00E94AE
:104F5000751380E094E0909305028093040264E06E
:104F600084E190E00E94751360E085E190E00E948A
:104F700075131092FF0B1092FE0B60E086E190E03B
:104F80000E94751360E087E190E00E94751380E055
:104F900094E0909303028093020264E088E190E041
:104FA0000E94751360E089E190E00E9475130E94F1
:104FB000FC119092340D9092350D81E090E0909329
:104FC000330D8093320D9093310D8093300D1092FC
:104FD0002D0D10922C0D10922F0D10922E0D8EEC87
:104FE0009AE00E94F01184EE9AE00E94EF11109274
:104FF0002D0D10922C0D89E190E090932F0D809350
:105000002E0D8AE090E00E946814F82E8BE090E06C
:105010000E9468149F2D9093050C8093040C82EFDE
:105020009AE00E94EF118091040C9091050C0E946F
:1050300007128CE090E00E946814F82E8DE090E05A
:105040000E9468149F2D909309028093080289EFB3
:105050009AE00E94EF1180910802909109020E944B
:1050600034128EE090E00E946814F82E8FE090E0F9
:105070000E9468149F2D9093030C8093020C8EEF76
:105080009AE00E94EF118091020C9091030C0E9413
:10509000071280E190E00E946814F82E81E190E010
:1050A0000E9468149F2D909307028093060289EF57
:1050B0009AE00E94EF1180910602909107020E94EF
:1050C000341282E190E00E946814F82E83E190E0AF
:1050D0000E9468149F2D9093010C8093000C85E032
:1050E0009BE00E94EF118091000C9091010C0E94B6
:1050F000071284E190E00E946814F82E85E190E0A8
:105100000E9468149F2D909305028093040289EFFA
:105110009AE00E94EF1180910402909105020E9492
:10512000341286E190E00E946814F82E87E190E046
:105130000E9468149F2D9093FF0B8093FE0B8DE0CF
:105140009BE00E94EF118091FE0B9091FF0B0E945B
:10515000071288E190E00E946814F82E89E190E03F
:105160000E9468149F2D909303028093020289EF9E
:105170009AE00E94EF1180910202909103020E9436
:1051800034120E94D61068EC70E080E090E00E943B
:10519000A1068CE00E94D405019709F04CC10E9441
:1051A000D106C0900A0CD0900B0CE0900C0CF09043
:1051B0000D0C6C157D058E059F0508F47ACE3BC15C
:1051C0000E94D106C0900A0CD0900B0CE0900C0C01
:1051D000F0900D0C6C157D058E059F0510F00C945C
:1051E000941D0E94FC1181E090E09093330D809318
:1051F000320D9093310D8093300D10922D0D109241
:105200002C0D10922F0D10922E0D9092340D909225
:10521000350D89EC99E00E94EF1110922D0D10923E
:105220002C0D8CE090E090932F0D80932E0D8CED43
:1052300099E00E94EF1110922D0D10922C0D86E135
:1052400090E090932F0D80932E0D8DEE99E00E94AB
:10525000EF1110922D0D10922C0D80E290E09093A2
:105260002F0D80932E0D8EEF99E00E94EF1110927A
:105270002D0D10922C0D8AE290E090932F0D8093CB
:105280002E0D8FE09AE00E94EF1110922D0D1092DA
:105290002C0D84E390E090932F0D80932E0D80E2EF
:1052A0009AE00E94EF110E94D6108BE00E94D40574
:1052B000892B11F40F5F1F4F8AE00E94D405892BC0
:1052C00009F0EDC00150110911F405E010E09092D1
:1052D000340D9092350D50922D0D40922C0D2AE0F8
:1052E000209FC001219F900D1124029690932F0DB5
:1052F00080932E0D86E797E00E94F0110E94D61051
:105300008DE00E94D4057C01892B09F094C0013006
:10531000110509F009CC0E94D10660547B428E4FE2
:105320009F4F60930A0C70930B0C80930C0C90931E
:105330000D0C64EF71E080E090E00E94A10660E057
:1053400084E00E94FC05C12C74E0D72EEAE0AE2E6A
:10535000B12CF2E08F2E0E94FC1181E090E090933E
:10536000330D8093320D9093310D8093300D109258
:105370002D0D10922C0D10922F0D10922E0D90923B
:10538000340D9092350D81E39AE00E94F01187E38D
:105390000E9465069093070C8093060CE816F906A8
:1053A0000CF47C018C159D050CF46C0110922D0DF4
:1053B00010922C0DB0922F0DA0922E0D8092340DD4
:1053C0008092350D82E49AE00E94EF118091060CE4
:1053D0009091070C0E94341288E49AE00E94EF1129
:1053E000C6010E9434128EE49AE00E94EF11C701B8
:1053F0000E9434120E94D61068EC70E080E090E0C9
:105400000E94A1068CE00E94D405019781F40E94BD
:10541000D10620910A0C30910B0C40910C0C50914C
:105420000D0C621773078407950708F494CF61E0A9
:1054300084E00E94FC0568EC70E080E090E00E944F
:10544000A1068CE00E94D405019709F4B9CE0C9412
:10545000941D84E59BE00C94ED1D8EEE96E00E9479
:10546000EF116091F50B7091F60B8091F70B909115
:10547000F80B0C94331E45E02416310411F00C9403
:105480009D1B22242394312C0C949D1B0630110566
:1054900011F00C945F1C01E010E00C945F1C0630CE
:1054A000110509F014CF01E010E011CF0E94D106E0
:1054B00060547B428E4F9F4F60930A0C70930B0C8D
:1054C00080930C0C90930D0C64EF71E080E090E001
:1054D0000E94A10601E010E09924939482E6482EF0
:1054E000512C92E3692E712C7CCE0530110509F008
:1054F000A2CF0E94D10660547B428E4F9F4F609393
:105500000A0C70930B0C80930C0C90930D0C64EFB1
:1055100071E080E090E00E94A10657EFF52E86E34F
:105520000E9465069093090C8093080C87E30E9403
:1055300065069093070C8093060C88E30E9465062D
:105540009093220C8093210C89E30E94650690932E
:10555000260C8093250C0E94FC1181E090E0909332
:10556000330D8093320D9093310D8093300D109256
:105570002D0D10922C0D10922F0D10922E0D909239
:10558000340D9092350D85E19BE00E94F01183E28D
:105590009BE00E94EF118091210C9091220C9C01C4
:1055A00043E0220F331F4A95E1F7821B930BB301AF
:1055B000DCD0CB0186589F4F0E94071280EC96E00A
:1055C0000E94EF118091210C9091220C0E943412C4
:1055D0008AE29BE00E94EF112091250C3091260C6D
:1055E0004F2D4203C001439F900D1124B301BDD044
:1055F000CB018C579F4F0E94071280EC96E00E94CF
:10560000EF118091250C9091260C0E94341281E3B9
:105610009BE00E94EF112091060C3091070C4F2D5A
:105620004203C001439F900D1124B3019ED0CB01D2
:105630008C579F4F0E94071280EC96E00E94EF115A
:105640008091060C9091070C0E9434128AE39BE033
:105650000E94EF112091080C3091090C4F2D42034C
:10566000C001439F900D1124B3017FD0CB018C5713
:105670009F4F0E94071280EC96E00E94EF118091EC
:10568000080C9091090C0E9434120E94D61060E917
:1056900071E080E090E00E94A1068CE00E94D405B9
:1056A000019709F0C8CE0E94D10620910A0C3091D2
:1056B0000B0C40910C0C50910D0C62177307840772
:1056C000950708F42CCFB7CEF999FECF92BD81BDD6
:1056D000F89A992780B50895262FF999FECF1FBA19
:1056E00092BD81BD20BD0FB6F894FA9AF99A0FBE0B
:1056F000019608952BD0A59F900DB49F900DA49F67
:10570000800D911D11240895A1E21A2EAA1BBB1B26
:10571000FD010DC0AA1FBB1FEE1FFF1FA217B3077D
:10572000E407F50720F0A21BB30BE40BF50B661F93
:10573000771F881F991F1A9469F760957095809557
:1057400090959B01AC01BD01CF010895A29FB001CE
:10575000B39FC001A39F700D811D1124911DB29FA5
:10576000700D811D1124911D089597FB072E16F4CD
:10577000009406D077FD08D013D007FC05D03EF486
:10578000909581959F4F0895709561957F4F0895ED
:10579000EE0FFF1F881F8BBF0790F691E02D199425
:1057A000AA1BBB1B51E107C0AA1FBB1FA617B70747
:1057B00010F0A61BB70B881F991F5A95A9F7809563
:1057C0009095BC01CD01089581E090E0F89400C06F
:0457D000F894FFCF7B
:1057D400010000040004000400040A000A0080021E
:1057E400D101DD0500000000000000000000000001
:1057F40000000000000000000000000000000000A5
:105804000000000000000000000000000000000094
:105814000000000000000000000000000000000084
:1058240000000080808000000000000000000000F4
:1058340000000000008080C0C000000000000000E4
:105844000000000000000000000000000000000054
:105854000000000000000000000000000000000044
:105864000000000000000000000000000000000034
:10587400000000000000000080C0E0F0F8FCF8E048
:105884000000000000000000000000000000000014
:105894000080808080800080800000000080808004
:1058A400808000FFFFFF00000000808080800000F7
:1058B4008080000080FFFF808000808000808080E6
:1058C400800080800000000000808000008C8E84B6
:1058D400000080F8F8F880000000000000000000DC
:1058E40000000000F0F0F0F0F0F0F0F0F0F0F0F074
:1058F400E0E0C08000E0FCFEFFFFFF7FFFFFFFFF52
:10590400FF0000000000000000000000000000FE96
:10591400FFC70101010183FFFF00007CFEC70101F5
:10592400010183FFFFFF0038FEC78301010183C724
:10593400FFFF000001FFFF010100FFFF070101015C
:1059440000007FFF80000000FFFF7F0000FFFFFFDB
:10595400000001FFFFFF0100000000000000000044
:1059640000000000030F3F7F7FFFFFFFFFFFFFFFEB
:10597400E7C7C78F8F9FBFFFFFC3C0F0FFFFFFFFC5
:10598400FFFCFCFCFCFCFCFCFCF8F8F0F0E0C000C4
:1059940001030303030301030300000000010303E5
:1059A40003030101030100000001030303030101D8
:1059B40003030000000303000000030300000000D1
:1059C40000000001030303030301000000010301BD
:1059D40000000003030100000000000000000000BC
:1059E4000000000000000080C0E0F0F9FFFFFFFFAE
:1059F400FF3F1F0F87C7F7FFFF1F1F3DFCF8F8F895
:105A0400F87C7DFFFFFFFFFFFFFFFF7F3F0F0700D5
:105A14003030000000000000000000000000000022
:105A24000000000000000000FEFEFC00000000007A
:105A34000000000000000000000000000000000062
:105A440000E0C00000000000000000000000303052
:105A54000000000000000000000000000000000042
:105A64000000000000C0FEFFFFFFFFFFFFFFFFFF7D
:105A74007F7F3F1F0F071F7FFFFFF8F8FFFFFFFF28
:105A8400FFFEF8E00000000100000000000000003C
:105A9400FEFE000000FCFEFC0C06060EFCF80000F6
:105AA400F0F81C0E0606060CFFFFFF0000FEFE00C9
:105AB400000000FCFEFC00183C7E66E6CE8400007C
:105AC40006FFFF0606FCFEFC0C0606060000FEFEB2
:105AD4000000C0F8FC4E4646464E7C7840183C76A2
